:0400000081315629CB
:100008007E14803120007F08FB00911E65282300A4
:100018009D1C25281D121D164530FA007A0820005F
:10002800E9005230FA007A08EA004F30FA007A08FC
:10003800EB005630FA007A08EC0069308731AD27BA
:10004800803123001908FA007408A03E8600870151
:100058007A088100253021002006031D4B28013035
:10006800F4070030F53D7508803AFA0080307A02CE
:10007800031D402810307402031C6528013020003D
:10008800E5000030E600F401F5019112652823002F
:100098001D121D16F401F5014530FA007A082000FA
:1000A800E9005230FA007A08EA005230FA007A0879
:1000B800EB005830FA007A08EC0069308731AD2738
:1000C80080312100111C95282000111C9528111041
:1000D8005408803AFA0080307A02031D75281030DF
:1000E8005302031C85282000D301D40110100030CE
:1000F800F6009030F70087313D2780312000181036
:10010800952820004D084E04031995285308013EF0
:10011800D3000030543DD4000B309700DC309600FB
:1001280018142100131CC4282000131CC428131001
:100138005208803AFA0080307A02031DA528103050
:100148005102031CB328200090140530F6009030AB
:10015800F70087313D27803128001310C42820007C
:100168004B084C040319C4285108013ED100003043
:10017800523DD2000B3028009200DC30910013145D
:100188002100131DF6282000131DF628131150080E
:10019800803AFA0080307A02031DD42810304F02CA
:1001A800031CE5282000CF01D00125000D100A30DE
:1001B800F6009030F70087313D27803128001A106B
:1001C800F628200049084A040319F6284F08013E7A
:1001D800CF000030503DD0000B3028009900DC30B3
:1001E80098001A142100911C23292000911C23290E
:1001F80091107308803AFA008E307A02031D06299E
:10020800A6307202031C152925008D110D120F301E
:10021800F6009030F70087313D27803120001C110F
:100228002329200057085804031923297208013E7E
:10023800F2000030733DF300F9309B001C152100DB
:10024800931C51292000931C512993107108803A5E
:10025800FA008E307A02031D3329A6307002031C7F
:10026800422925000D128D111430F6009030F70048
:1002780087313D2780312800171151292000550862
:100288005604031951297008013EF0000030713DF1
:10029800F100F9302800960017157B082000FF00B0
:1002A8007E10090081315829BF3084008F308500C5
:1002B800673086000030870007308F31B9278131D9
:1002C800D230840085308500A03086000030870059
:1002D8003A308F31B92781310C308400863085005F
:1002E80020308600013087003A308F31B9278131BC
:1002F800F001F101F201F301F401F5014930840044
:10030800003085001E308F31B3272100DA01DB0170
:10031800DC01DD01DE01DF017E102000813194293E
:1003280029302000C4009630C3007F30890B9A29F9
:10033800C30B9A29C40B9A2901302000E30000302E
:10034800E4000130E1000030E2000130DF0000305D
:10035800E0000130DD000030DE000130DB0000305D
:10036800DC0090148631DD2681318731C127813147
:10037800200065036604031D4C2AE501E6012530CB
:1003880021002006031D042A25302106031D042A06
:1003980040302E06031D042A40302F06031D042A70
:1003A8008731E42781318631AE26813121004F081B
:1003B8002000C3004308AE00210050082000C400FC
:1003C8004408AF00210051082000C5004508B000CE
:1003D800210052082000C6004608B1002100530839
:1003E8002000C7004708B200210054082000C800B8
:1003F8004808B30021004E0884312D2481314C2A4D
:1004080045302000C3004308E9005230C3004308C8
:10041800EA004C30C3004308EB005330C3004308E4
:10042800EC00693087315627813123009D131D1256
:100438002100E001E1016108803A2000C30080301A
:100448004302031D2A2A0F30210060020318492A9B
:1004580023302000C30021006008A03E86008701E9
:1004680020004308810001302100E0070030E13D11
:100478006108803A2000C30080304302031D472AE8
:100488000F3021006002031C2C2A23001D169D1723
:1004980001302100E2000030E30030304106031D46
:1004A800722A20008F1E722A63086404031D722AB0
:1004B800210062036304031D6A2A313086317A26DB
:1004C80081318731D3278131200010102100E201CA
:1004D800E30101302000E3000030E4003030210067
:1004E8004106031D9E2A20008F1A9E2A6303640476
:1004F800031D9E2A210062036304031D982A3130DC
:100508008631462681318731D32781312000101466
:100518000130CD000030CE00D301D4010B3097005C
:10052800DC309600111018142100E201E3012000CC
:10053800E301E401303021004206031DC02A2000F7
:100548000F1FC02A61086204031DC02A210062032C
:100558006304031DB82A323086317A268131873107
:10056800D3278131200090142100E201E3010130FA
:100578002000E1000030E200303021004206031D77
:10058800EF2A20000F1BEF2A61036204031DEF2AE4
:10059800210062036304031DE92A323086314626AE
:1005A80081318731D3278131200090100130CB0071
:1005B8000030CC00D101D2010B3028009200DC3091
:1005C800910020001310280013142100E201E30118
:1005D8002000E101E201303021004306031D112B08
:1005E80020008F1F112B5F086004031D112B2100B1
:1005F80062036304031D092B333086317A26813167
:100608008731D327813125000D102100E201E30154
:1006180001302000DF000030E000303021004306C8
:10062800031D412B20008F1B412B5F036004031D1A
:10063800412B210062036304031D3B2B33308631B9
:10064800462681318731D327813125000D140130A9
:100658002000C9000030CA00CF01D0010B302800AB
:100668009900DC3098002000131128001A1421008A
:10067800E201E3012000DF01E001303021004406FF
:10068800031D632B20000D1C632B5D085E04031DF6
:10069800632B210062036304031D5B2B3430863116
:1006A8007A2681318731D327813125008D112100A8
:1006B800E201E30101302000DD000030DE003030CF
:1006C80021004406031D942B20000D18942B5D0374
:1006D8005E04031D942B210062036304031D8E2B0B
:1006E800353086317A26813125000D123430863135
:1006F800462681318731D327813125008D15013078
:100708002000D7000030D800F201F301F9309B0037
:1007180091101C152100E201E3012000DD01DE013A
:10072800303021004506031DB62B20008D1CB62B4A
:100738005B085C04031DB62B210062036304031DE0
:10074800AE2B353086317A2681318731D3278131F6
:1007580025000D122100E201E30101302000DB0039
:100768000030DC00303021004506031DEA2B200054
:100778008D18EA2B5B035C04031DEA2B210062033E
:100788006304031DE42B343086317A268131250039
:100798008D1135308631462681318731D327813115
:1007A80025000D1601302000D5000030D600F001DC
:1007B800F101F93028009600200093102800171541
:1007C8002100E201E3012000DB01DC0130302100DF
:1007D8004606031D0C2C20000D1D0C2C59085A042C
:1007E800031D0C2C210062036304031D042C363006
:1007F80086317A2681318731D327813125000C1340
:100808002100E201E30101302000D9000030DA00C4
:10081800303021004606031DBC2920000D19BC29D3
:1008280059035A04031DBC29210062036304031DF4
:10083800262C36308631462681318731D3278131BF
:1008480025000C172100E201E3012000D901DA019B
:10085800BC292000B800BD01BE01BF01C001B6011E
:10086800B701C101C2016808BA006708B9002100D0
:1008780059082000BC00210058082000BB00380897
:10088800B4003408B9002E08B4003408BA0039306E
:1008980085316725843120002708BE002608BD0061
:1008A8002F08D03EBF00FF3003180030C0003008CA
:1008B800B4003408BB003108B4003408BC003B3035
:1008C80085316725843120002708B7002608B6003F
:1008D8003208B4003D08C03E860087013408810014
:1008E8003E08B5003D08B400B435B50DB435B50DB6
:1008F8003408FC3EC100FF30353DC2004730B4002B
:100908004108203E8600013087003408810001300C
:10091800C1070030C23D2F08B4004108203E8600C0
:1009280001308700340881000130C1070030C23D22
:100938003808B4004108203E86000130870034089A
:1009480081000130C1070030C23D2E08B4004108C3
:10095800203E86000130870034088100FD30C10741
:10096800FF30C23D31303306031D4C2D4108203E77
:10097800A0000130A1008731042784314C2D2000CC
:100988003F034004031DD62C10140130CD00003065
:10099800CE00D301D4010B309700DC309600111043
:1009A800181408001010CD01CE0108003F034004C0
:1009B800031DEF2C90100130CB000030CC00D1018A
:1009C800D2010B3028009200DC3091002000131077
:1009D8002800131408009014CB01CC0108003F0331
:1009E8004004031D0A2D25000D1401302000C90004
:1009F8000030CA00CF01D0010B3028009900DC304C
:100A080098002000131128001A14080025000D1062
:100A18002000C901CA0108003F034004031D232D1B
:100A280025000D128D1501302000D7000030D800A8
:100A3800F201F301F9309B0091101C150800250004
:100A48008D112000D701D80108003F034004031D81
:100A58003F2D25008D110D1601302000D5000030E6
:100A6800D600F001F101F93028009600200093101B
:100A780028001715080025000D122000D501D60101
:100A880008003F0C2500031C0C1303180C17080062
:100A980020003E08003A0319522D662D3D08013A00
:100AA8000319C32C033A0319DA2C013A0319F32C5E
:100AB800073A0319102D013A0319292D033A03198E
:100AC800452D662D08002000AD002D088600870101
:100AD80020300106031D752D0130A8002808AD0738
:100AE800692D2D0886008701093001060319702D2C
:100AF800AB01AC01AA012D08860087012D30010643
:100B0800031D8B2D0130A8002808AA07922D2D0857
:100B1800860087012B300106031D962D0130A800A1
:100B28002808AD072D088600870101088F31F127B5
:100B38008531031CBD2D20002C08A1002B08A00026
:100B48000A30A2000030A300873121278531200018
:100B58002D088600870101082007A800210803182E
:100B6800210AA9002808D03EAB00FF30293DAC007F
:100B7800922D20002A080319CD2D2B09A8002C0935
:100B8800A900A80A0319A90A2808A6002908A70085
:100B980008002C08A7002B08A600080023340034FE
:100BA800003400340034003400340034003400349D
:100BB800003400340034003400340034003400348D
:100BC80030343034303430343034303430343034FD
:100BD800303430343034303400340034303430344D
:100BE80030343034303430343034303430343034DD
:100BF80030343034003400342334003400340034CA
:100C08000034003400340034003400342334003419
:100C18002334003400340034003400340034003409
:100C2800003400340034003400340034003400341C
:100C3800003400340034003400340034003400340C
:100C480000340034003400340034003400340034FC
:100C580000340034003400340034003400340034EC
:100C680000340034003400340034003400340034DC
:100C780000340034003400340034003400340034CC
:100C8800003400342000A100523023009A000630BE
:100C98002000A0003030890B4F2EA00B4F2E0000F3
:100CA800313023009A0006302000A0003030890B34
:100CB8005B2EA00B5B2E0000303023009A0006301C
:100CC8002000A0003030890B672EA00B672E000093
:100CD8002000210823009A0006302000A0003030B0
:100CE800890B742EA00B742E000008002000A100B0
:100CF800523023009A0006302000A0003030890BC3
:100D0800832EA00B832E0000303023009A0006307B
:100D18002000A0003030890B8F2EA00B8F2E0000F2
:100D2800303023009A0006302000A0003030890BB4
:100D38009B2EA00B9B2E00002000210823009A0068
:100D480006302000A0003030890BA82EA00BA82E5A
:100D58000000080002302000A1000030A20002308C
:100D6800A1000030A2002208803AA00080302002B2
:100D7800031DC02E09302102031808002000210895
:100D8800A03E860087010108A0002108FE3ECE3E55
:100D980086008701200881002330A0002108A03E9A
:100DA80086008701200881000130A1070030A23D9C
:100DB800B72E8731992786318731842786312100DC
:100DC8008F160F178F170D148D140D158D150D1601
:100DD8001010901026000D108D110D120C138C128E
:100DE8000C122100901526000C108C100C112100FB
:100DF8000F128F110F110E138E17873199270800C4
:100E08002000A201A30104302206230403190800CC
:100E180023009E1C0C2F2000200884002108850038
:100E2800000823009A0001302000A0070030A13DEF
:100E38000130A2070030A33D072F2000A401A5011F
:100E4800201C2A2F2208A4072308A53D0130A2351B
:100E5800A30D890B2B2F0130A136A00C890B302F45
:100E680020082104031D242F2508A1002408A00020
:100E78000800F801F901043078067904031908001C
:100E880023009E1C442F76088400770885000008FC
:100E98009A000130F6070030F73D0130F8070030BE
:100EA800F93D3F2F2000A100210886008701010895
:100EB8000319080023009E1C5E2F200021088600CD
:100EC8008701010823009A0001302000A0002008B3
:100ED800A107582F2100911211120A3023009F00F8
:100EE80090309D0024309E00A0309B0001309C0073
:100EF8008B170B172100911623009E169D170800CB
:100F080028008D0129008D0128008C012300900103
:100F18002400900123008F0124008F0123008D01FC
:100F280024008D0123008C0108002000101090106F
:100F380025000D108D110D120C138C120C120C14AF
:100F48008C140C1520000F128F110F1125008C1115
:100F58000800F700770886008701010803190800D0
:100F680023009E1CB42F77088600870101089A0089
:100F78000130F6007608F707AE2F87316E278731E4
:100F88008F31DA2787318F31E52787318F31D027A5
:100F980087318F31C62787318731F527080025002B
:100FA8000C1003302000A1000830A0007730890B16
:100FB800DB2FA00BDB2FA10BDB2F25000C14080067
:100FC80025008C1003302000A1000830A0007730E5
:100FD800890BEC2FA00BEC2FA10BEC2F25008C1408
:100FE8000800033028009700950120009310210085
:080FF80093148B170B1708007E
:101F6600640080010131890BB42F0034FE00120099
:101F76001E00FE0BBA2F00342334003423342334DE
:101F8600233423340034033020009C009A0191103E
:101F9600210091148B170B17080028009A019B014A
:101FA6009901980120001311210013150800200043
:101FB60098019901970196011110210011148B17B0
:101FC6000B1708002800930194019201910120004B
:101FD6001310210013148B170B1708002000A10003
:101FE600A0013A3021020318FE2F30302102031CD3
:101FF600FE2FA001A00A200C0800473430343034EC
:1020060031340034473430343034323400344734D9
:1020160030343034333400344734303430343434AC
:0C2026000034473430343034353400349A
:020000040001F9
:04000E00A2C9FFDDA7
:00000001FF
