:040000008131002921
:1000060030347E14803120007F08FB00911E6C285E
:1000160023009D1C17281D121D162530F60098304A
:10002600F7009231A122803123001908FA007208E4
:10003600A03E8600023087007A0881007208A03E42
:100046008600023087000108FA0072084E3E8600DC
:10005600023087007A088100253025002006031D1E
:1000660040280130F2070030F33D003073021030B3
:1000760003197202031C6C28492872084E3E86003A
:10008600023087007C300106031D53280130220010
:10009600D2000030D300F201F301200091126C2847
:1000A600523024004E06031D60284E0803196028AE
:1000B6000130F2070030F33D6C2823001D121D1697
:1000C600F201F3012A30F6009830F7009231A122AE
:1000D60080312100911C75282000911C75289110F3
:1000E6000F121C112100111C81282000111C8128CF
:1000F60011100F169F309B001C1518102100931C21
:100106008B282000931C8B2893108F112800171121
:100116002100131C98282000131C982813108F15F3
:100126009F3028009600171513102100931DA22852
:100136002000931DA22893110F1128001E112100E3
:10014600131DAF282000131DAF2813110F159F3064
:1001560028009D001E151A102000941F1419B5289A
:10016600141FFB28941B941FCB28941322004C03C6
:100176004D04031DCB2846082000970022004408A2
:100186002000960018140F162100111420001110DB
:100196002000141B141FE328141322004A034B04E7
:1001A600031DE32842082800920022004008280088
:1001B6009100131420008F15210013142000131032
:1001C60020001419141DFB281411220048034904A9
:1001D600031DFB283E082800990022003C08280041
:1001E60098001A1420000F15210013152000131172
:1001F6007B082000FF007E10090081310229803132
:1002060003208131E700EC308400913085006430B2
:100216008600013087000B30913193218131D03037
:10022600840094308500A0308600013087002F308E
:10023600913193218131C1308400933085004E3055
:100246008600023087002030913193218131913030
:10025600840095308500A030860002308700323059
:10026600913193218131A130840093308500203073
:1002760086000330870020309131932181315E3032
:10028600840096308500A0308600033087004A300F
:10029600913193218131F001F101F201F301F40171
:1002A600F5015C308400003085000B3091318D21E2
:1002B60081312100EB01EC01ED01EE01EF0120306F
:1002C600840001308500443091318D218131CF3059
:1002D6008400013085001E3091318D21813120301E
:1002E6008400023085002E3091318D217E10200051
:1002F6008B315B2B2100BE0020004C08A600FF3985
:10030600031D0130A70097310D27813120002708F2
:100316002200B500200026082200B40020004D0867
:10032600A600FF39031D0130A70097310D27813143
:10033600200027082200B300200026082200B20071
:1003460020004E08A600FF39031D0230A700973192
:100356000D278131200027082100EE002000260805
:100366002100ED0020005008A600FF39031D0230D1
:10037600A70097310D27813120002708F1002608B4
:10038600F0004F08A600FF39031D0230A700973181
:100396000D278131200027082100EC0020002608C7
:1003A6002100EB0020005208A600FF39031D023091
:1003B600A70097310D278131200027082300D5009B
:1003C600200026082300D40020005108A600FF398B
:1003D600031D0130A70097310D2781312000270822
:1003E6002200B100200026082200B0003008303E6E
:1003F6002000D3005308E70022003208303E2000D8
:10040600D30053082200E80021003E082000D30054
:100416005308A000203093310B2381313B3020005C
:10042600A0009830A100203094312424813120008E
:100436004C08A000FF39031D0130A1002030943183
:10044600242481313B302000A0009830A1002030C8
:1004560094312424813119302000A0009830A10065
:1004660020309431242481313B302000A000983084
:10047600A100203094312424813120004D08A000B1
:10048600FF39031D0130A10020309431242481312D
:100496003B302000A0009830A10020309431242465
:1004A600813120004E08A000FF39031D0230A10053
:1004B60020309431242481313B302000A000983034
:1004C600A100203094312424813120004F08A0005F
:1004D600FF39031D0230A1002030943124248131DC
:1004E6003B302000A0009830A10020309431242415
:1004F600813120005008A000FF39031D0230A10001
:1005060020309431242481313B302000A0009830E3
:10051600A100203094312424813120005108A0000C
:10052600FF39031D0130A10020309431242481318C
:100536003B302000A0009830A100203094312424C4
:1005460081312F302000A0009830A1002030943156
:1005560024248131203093318123813120006708A2
:10056600D30022003408C03E8600023087002000F7
:100576005308810000302100A9000030A800003097
:10058600A7000030A6000030AD000030AC000030FF
:10059600AB000030AA000030B1000030B0000030DF
:1005A600AF000030AE000030B5000030B4000030BF
:1005B600B3000030B2000030B9000030B80000309F
:1005C600B7000030B6000030BD000030BC0000307F
:1005D600BB000030BA000030D9000030D800FF3030
:1005E600D700FF30D6007B30DA002430DB00403005
:1005F600DC000A30E0000030E1000030DD00803031
:10060600DE003E30DF00A001A101A201A301D1302E
:100616002000A0000030A100933162238131200028
:100626002008FF3E2100A400FF302000213D2100CC
:10063600A50020004C08A600FF39031D0130A700C5
:1006460097310D278131200027082200B5002000B0
:1006560026082200B40020004D08A600FF39031D1D
:100666000130A70097310D2781312000270822008D
:10067600B300200026082200B20020004E08A60083
:10068600FF39031D0230A70097310D278131200065
:1006960027082100EE00200026082100ED0020009A
:1006A6005008A600FF39031D0230A70097310D2719
:1006B600813120002708F1002608F0004F08A60027
:1006C600FF39031D0230A70097310D278131200025
:1006D60027082100EC00200026082100EB0020005E
:1006E6005208A600FF39031D0230A70097310D27D7
:1006F6008131200027082300D5002000260823008A
:10070600D40020005108A600FF39031D0130A700C0
:1007160097310D278131200027082200B1002000E3
:1007260026082200B00021005A082000AE00210051
:100736005B082000AF0021005C082000B00021000B
:100746006E082000A90021006D082000A800923143
:100756007622813120002808B1002908B2002A0833
:10076600B30088314F20813120002E082100E2009D
:1007760020002F082100E300200030082100E400BB
:1007860061082000A900210060082000A80094311B
:100796000224813120002808AE002908AF002A086B
:1007A600B000210062082000B1002100630820008B
:1007B600B200210064082000B30088314F20813147
:1007C60020002E082100E20020002F082100E3006F
:1007D600200030082100E40000302000A8007A3014
:1007E600A9004430AA00210062082000AB002100C5
:1007F60063082000AC00210064082000AD008931A8
:10080600AB218131200028082100E20020002908C0
:100816002100E30020002A082100E40062082000ED
:10082600B100210063082000B20021006408200006
:10083600B30021005D082000AE0021005E08200004
:10084600AF0021005F082000B00088314F208131C1
:1008560020002E08BE002F08BF003008C0008731D8
:100866007927813120003E082100A60020003F089C
:100876002100A700890D893B8909A800A90026093E
:100886002000D300210027092000D400D30A031931
:10089600D40A2100560820005307A000210057085B
:1008A6002000543DA10092311E22813120002008F3
:1008B6002100B200200021082100B300890D893BE8
:1008C6008909B400B5005A082000AE0021005B0873
:1008D6002000AF0021005C082000B00021006C0859
:1008E6002000A90021006B082000A8009231762282
:1008F600813120002808B1002908B2002A08B30077
:1009060088314F20813120002E082100E50020008B
:100916002F082100E600200030082100E7006108CA
:100926002000A900210060082000A80094310224BC
:10093600813120002808AE002908AF002A08B0003F
:10094600210065082000B100210066082000B200E1
:10095600210067082000B30088314F208131200034
:100966002E082100E50020002F082100E6002000C7
:1009760030082100E70000302000A8007A30A900E6
:100986004430AA00210065082000AB00210066085B
:100996002000AC00210067082000AD008931AB21A2
:1009A6008131200028082100E500200029082100C7
:1009B600E60020002A082100E70065082000B100B3
:1009C600210066082000B200210067082000B3005D
:1009D60021005D082000AE0021005E082000AF0067
:1009E60021005F082000B00088314F2081312000AF
:1009F6002E08BE002F08BF003008C00087317927B7
:100A0600813120003E082100AA0020003F08210075
:100A1600AB00890D893B8909AC00AD002A0920008D
:100A2600D30021002B092000D400D30A0319D40ACD
:100A36002100560820005307A00021005708200077
:100A4600543DA10092311E22813120002008210050
:100A5600B600200021082100B700890D893B8909CD
:100A6600B800B9005A082000AE0021005B0820003B
:100A7600AF0021005C082000B0007108A9007008D2
:100A8600A80092317622813120002808B100290879
:100A9600B2002A08B30088314F20813120002E0889
:100AA6002100E80020002F082100E900200030087E
:100AB6002100EA0061082000A9002100600820004A
:100AC600A80094310224813120002808AE002908AC
:100AD600AF002A08B000210068082000B1002100FC
:100AE60069082000B20021006A082000B30088319E
:100AF6004F20813120002E082100E80020002F0819
:100B06002100E900200030082100EA000030200022
:100B1600A8007A30A9004430AA0021006808200005
:100B2600AB00210069082000AC0021006A08200003
:100B3600AD008931AB218131200028082100E80071
:100B4600200029082100E90020002A082100EA00E7
:100B560068082000B100210069082000B2002100C9
:100B66006A082000B30021005D082000AE002100C5
:100B76005E082000AF0021005F082000B000883129
:100B86004F20813120002E08BE002F08BF003008FC
:100B9600C00087317927813120003E082100AE0050
:100BA60020003F082100AF00890D893B8909B0006C
:100BB600B1002E092000D30021002F092000D40007
:100BC600D30A0319D40A2100560820005307A000AF
:100BD600210057082000543DA10092311E22813188
:100BE600200020082100BA00200021082100BB00B7
:100BF600890D893B8909BC00BD0038302000A8005A
:100C06009830A900210035082000AD0021003408E5
:100C16002000AC00210033082000AB002100320880
:100C26002000AA00D1308831F8208131D13020004F
:100C3600D3005308A0000230A1000030A200BF304C
:100C46009431A12481312100C101D3302000D30089
:100C56005308A0000230A1000030A200C230943137
:100C6600A12481312100C40130302000A0000030D1
:100C7600A1000530A2000030A300D1309231D42269
:100C8600813138302000A8009830A90021003908A9
:100C96002000AD00210038082000AC0021003708F4
:100CA6002000AB00210036082000AA00D130883190
:100CB600F8208131D1302000D3005308A000023043
:100CC600A1000030A200C5309431A1248131210059
:100CD600C701D3302000D3005308A0000230A10082
:100CE6000030A200C8309431A12481312100CA010C
:100CF60030302000A0000030A1000530A2000030F6
:100D0600A300D1309231D422813138302000A8009E
:100D16009830A90021003D082000AD0021003C08C4
:100D26002000AC0021003B082000AB0021003A085F
:100D36002000AA00D1308831F8208131D13020003E
:100D4600D3005308A0000230A1000030A200CB302F
:100D56009431A12481312100CD01D3302000D3006C
:100D66005308A0000230A1000030A200CE3094311A
:100D7600A12481312100D00130302000A0000030B4
:100D8600A1000530A2000030A300D1309231D42258
:100D960081316D2F2200CC01CD01CA01CB01C801E2
:100DA600C90120000F128F110F11080021006D0AD2
:100DB6006E04031DE12E20000F16062F21006D087C
:100DC6006E04031DE92E20000F12062F01302200AB
:100DD600CC000030CD00BF3097317E278131200016
:100DE60027082200C700200026082200C600C230BD
:100DF60097317E278131200027082200C500200078
:100E060026082200C40021006B0A6C04031D0E2F65
:100E160020008F15332F21006B086C04031D162F3D
:100E260020008F11332F01302200CA000030CB0082
:100E3600C53097317E278131200027082200C30064
:100E4600200026082200C200C83097317E27813153
:100E5600200027082200C100200026082200C0002A
:100E6600700A7104031D3A2F20000F150800700840
:100E76007104031D412F20000F11080001302200CC
:100E8600C8000030C900CB3097317E278131200061
:100E960027082200BF00200026082200BE00CE3010
:100EA60097317E27200027082200BD002000260853
:100EB6002200BC00080022003308003A0319642F00
:100EC600782F3208003A0319CD2E013A0319D92E8C
:100ED600782F080022003508003A0319732F782F5F
:100EE6003408093A03195E2F782F080020003E08BF
:100EF600C2003F08C3004008C4000310430D440D60
:100F0600C5004508CB004B08031D922F0030C100D9
:100F16000030C0000030BF000030BE0008003E08B0
:100F2600C2003F08C3004008C4001730C436C30CD3
:100F3600C20C890B992F4208C5004508C600BF1789
:100F4600FF30BE05FF30BF050030C0053E08C700B4
:100F56003F08C8004008C900CA018E30CB02CB1F2B
:100F6600D02F4B08803A8F3E0318C22F0030C100A5
:100F76000030C0000030BF000030BE000800013065
:100F8600CA36C90CC80CC70C890BC32F0130C20066
:100F96004208CB070319E92FC22F18304B02031C56
:100FA600E62F0030C1000030C0000030BF00003026
:100FB600BE0008000130C735C80DC90DCA0D890B22
:100FC600DE2F0130CB024B08031DDD2F4608031927
:100FD600F72FC709C809C909CA09C70A0319C80AE0
:100FE6000319C90A0319CA0A4A08C1004908C000F8
:0A0FF6004808BF004708BE000800CD
:101008002000B3003308031D0D285C08B000300829
:10101800B3003308031D1228003008002F08A80069
:101028002E08A700330895312F258831200027087E
:10103800B0003008B3073308860002308700010883
:10104800031D2928DC01003008002F08A8002E08FD
:10105800A70033089431FF24883120002708B00006
:101068002808B10033083007B2003208DC005C08F9
:10107800860002308700010803194C285C088600A6
:101088000230870081010130B0003008DC074D28AC
:10109800DC013308080020003108B4003208B5002C
:1010A8003308B6000310350D360DB7003708BC00FD
:1010B8003C08031D66280030AE000030AF00003049
:1010C800B00008002E08B4002F08B5003008B6009C
:1010D8000310350D360DB7003708BD003D08031D58
:1010E8007C280030AE000030AF000030B0000800AF
:1010F8000030B9000030BA000030BB0089303D072D
:10110800B4003408BC023108B4003208B500330812
:10111800B6001030B636B50CB40C890B8E283408DE
:10112800B7003708BD002E08B4002F08B5003008F6
:10113800B6001030B636B50CB40C890B9E283408AE
:10114800B7003708BD068030B4003408BD05B217B3
:10115800FF30B105FF30B2050030B305AF17FF30DF
:10116800AE05FF30AF050030B0051830B4003408C4
:10117800B8000130B935BA0DBB0D890BBE2830084F
:101188003302031DCD282F083202031DCD282E0857
:101198003102031CD6282E08B1022F08B23B3008B2
:1011A800B33B39140130B135B20DB30D890BD728D3
:1011B8000130B802031DBD283908A0003A08A10073
:1011C8003B08A2003C08B4003408A3003D08B50061
:1011D8003508A4009631A82620002008AE00210872
:1011E800AF002208B00008002000B8002A30AE0086
:1011F8002E08B4002908AF002808AE00A80A031971
:10120800A90A2E0884002F0885000008B0003008BD
:10121800B90039080319A6292530390603192029E8
:101228003908AE003808860087012E088100013091
:10123800AE002E08B807FE28B2012908AF0028081A
:10124800AE00A80A0319A90A2E0884002F088500F1
:101258000008B900003A0319A629583A0319382991
:10126800203A03193829FE28340886008701403FB0
:10127800B500413FB6000230AE002E08B407B901F0
:10128800B90A04303906031968293908AE00AF01D4
:10129800AE35AF0D00302E07840098302F3D850005
:1012A800003FB000013FB10031083602031D5E293E
:1012B80030083502031C68290130AE002E08B90732
:1012C80004303906031D49293908AE002E08B70035
:1012D800FF30AE002E08B707370A0319FE28370873
:1012E800AE00AF01AE35AF0D00302E078400983048
:1012F8002F3D8500003FA000013FA1003608A30054
:101308003508A200963129268831200020080F3997
:10131800B0003008B3003308083E84009830031842
:10132800013E85000008AE002E08B9003908AE005D
:101338003808860087012E0881000130AE002E088B
:10134800B8076C2938088600870181010800200049
:101358002808AE002908AF002A08B00003102F0D96
:10136800300DB1003108B2003208031DC229003027
:10137800A8000030A9000030AA0008002B08AE0021
:101388002C08AF002D08B00003102F0D300DB10050
:101398003108B7003708031DD8290030A8000030ED
:1013A800A9000030AA00080037087B3EAE002E08CE
:1013B800B2072808AE002908AF002A08B00010308C
:1013C800B036AF0CAE0C890BE4292E08B1003108F9
:1013D800B7002B08AE002C08AF002D08B000103065
:1013E800B036AF0CAE0C890BF4292E08B1003108C9
:1013F800B7068030AE002E08B705A917AC17FF3026
:10140800AB05FF30AC050030AD050030B30000304F
:10141800B4000030B5000730AE002E08B600281C16
:101428001B2A2B08B3072C08B43D2D08B53D013005
:10143800AA36A90CA80C890B1C2A0130AB35AC0DB7
:10144800AD0D890B222A0130B602031D132A09307B
:10145800AE002E08B600281C372A2B08B3072C0824
:10146800B43D2D08B53D0130AA36A90CA80C890B4E
:10147800382A0130B536B40CB30C890B3E2A01303A
:10148800B602031D2F2A3308A0003408A10035082E
:10149800A2003208AE002E08A3003708AF002F08BC
:1014A800A4009631A82620002008A8002108A90039
:1014B8002208AA0008002000B700BC01BD01C00135
:1014C800C101B501B601BE01BF01220067082000B5
:1014D800B900220066082000B80022006508200034
:1014E800BB00220064082000BA003708B3003308A4
:1014F800B8002D08B3003308B9003830A600003012
:10150800A70097310D278A3120002708BD0026083B
:10151800BC002E08D03EC000FF3003180030C100C8
:101528002F08B3003308BA003008B3003308BB00F3
:101538003A30A6000030A70097310D278A312000E5
:101548002708B6002608B5003108B3003C08C03E9D
:10155800860002308700330881003C08C03E8600C0
:10156800023087000108B3003C08B83E860001300D
:101578008700330881003D08B4003C08B300B33548
:10158800B40DB335B40D3308FC3EBE00FF30343D16
:10159800BF004730B3003E08A03E860003308700F6
:1015A800330881000130BE070030BF3D2E08B3006C
:1015B8003E08A03E860003308700330881000130D2
:1015C800BE070030BF3D3708B3003E08A03E860086
:1015D80003308700330881000130BE070030BF3D6B
:1015E8002D08B3003E08A03E86000330870033086C
:1015F8008100FD30BE07FF30BF3D31303206031D8C
:10160800472B3E08A03E933144238A31472B2000C4
:10161800400C031C1010031810140800400C031C85
:101628009010031890140800400C2500031C0D109E
:1016380003180D1408002000400C2500031C8D1110
:1016480003188D1508002000400C2500031C0D12FE
:1016580003180D1608002000400C2500031C0C136D
:1016680003180C1708002000400C2500031C8C12DE
:1016780003188C1608002000400C2500031C0C12CF
:1016880003180C16080020003D08003A03194D2BDA
:101698005A2B3C08FF3E031C080084000830040253
:1016A8000318080090310435103E820008002930E4
:1016B8002000D6009630D5007F30890B612BD50BE2
:1016C800612BD60B612B2200AE01AF01AC01AD013D
:1016D800AA01AB01A801A901A601A701A401A501BE
:1016E800A201A301A001A1012300D201D3019431D9
:1016F80076248B319331E1238B312200520353043A
:10170800031DA62DD201D301253024004E06031D4A
:10171800C92B25304F06031DC92B40305C06031D1D
:10172800C92B40305D06031DC92B92312D228B3108
:1017380095315F258B31230021082000D5005508FD
:10174800AD00230022082000D6005608AE00230072
:1017580023082000D7005708AF00230024082000E2
:10176800D8005808B000230025082000D9005908DF
:10177800B100230026082000DA005A08B20023002E
:1017880020088A315F228B31A62D523024004E0664
:10179800031D6A2D47304F06031D6A2D423050063F
:1017A800031D6A2D92312D228B314E302000D50039
:1017B8005508E6003B30AE009830AF006608883127
:1017C80004208B312000D5005508E5006508D500B8
:1017D8005508E4002200B601B70134302000A0000B
:1017E8009830A100640894314C248B3120002008E3
:1017F80021040319452D492D01302200B607003078
:10180800B73D3B302000AE009830AF000030883143
:1018180004208B312000D5005508E500322D250025
:10182800D401D501D401D5015508803A2000D5004E
:1018380080305502031D232C013025005402031863
:101848004B2C200065088600023087000108D5006F
:1018580025005408EA3E860001308700200055081C
:1018680081000130D5005508E50701302500D4076F
:101878000030D53D5508803A2000D500803055020B
:10188800031D492C013025005402031C252CEA3085
:101898002000D5005508E300452D20006508D50037
:1018A80055082200DF00452D2500D601D701D601B5
:1018B800D7015708803A2000D50080305502031D13
:1018C800682C0130250056020318902C200065086A
:1018D8008600023087000108D50025005608623EC0
:1018E8008600013087002000550881000130D500AE
:1018F8005508E50701302500D6070030D73D5708C1
:10190800803A2000D50080305502031D8E2C01300E
:1019180025005602031C6A2C62302000D5005508A9
:10192800E200452D20006508D5005508E100610852
:10193800A000FF39031D0230A100933162238B31CF
:10194800200021082300E500200020082300E400EF
:10195800452D20006508D5005508E0006008A00066
:10196800FF39031D0230A100933162238B3120001F
:1019780021082300E300200020082300E200452D71
:1019880020006508D5005508DF005F08A000FF3972
:10199800031D0230A100933162238B3120002108FE
:1019A8002300DF00200020082300DE00452D25004D
:1019B800D801D901D801D9015908803A2000D500A9
:1019C80080305502031DEB2C013025005802031806
:1019D800152D200065088600023087000108D50013
:1019E8002500580820005D07D600560886000130FB
:1019F8008700550881000130D5005508E5070130FA
:101A08002500D8070030D93D5908803A2000D50074
:101A180080305502031D132D013025005802031C88
:101A2800ED2C60302000D5005508DD00452D200044
:101A38006508D5005508DE005E08A000FF39031DC3
:101A48000230A100933162238B312000210823004A
:101A5800E100200020082300E000452D220037087F
:101A6800003A0319382D452D3608FF3E031C452D35
:101A78008400083004020318452D90310435003ED7
:101A8800820020006508031D002C6308D500550856
:101A9800CC006208D6005608CD006108D700570868
:101AA800CE006008D8005808CF005F08D900590850
:101AB800D0005D08DA005A08D1005E08DB005B0838
:101AC800D200640881317D218B31A62D2030200081
:101AD800A0009830A100933127238B3123009D1358
:101AE8001D122500D201D3015308803A2000D500E9
:101AF80080305502031D832D0F3025005202031834
:101B0800A32D23302000D50025005208A03E8600D2
:101B18000230870020005508810001302500D207D7
:101B28000030D33D5308803A2000D500803055025C
:101B3800031DA12D0F3025005202031C852D230003
:101B48001D169D1701302500DA000030DB0030300B
:101B580023003906031DD22D20000F1BD22D220091
:101B68002E082F04031DD22D25005A035B04031DE4
:101B7800CA2D31302000A0000030A1009531F62593
:101B88008B3192313E228B31200010142500DA016E
:101B9800DB0101302200AE000030AF0030302300FE
:101BA8003906031DF72D20000F1FF72D22002E03E5
:101BB8002F04031DF72D25005A035B04031DF12D87
:101BC80031302000A0000030A1009531C3258B31B1
:101BD80092313E228B31200010102500DA01DB0102
:101BE8002200AE01AF01303023003A06031D1E2E3D
:101BF80020008F1B1E2E22002C082D04031D1E2ED4
:101C080025005A035B04031D162E32302000A00065
:101C18000030A1009531F6258B3192313E228B316F
:101C2800200090142500DA01DB0101302200AC000D
:101C38000030AD00303023003A06031D432E20004B
:101C48008F1F432E22002C032D04031D432E250035
:101C58005A035B04031D3D2E32302000A0000030E3
:101C6800A1009531C3258B3192313E228B31200062
:101C780090102500DA01DB012200AC01AD01303003
:101C880023003B06031D692E20000D18692E220033
:101C98002A082B04031D692E25005A035B04031D23
:101CA800622E33302000A0000030A1009531F625C7
:101CB8008B3192313E228B3125000D14DA01DB0184
:101CC80001302200AA000030AB00303023003B0670
:101CD800031D8D2E20000D1C8D2E22002A032B049F
:101CE800031D8D2E25005A035B04031D882E3330F7
:101CF8002000A0000030A1009531C3258B3192311E
:101D08003E228B3125000D10DA01DB012200AA01E9
:101D1800AB01303023003C06031DB32E20008D1884
:101D2800B32E220028082904031DB32E25005A03C8
:101D38005B04031DAC2E34302000A0000030A1004D
:101D48009531F6258B3192313E228B3125008D1548
:101D5800DA01DB0101302200A8000030A900303090
:101D680023003C06031DD72E20008D1CD72E2200F1
:101D780028032904031DD72E25005A035B04031DDD
:101D8800D22E34302000A0000030A1009531C325A8
:101D98008B3192313E228B3125008D11DA01DB0126
:101DA8002200A801A901303023003D06031DFD2EA5
:101DB80020000D19FD2E220026082704031DFD2EE4
:101DC80025005A035B04031DF62E35302000A000C1
:101DD8000030A1009531F6258B3192313E228B31AE
:101DE80025000D16DA01DB0101302200A6000030C3
:101DF800A700303023003D06031D212F20000D1DB4
:101E0800212F220026032704031D212F25005A0312
:101E18005B04031D1C2F35302000A0000030A100FA
:101E28009531C3258B3192313E228B3125000D121D
:101E3800DA01DB012200A601A701303023003E06AB
:101E4800031D472F20008D19472F22002408250441
:101E5800031D472F25005A035B04031D402F36300E
:101E68002000A0000030A1009531F6258B31923179
:101E78003E228B3125000C17DA01DB0101302200EC
:101E8800A4000030A500303023003E06031D6B2F50
:101E980020008D1D6B2F220024032504031D6B2FAA
:101EA80025005A035B04031D662F36302000A0006E
:101EB8000030A1009531C3258B3192313E228B3100
:101EC80025000C13DA01DB012200A401A501303042
:101ED80023003F06031D912F20000D1A912F220089
:101EE80022082304031D912F25005A035B04031DB8
:101EF8008A2F37302000A0000030A1009531F62548
:101F08008B3192313E228B3125008C16DA01DB01B0
:101F180001302200A2000030A300303023003F0629
:101F2800031DB52F20000D1EB52F22002203230408
:101F3800031DB52F25005A035B04031DB02F37304E
:101F48002000A0000030A1009531C3258B319231CB
:101F58003E228B3125008C12DA01DB012200A2011E
:101F6800A301303023004006031DDB2F20008D1A0B
:101F7800DB2F220020082104031DDB2F25005A0334
:101F88005B04031DD42F38302000A0000030A100CE
:101F98009531F6258B3192313E228B3125000C1676
:101FA800DA01DB0101302200A0000030A10030304E
:101FB80023004006031D812B20008D1E812B22004B
:101FC80020032104031D812B25005A035B04031DF4
:101FD800FA2F38302000A0000030A1009531C32529
:101FE8008B3192313E228B3125000C12DA01DB0154
:101FF8002200A001A101812B8C31132C8C31512C92
:102008008C31582C8C31962C8C31AD2C8C31C42CC5
:102018008C31DB2C8D311B2D8B310B2B8B31122B03
:102028008B31182B8B311F2B8B31272B8B312F2B7F
:082038008B31372B8B313F2B5C
:10231A00640080010131890B8E290034FE0012000D
:10232A001E00FE0B9429003484302C009F009E016D
:10233A009D012000941321009417080084302C007A
:10234A00960095019401200014112100141508002B
:10235A0084302C009C0098019701200094112100E0
:10236A009415080084302C009C009B019A012000DF
:10237A001413210014170800083020009C009A0149
:10238A009110210091148B170B1708002000980157
:10239A009901970196011110210011148B170B173F
:1023AA0008000830280097009501200093102100AA
:1023BA0093148B170B170800083028009E009C0105
:1023CA0020009311210093158B170B170800233453
:1023DA000034233400343034303430343034303440
:1023EA003034303428009301940192019101200085
:1023FA001310210013148B170B17080028009A01D9
:10240A009B019901980120001311210013158B17C4
:10241A000B1708002000A100A0013A30210203187E
:10242A001C2A30302102031C1C2AA001A00A200CFD
:10243A0008002000A11F08002009A2002109A3000A
:10244A00A20A0319A30A2208A0002308A10008006F
:10245A0025008C1003302000A1000830A00077303E
:10246A00890B352AA00B352AA10B352A25008C1495
:10247A00080025000C1003302000A1000830A0003D
:10248A007730890B462AA00B462AA10B462A25003B
:10249A000C14080020001010901025000D108D114A
:1024AA000D120C138C120C120C148C140C15200027
:1024BA000F128F110F11080028008D0129008D01BC
:1024CA0028008C01230090012400900123008F0131
:1024DA0024008F0123008D0124008D0123008C012B
:1024EA00080020002808A0002908A100A2018E30B7
:1024FA00AB002B08A300A4019631A82620002008CF
:10250A00A8002108A9002208AA00080021009112A7
:10251A0011120A3023009F0090309D0024309E0043
:10252A00A0309B0001309C008B170B1721009116DD
:10253A0023009E169D170800F801F9010430780659
:10254A0079040319080023009E1CA82A760884002F
:10255A007708850000089A000130F6070030F73D39
:10256A000130F8070030F93DA32A20002008840032
:10257A002108850000082206031908002108A50081
:10258A002008A400A00A0319A10A24088400250827
:10259A0085001200031DBA2AA001A101080020002B
:1025AA00A6002608A4002408A5000130A2020030D3
:1025BA00A33B220A0319230A031908002008A400CE
:1025CA00250886008701240881000130A400240818
:1025DA00A507DA2A2000A401A501201CF82A22084E
:1025EA00A4072308A53D0130A235A30D890BF92ABA
:1025FA000130A136A00C890BFE2A20082104031DF4
:10260A00F22A2508A1002408A00008002000A20040
:10261A002208A1002108A3002308860002308700AF
:10262A0020088400023085000008C03F8908031989
:10263A0008000130A1002108A3070130A1002108E8
:10264A00A007112B2000A201A301043022062304B3
:10265A000319080023009E1C2F2B20002008840049
:10266A0021088500000823009A0001302000A007F5
:10267A000030A13D0130A2070030A33D2A2B2000E3
:10268A00A300A101A20104302106220403190800B3
:10269A0023009E1C4D2B2000230886000330870050
:1026AA00010823009A0001302000A0002008A30797
:1026BA000130A1070030A23D482B20002108A500C7
:1026CA002008A400240886002508870001080319A9
:1026DA00732B0130A4070030A53D672B2009A20007
:1026EA002109A300A20A0319A30A24082207A000A9
:1026FA002508233DA10008002000A300A101A20192
:10270A002308860002308700010803190800230005
:10271A009E1C8C2B200023088600023087000108AB
:10272A0023009A0001302000A0002008A3070130EE
:10273A00A1070030A23D852B233400340034003435
:10274A0000340034003400340034003400340034DF
:10275A0000340034003400340034003400340034CF
:10276A0000340034003400340034003400340034BF
:10277A00003400340034003423340034003400348C
:10278A00003400340034003400340034003400349F
:10279A00003400340034003400340034003400348F
:1027AA00003400340034003400340034003400347F
:1027BA00003400340034003492318B229331913149
:1027CA00CB2193319131C12193319131F721933149
:1027DA009131D62193319231032293319131E12102
:1027EA0093319131B72193319131AD2193319131A7
:1027FA00A32193319131992108002000AD01A91F2D
:10280A000D2CA809A909A80A0319A90AAD01AD0A3C
:10281A002808A0002908A100A2018E30AB002B08CD
:10282A00A3002D08AC002C08A4009631A82620008D
:10283A002008A8002108A9002208AA0008002000F0
:10284A00A4002408A2002208A3002308860002305C
:10285A008700010803193E2C0130A2002208A307B1
:10286A002A2C0130A2002208A3070130A007003059
:10287A00A13D230886000230870020088400210831
:10288A0085000008C03F890803190800362C20007B
:10289A00A400572C0130A2002208A4070130A00787
:1028AA000030A13D240886000230870020088400F9
:1028BA00210885000008FF3A013E0107A20022080C
:1028CA00A3002308031D702C240886000230870009
:1028DA000108031D4F2C2308A000A101A01BA1037E
:1028EA00080092314F2294319231612294312100B1
:1028FA000F178F170D148D140D158D150D168D16B6
:10290A008F161010901026000D108D110D120C1339
:10291A008C120C1221009015901610161015260014
:10292A000C108C100C1121000F128F110F110E13A5
:10293A008E1792314F2208002000A5002508A30017
:10294A002308A400210822040319C52C0130A1027E
:10295A000030A23B240886008701A40A20088400CC
:10296A008501A00A0008C03F89080319C52CA72CB5
:10297A0024088600870181010130A3002308A407E7
:10298A000130A1020030A23B210A031DBD2C220AFC
:10299A0003190800BD2C23340034003400340034F9
:1029AA00003400340034003400340034003400347D
:1029BA00003400340034003400340034003400346D
:1029CA00003400340034303400340034003400342D
:1029DA00003400340034003400340034003400344D
:1029EA0000340034003400340034233423342334D4
:1029FA00233400342000AD00AB01AC010C2D0130B2
:102A0A00A9002908AD070130AB070030AC3D2D08FD
:102A1A00860002308700010803192A2D2808A10020
:102A2A002708A0002D088600023087000108A900A7
:102A3A00AA012908A2002A08A3009231BA229431D5
:102A4A002000200821040319042D2C08A8002B08B3
:102A5A00A70008002000AD00AB01AC013C2D0130FD
:102A6A00A9002908AD070130AB070030AC3D2D089D
:102A7A00860002308700010803195A2D2808A10090
:102A8A002708A0002D088600023087000108A90047
:102A9A00AA012908A2002A08A3009231BA22953174
:102AAA00200020082104031D342D2C08A8002B081F
:102ABA00A700080002302000A1000030A200023066
:102ACA00A1000030A2002208803AA0008030200233
:102ADA00031D712D09302102031808002000210866
:102AEA004E3E8600023087000108A0002108FE3E03
:102AFA00A03E860001308700200881002330A00014
:102B0A0021084E3E860002308700200881000130ED
:102B1A00A1070030A23D682D23340034003400346C
:102B2A0000340034003400340034003400340034FB
:102B3A0000340034003400340034003400340034EB
:102B4A0000340034003400340034003400340034DB
:102B5A00003400340034003430340034003400349B
:102B6A0000340034003400340034003400340034BB
:102B7A00003400340034003400340034523023006E
:102B8A009A0006302000A2003030890BCA2DA20B11
:102B9A00CA2D0000303023009A0006302000A2001F
:102BAA003030890BD62DA20BD62D000030302300F1
:102BBA009A0006302000A2003030890BE22DA20BC9
:102BCA00E22D000020002008303E23009A00063043
:102BDA002000A2003030890BF02DA20BF02D00004E
:102BEA000800523023009A0006302000A20030303C
:102BFA00890BFD2DA20BFD2D0000313023009A0018
:102C0A0006302000A2003030890B092EA20B092EB3
:102C1A000000303023009A0006302000A200303035
:102C2A00890B152EA20B152E000020002008303E1D
:102C3A0023009A0006302000A2003030890B232E90
:102C4A00A20B232E000008002000A601A7012008DD
:102C5A0021040319592EA501A50AA11B3E2E0130F4
:102C6A00A035A10D890B352E0130A4002408A50733
:102C7A00322E0130A635A70D890B3F2E21082302DB
:102C8A00031D492E20082202031C502E2008A202EE
:102C9A002108A33B26140130A136A00C890B512E22
:102CAA000130A502031D3E2E2708A1002608A00018
:102CBA000800233400340034003400340034003473
:102CCA00003400340034003400340034003400345A
:102CDA00003400340034003400340034003400344A
:102CEA00003400340034003400340034003400343A
:102CFA00003400340034003400340034003400342A
:102D0A000034003400340034003400340034003419
:102D1A000034003400340034003400340034003409
:102D2A0000340034003400340034003400340034F9
:102D3A0000340034003400340034003400340034E9
:102D4A00003400340034200023080319B12E22086D
:102D5A0021042004031DC22E0030A0000030A1006F
:102D6A000030A20008000130A5002508A3070130A1
:102D7A00A236A10CA00C890BBD2EFE302205031928
:102D8A00DB2EB82E0130A5002508A3070130A007C5
:102D9A00003003180130A107003003180130A207E0
:102DAA000130A236A10CA00C890BD62EFF302205C9
:102DBA000319E82EC72E0130A3020130A035A10D58
:102DCA00A20D890BE32EA11BEE2E0230230203185B
:102DDA00E02E2318F62EFF30A0057F30A105FF3024
:102DEA00A2050310A30C2308A500A601A701103011
:102DFA00A535A60DA70D890BFD2E2508A0042608CA
:102E0A00A1042708A204240803190800A21708002D
:102E1A002000260886002708870020300106031DA7
:102E2A001C2F01302000A6070030A73D0D2F2608D1
:102E3A00860027088700093001060319162FAB01FF
:102E4A00AC01AA0126088600270887002D30010652
:102E5A00031D342F0130A8002808AA073C2F260892
:102E6A008600270887002B300106031D402F0130FA
:102E7A00A6070030A73D2608860027088700010814
:102E8A0092310F229731031C692F20002C08A100D0
:102E9A002B08A0000A30A2000030A3009231EF22D2
:102EAA009731200026088600270887000108200796
:102EBA00A80021080318210AA9002808D03EAB005F
:102ECA00FF30293DAC003C2F20002A080319792F36
:102EDA002B09A8002C09A900A80A0319A90A28087D
:102EEA00A6002908A70008002C08A7002B08A6009E
:102EFA0008002000B2003208A0000030A10093317F
:102F0A006223973120002108AB002008AA00013073
:102F1A00AE000030AF00AC01AD012A08FF3EB000A0
:102F2A00FF302B3DB100B11BFB2F30083207A80040
:102F3A0028088600870130300102031CB72F3008A9
:102F4A003207A8002808860087013A3001020318D0
:102F5A00B72F30083207A800280886008701010821
:102F6A00D03ED32F30083207A800280886008701F0
:102F7A0041300102031CF52F30083207A800280847
:102F8A0086008701473001020318F52F30083207FF
:102F9A00A8002808860087010108C93EA000FF3062
:102FAA0003180030A1002F08A3002E08A2009231B6
:102FBA00EF22973120002008AC072108AD3D2F08E9
:102FCA00A9002E08A800A80EA90EF030A905280805
:102FDA000F39A904F030A8052808AE002908AF0067
:102FEA00FF30B007FF30B13DB11F9A2F2D08A7005F
:102FFA002C08A600080001340034103400340034D0
:10300A00013400341034303431343234333434340B
:10301A00353436343734383439344134423443342D
:10302A00443445344634003441344334543441340E
:10303A0043344B340034453452344C345334003422
:10304A00453452344F3456340034453452345234B1
:10305A00583400343134303430347C34003452340F
:10306A004734423400342534583400342E34003482
:020000040001F9
:04000E00A2C9FFDDA7
:00000001FF
