:040000008031EF2834
:1000060030347E14803120007F08FB00911E5B286F
:1000160023009D1C17281D121D165B30F600983014
:10002600F70092315C22803123001908FA00720829
:10003600A03E8600023087007A0881007208A03E42
:100046008600023087000108FA0072084E3E8600DC
:10005600023087007A08810072084E3E8600023020
:1000660087007C300106031D422801302200D200A1
:100076000030D300F201F301200091125B285230C8
:1000860024004E06031D4F284E0803194F28013041
:10009600F2070030F33D5B2823001D121D16F20106
:1000A600F3016030F6009830F70092315C2280311F
:1000B6002100911C64282000911C642891100F12C5
:1000C6001C112100111C70282000111C7028111011
:1000D6000F169F309B001C1518102100931C7A28C0
:1000E6002000931C7A2893108F11280017112100E5
:1000F600131C87282000131C872813108F159F3088
:1001060028009600171513102100931D9128200032
:10011600931D912893110F1128001E112100131D04
:100126009E282000131D9E2813110F159F302800AE
:100136009D001E151A102000941D1419A428141FC2
:10014600EA28141B141FBA28141322004C034D046A
:10015600031DBA2846082000970022004408200004
:10016600960018140F1621001114200011102000FB
:100176009419941DD228941122004A034B04031D9E
:10018600D228420828009200220040082800910048
:10019600131420008F1521001314200013102000C3
:1001A6001419141DEA281411220048034904031DDA
:1001B600EA283E082800990022003C0828009800FA
:1001C6001A1420000F1521001315200013117B08A7
:1001D6002000FF007E1009008031F12880310320C5
:1001E6008031E700F5308400873085006430860072
:1001F600013087000B3091316721803185308400D2
:1002060094308500A0308600013087002F30913170
:100216006721803198308400933085004E30860007
:1002260002308700203091316721803146308400CA
:1002360095308500A030860002308700323091313B
:100246006721803178308400933085002030860025
:1002560003308700203091316721803113308400CC
:1002660096308500A0308600033087004A309131F1
:1002760067218031F001F101F201F301F401F5018A
:100286005C308400003085000B3091316121803173
:100296002100EB01EC01ED01EE01EF0120308400BD
:1002A600013085004430913161218031CF308400A6
:1002B600013085001E30913161218031203084006B
:1002C600023085002E30913161217E1020008B3165
:1002D600122B2100BE0020004C08A600FF39031D8A
:1002E6000130A70097310D27813120002708220011
:1002F600B700200026082200B60020004D08A60000
:10030600FF39031D0130A70097310D2781312000E9
:1003160027082200B500200026082200B40020008D
:100326004E08A600FF39031D0230A70097310D279E
:100336008131200027082100EE0020002608210038
:10034600ED0020005008A600FF39031D0230A7006B
:1003560097310D27813120002708F1002608F0008B
:100366004F08A600FF39031D0230A70097310D275D
:100376008131200027082100EC00200026082100FA
:10038600EB0020005208A600FF39031D0230A7002B
:1003960097310D278131200027082300D300200044
:1003A60026082300D20020005108A600FF39031DAD
:1003B6000130A70097310D27813120002708220040
:1003C600B300200026082200B2003208303E20008A
:1003D600D3005308E70022003408303E2000D30043
:1003E60053082200E80021003E082000D3005308ED
:1003F600A00020309231C62281316C302000A0004E
:100406009830A10020309331DA23813120004C0846
:10041600A000FF39031D0130A10020309331DA23FB
:1004260081316C302000A0009830A100203093313B
:10043600DA2381314F302000A0009830A10020300F
:100446009331DA2381316C302000A0009830A1006E
:1004560020309331DA23813120004D08A000FF3986
:10046600031D0130A10020309331DA2381316C3035
:100476002000A0009830A10020309331DA2381318A
:1004860020004E08A000FF39031D0230A1002030D5
:100496009331DA2381316C302000A0009830A1001E
:1004A60020309331DA23813120004F08A000FF3934
:1004B600031D0230A10020309331DA2381316C30E4
:1004C6002000A0009830A10020309331DA2381313A
:1004D60020005008A000FF39031D0230A100203083
:1004E6009331DA2381316C302000A0009830A100CE
:1004F60020309331DA23813120005108A000FF39E2
:10050600031D0130A10020309331DA2381316C3094
:100516002000A0009830A10020309331DA238131E9
:1005260020005208A000FF39031D0230A100203030
:100536009331DA23813120302000A0000230A1005F
:1005460093315923813120006708D30022003608F1
:10055600C03E86000230870020005308810000302C
:100566002100A9000030A8000030A7000030A60036
:100576000030AD000030AC000030AB000030AA0007
:100586000030B1000030B0000030AF000030AE00E7
:100596000030B5000030B4000030B3000030B200C7
:1005A6000030B9000030B8000030B7000030B600A7
:1005B6000030BD000030BC000030BB000030BA0087
:1005C6000030D9000030D800FF30D700FF30D60009
:1005D6007B30DA002430DB004030DC000A30E000FB
:1005E6000030E1000030DD008030DE003E30DF000C
:1005F600A001A101A201A301D1302000A00000307A
:10060600A10093313A23813120002008FF3E2100CA
:10061600A400FF302000213D2100A50020004C0849
:10062600A600FF39031D0130A70097310D27813140
:10063600200027082200B700200026082200B60066
:1006460020004D08A600FF39031D0130A700973191
:100656000D278131200027082200B500200026083A
:100666002200B40020004E08A600FF39031D023008
:10067600A70097310D278131200027082100EE00C1
:10068600200026082100ED0020005008A600FF39B2
:10069600031D0230A70097310D278131200027085E
:1006A600F1002608F0004F08A600FF39031D0230AE
:1006B600A70097310D278131200027082100EC0083
:1006C600200026082100EB0020005208A600FF3972
:1006D600031D0230A70097310D278131200027081E
:1006E6002300D300200026082300D2002000510852
:1006F600A600FF39031D0130A70097310D27813170
:10070600200027082200B300200026082200B2009D
:1007160021005A082000AE0021005B082000AF002F
:1007260021005C082000B00021006E082000A9000E
:1007360021006D082000A80092313122813120006D
:100746002808B1002908B2002A08B300883103201E
:10075600813120002E082100E20020002F08210010
:10076600E300200030082100E40061082000A90011
:10077600210060082000A8009331B82381312000B1
:100786002808AE002908AF002A08B0002100620838
:100796002000B100210063082000B2002100640897
:1007A6002000B30088310320813120002E0821006B
:1007B600E20020002F082100E3002000300821007D
:1007C600E40000302000A8007A30A9004430AA00D6
:1007D600210062082000AB00210063082000AC0065
:1007E600210064082000AD0089315F21813120009D
:1007F60028082100E200200029082100E30020004B
:100806002A082100E40062082000B10021006308E4
:100816002000B200210064082000B30021005D081A
:100826002000AE0021005E082000AF0021005F0816
:100836002000B00088310320813120002E08BE0040
:100846002F08BF003008C00087316E278131200095
:100856003E082100A60020003F082100A700890DC0
:10086600893B8909A800A90026092000D300210098
:1008760027092000D400D30A0319D40A21005608F8
:1008860020005307A000210057082000543DA10076
:100896009131D9218131200020082100B2002000A9
:1008A60021082100B300890D893B8909B400B500F0
:1008B6005A082000AE0021005B082000AF0021008E
:1008C6005C082000B00021006C082000A90021006F
:1008D6006B082000A80092313122813120002808BF
:1008E600B1002908B2002A08B300883103208131FB
:1008F60020002E082100E50020002F082100E60038
:10090600200030082100E70061082000A90021002E
:1009160060082000A8009331B82381312000280800
:10092600AE002908AF002A08B000210065082000A3
:10093600B100210066082000B200210067082000EF
:10094600B30088310320813120002E082100E50004
:1009560020002F082100E600200030082100E700D3
:1009660000302000A8007A30A9004430AA002100F7
:1009760065082000AB00210066082000AC002100BD
:1009860067082000AD0089315F21813120002808E9
:100996002100E500200029082100E60020002A08A1
:1009A6002100E70065082000B1002100660820004C
:1009B600B200210067082000B30021005D08200076
:1009C600AE0021005E082000AF0021005F08200075
:1009D600B00088310320813120002E08BE002F0888
:1009E600BF003008C00087316E27813120003E08E5
:1009F6002100AA0020003F082100AB00890D893B99
:100A06008909AC00AD002A092000D30021002B097A
:100A16002000D400D30A0319D40A21005608200066
:100A26005307A000210057082000543DA100913132
:100A3600D9218131200020082100B600200021089C
:100A46002100B700890D893B8909B800B9005A0809
:100A56002000AE0021005B082000AF0021005C08EA
:100A66002000B0007108A9007008A8009231312258
:100A7600813120002808B1002908B2002A08B300F5
:100A860088310320813120002E082100E800200053
:100A96002F082100E900200030082100EA00610843
:100AA6002000A900210060082000A8009331B82387
:100AB600813120002808AE002908AF002A08B000BE
:100AC600210068082000B100210069082000B2005A
:100AD60021006A082000B3008831032081312000FC
:100AE6002E082100E80020002F082100E900200040
:100AF60030082100EA0000302000A8007A30A90062
:100B06004430AA00210068082000AB0021006908D3
:100B16002000AC0021006A082000AD0089315F2169
:100B26008131200028082100E80020002908210042
:100B3600E90020002A082100EA0068082000B10028
:100B4600210069082000B20021006A082000B300D5
:100B560021005D082000AE0021005E082000AF00E5
:100B660021005F082000B000883103208131200079
:100B76002E08BE002F08BF003008C00087316E2740
:100B8600813120003E082100AE0020003F082100F0
:100B9600AF00890D893B8909B000B1002E092000FC
:100BA600D30021002F092000D400D30A0319D40A48
:100BB6002100560820005307A000210057082000F6
:100BC600543DA1009131D921813120002008210016
:100BD600BA00200021082100BB00890D893B890944
:100BE600BC00BD0069302000A8009830A900210093
:100BF60035082000AD00210034082000AC0021009B
:100C060033082000AB00210032082000AA00D130B2
:100C16008831AC208131D1302000D3005308A000A8
:100C26000230A1000030A200BF3094315624813139
:100C36002100C101D3302000D3005308A0000230A8
:100C4600A1000030A200C230943156248131210027
:100C5600C40130302000A0000030A1000530A20001
:100C66000030A300D13092318F22813169302000CB
:100C7600A8009830A900210039082000AD00210005
:100C860038082000AC00210037082000AB00210006
:100C960036082000AA00D1308831AC208131D1300D
:100CA6002000D3005308A0000230A1000030A200AB
:100CB600C5309431562481312100C701D33020003C
:100CC600D3005308A0000230A1000030A200C830B3
:100CD6009431562481312100CA0130302000A00011
:100CE6000030A1000530A2000030A300D1309231BF
:100CF6008F22813169302000A8009830A900210098
:100D06003D082000AD0021003C082000AC00210079
:100D16003B082000AB0021003A082000AA00D13091
:100D26008831AC208131D1302000D3005308A00097
:100D36000230A1000030A200CB309431562481311C
:100D46002100CD01D3302000D3005308A00002308B
:100D5600A1000030A200CE3094315624813121000A
:100D6600D00130302000A0000030A1000530A200E4
:100D76000030A300D13092318F228131622F2200C0
:100D8600CC01CD01CA01CB01C801C90120000F1257
:100D96008F110F11080021006D0A6E04031DD62E57
:100DA60020000F16FB2E21006D086E04031DDE2E9B
:100DB60020000F12FB2E01302200CC000030CD00A7
:100DC600BF3097317E278131200027082200C700D7
:100DD600200026082200C600C23097317E278131C6
:100DE600200027082200C500200026082200C40093
:100DF60021006B0A6C04031D032F20008F15282F7A
:100E060021006B086C04031D0B2F20008F11282F67
:100E160001302200CA000030CB00C53097317E2752
:100E26008131200027082200C30020002608220066
:100E3600C200C83097317E27813120002708220062
:100E4600C100200026082200C000700A7104031D9C
:100E56002F2F20000F15080070087104031D362F70
:100E660020000F11080001302200C8000030C90020
:100E7600CB3097317E278131200027082200BF0022
:100E8600200026082200BE00CE3097317E272000A3
:100E960027082200BD00200026082200BC0008000A
:100EA60022003508003A0319592F6D2F3408003AED
:100EB6000319C22E013A0319CE2E6D2F0800220007
:100EC6003708003A0319682F6D2F3608093A0319B7
:100ED600532F6D2F080020003E08C2003F08C300B4
:100EE6004008C4000310430D440DC5004508CB005F
:100EF6004B08031D872F0030C1000030C0000030B2
:100F0600BF000030BE0008003E08C2003F08C30014
:100F16004008C4001730C436C30CC20C890B8E2F90
:100F26004208C5004508C600BF17FF30BE05FF30A2
:100F3600BF050030C0053E08C7003F08C80040088E
:100F4600C900CA018E30CB02CB1FC52F4B08803A91
:100F56008F3E0318B72F0030C1000030C0000030AC
:100F6600BF000030BE0008000130CA36C90CC80CEC
:100F7600C70C890BB82F0130C2004208CB070319F2
:100F8600DE2FB72F18304B02031CDB2F0030C100B9
:100F96000030C0000030BF000030BE000800013045
:100FA600C735C80DC90DCA0D890BD32F0130CB0229
:100FB6004B08031DD22F46080319EC2FC709C80991
:100FC600C909CA09C70A0319C80A0319C90A0319AC
:100FD600CA0A4A08C1004908C0004808BF004708B5
:100FE600BE00080023340034233400343034303457
:0A0FF60030343034303430343034FD
:1010060020003108B4003208B5003308B6000310DA
:10101600350D360DB7003708BC003C08031D1A28ED
:101026000030AE000030AF000030B00008002E08DF
:10103600B4002F08B5003008B6000310350D360D84
:10104600B7003708BD003D08031D30280030AE004C
:101056000030AF000030B00008000030B9000030AA
:10106600BA000030BB0089303D07B4003408BC022A
:101076003108B4003208B5003308B6001030B63671
:10108600B50CB40C890B42283408B7003708BD00EC
:101096002E08B4002F08B5003008B6001030B6365A
:1010A600B50CB40C890B52283408B7003708BD06B6
:1010B6008030B4003408BD05B217FF30B105FF30EB
:1010C600B2050030B305AF17FF30AE05FF30AF05F0
:1010D6000030B0051830B4003408B8000130B93516
:1010E600BA0DBB0D890B722830083302031D812807
:1010F6002F083202031D81282E083102031C8A287C
:101106002E08B1022F08B23B3008B33B3914013028
:10111600B135B20DB30D890B8B280130B802031D12
:1011260071283908A0003A08A1003B08A2003C0833
:10113600B4003408A3003D08B5003508A400963174
:10114600A82620002008AE002108AF002208B00023
:1011560008002000B8002A30AE002E08B400290886
:10116600AF002808AE00A80A0319A90A2E088400B1
:101176002F0885000008B0003008B90039080319A7
:101186005A29253039060319D4283908AE003808FB
:10119600860087012E0881000130AE002E08B807B0
:1011A600B228B2012908AF002808AE00A80A031920
:1011B600A90A2E0884002F0885000008B900003A05
:1011C60003195A29583A0319EC28203A0319EC282E
:1011D600B228340886008701403FB500413FB6007B
:1011E6000230AE002E08B407B901B90A0430390638
:1011F60003191C293908AE00AF01AE35AF0D00301A
:101206002E07840098302F3D8500003FB000013F37
:10121600B10031083602031D122930083502031CBD
:101226001C290130AE002E08B90704303906031D0B
:10123600FD283908AE002E08B700FF30AE002E0894
:10124600B707370A0319B2283708AE00AF01AE3523
:10125600AF0D00302E07840098302F3D8500003FEB
:10126600A000013FA1003608A3003508A200953171
:10127600DE258831200020080F39B0003008B30081
:1012860033083E3E840098300318013E850000086E
:10129600AE002E08B9003908AE003808860087016E
:1012A6002E0881000130AE002E08B8072029380824
:1012B600860087018101080020002808AE00290861
:1012C600AF002A08B00003102F0D300DB100310811
:1012D600B2003208031D76290030A8000030A900AC
:1012E6000030AA0008002B08AE002C08AF002D081D
:1012F600B00003102F0D300DB1003108B7003708CC
:10130600031D8C290030A8000030A9000030AA0077
:10131600080037087B3EAE002E08B2072808AE004C
:101326002908AF002A08B0001030B036AF0CAE0C5A
:10133600890B98292E08B1003108B7002B08AE009A
:101346002C08AF002D08B0001030B036AF0CAE0C34
:10135600890BA8292E08B1003108B7068030AE00E7
:101366002E08B705A917AC17FF30AB05FF30AC0543
:101376000030AD050030B3000030B4000030B500D9
:101386000730AE002E08B600281CCF292B08B3075D
:101396002C08B43D2D08B53D0130AA36A90CA80C81
:1013A600890BD0290130AB35AC0DAD0D890BD62993
:1013B6000130B602031DC7290930AE002E08B6005B
:1013C600281CEB292B08B3072C08B43D2D08B53D86
:1013D6000130AA36A90CA80C890BEC290130B536C8
:1013E600B40CB30C890BF2290130B602031DE329B4
:1013F6003308A0003408A1003508A2003208AE0068
:101406002E08A3003708AF002F08A4009631A8269F
:1014160020002008A8002108A9002208AA00080028
:101426002000B700BC01BD01C001C101B501B60174
:10143600BE01BF01220067082000B900220066082D
:101446002000B800220065082000BB0022006408C6
:101456002000BA003708B3003308B8002D08B300DF
:101466003308B9003830A6000030A70097310D27A1
:101476008A3120002708BD002608BC002E08D03E71
:10148600C000FF3003180030C1002F08B300330836
:10149600BA003008B3003308BB003A30A60000306B
:1014A600A70097310D278A3120002708B6002608A5
:1014B600B5003108B3003C08C03E86000230870004
:1014C600330881003C08C03E8600023087000108D0
:1014D600B3003C08B83E860001308700330881001F
:1014E6003D08B4003C08B300B335B40DB335B40DB4
:1014F6003308FC3EBE00FF30343DBF004730B3002A
:101506003E08A03E86000330870033088100013084
:10151600BE070030BF3D2E08B3003E08A03E860041
:1015260003308700330881000130BE070030BF3D1D
:101536003708B3003E08A03E860003308700330814
:1015460081000130BE070030BF3D2D08B3003E08C4
:10155600A03E86000330870033088100FD30BE07B9
:10156600FF30BF3D31303206031DFE2A3E08A03E45
:10157600A0000330A1009231E2228A31FE2A200027
:10158600400C031C1010031810140800400C031C18
:101596009010031890140800400C2500031C0D1031
:1015A60003180D1408002000400C2500031C8D11A3
:1015B60003188D1508002000400C2500031C0D1291
:1015C60003180D1608002000400C2500031C0C1300
:1015D60003180C1708002000400C2500031C8C1271
:1015E60003188C1608002000400C2500031C0C1262
:1015F60003180C16080020003D08003A0319042BB6
:10160600112B3C08FF3E031C08008400083004022E
:101616000318080090310435103E82000800293076
:101626002000D6009630D5007F30890B182BD50BBD
:10163600182BD60B182B2200B001B101AE01AF0159
:10164600AC01AD01AA01AB01A801A901A601A70140
:10165600A401A501A201A301A001A10194310224C4
:101666008B3193311C238B31220052035304031D0B
:101676005C2DD201D301253024004E06031D7F2B9D
:1016860025304F06031D7F2B40305C06031D7F2B44
:1016960040305D06031D7F2B9131E8218B3195315A
:1016A60014258B31230021082000D5005508AD00F4
:1016B600230022082000D6005608AE002300230887
:1016C6002000D7005708AF00230024082000D800C8
:1016D6005808B000230025082000D9005908B10099
:1016E600230026082000DA005A08B200230020084A
:1016F6008A3113228B315C2D523024004E06031D95
:10170600202D47304F06031D202D42305006031D65
:10171600202D9131E8218B314E302000D50055081F
:10172600E6006C30AE009830AF00660896315D2654
:101736008B312000D5005508E5006508D500550811
:10174600E4002200B801B90165302000A0009830FD
:10175600A100640894312C248B3120002008210438
:101766000319FB2CFF2C01302200B8070030B93DCD
:101776006C302000AE009830AF00003096315D2608
:101786008B312000D5005508E500E82C2500D40152
:10179600D501D401D5015508803A2000D500803006
:1017A6005502031DD92B0130250054020318012CC4
:1017B600200065088600023087000108D500250054
:1017C6005408EA3E86000130870020005508810053
:1017D6000130D5005508E50701302500D407003053
:1017E600D53D5508803A2000D50080305502031DAE
:1017F600FF2B013025005402031CDB2BEA302000AE
:10180600D5005508E300FB2C20006508D5005508D7
:101816002200DF00FB2C2500D601D701D601D70117
:101826005708803A2000D50080305502031D1E2C33
:101836000130250056020318462C20006508860054
:10184600023087000108D50025005608623E860052
:10185600013087002000550881000130D500550869
:10186600E50701302500D6070030D73D5708803AF6
:101876002000D50080305502031D442C0130250080
:101886005602031C202C62302000D5005508E200C9
:10189600FB2C20006508D5005508E1006108A00072
:1018A600FF39031D0230A10093313A238B3120000A
:1018B60021082300E300200020082300E200FB2C7F
:1018C60020006508D5005508E0006008A000FF3933
:1018D600031D0230A10093313A238B3120002108E9
:1018E6002300E100200020082300E000FB2C20005C
:1018F6006508D5005508DF005F08A000FF39031D05
:101906000230A10093313A238B31200021082300B5
:10191600DD00200020082300DC00FB2C2500D80178
:10192600D901D801D9015908803A2000D500803064
:101936005502031DA12C0130250058020318CB2C9B
:10194600200065088600023087000108D5002500C2
:10195600580820005D07D60056088600013087002B
:10196600550881000130D5005508E50701302500EE
:10197600D8070030D93D5908803A2000D50080307C
:101986005502031DC92C013025005802031CA32C47
:1019960060302000D5005508DD00FB2C20006508CE
:1019A600D5005508DE005E08A000FF39031D023091
:1019B600A10093313A238B31200021082300DF0058
:1019C600200020082300DE00FB2C22003908003A04
:1019D6000319EE2CFB2C3808FF3E031CFB2C84005D
:1019E600083004020318FB2C90310435003E8200B7
:1019F60020006508031DB62B6308D5005508CC00EA
:101A06006208D6005608CD006108D7005708CE00F8
:101A16006008D8005808CF005F08D9005908D000E0
:101A26005D08DA005A08D1005E08DB005B08D200C8
:101A3600640881316C218B315C2D56302000A0006A
:101A46009830A1009231FF228B3123009D131D1285
:101A56002500D201D3015308803A2000D5008030FA
:101A66005502031D392D0F30250052020318592D3A
:101A760023302000D50025005208A03E8600023003
:101A8600870020005508810001302500D20700306C
:101A9600D33D5308803A2000D50080305502031DFF
:101AA600572D0F3025005202031C3B2D23001D1617
:101AB6009D1701302500DA000030DB0030302300AE
:101AC6003906031D882D20000F1B882D22003008A3
:101AD6003104031D882D25005A035B04031D802D48
:101AE60001302000A0000030A1009531AB258B31DC
:101AF6009131F9218B31200010142500DA01DB0128
:101B060001302200B0000030B10030302300390629
:101B1600031DAD2D20000F1FAD2D22003003310413
:101B2600031DAD2D25005A035B04031DA72D0130AF
:101B36002000A0000030A100953178258B3191312D
:101B4600F9218B31200010102500DA01DB0122007B
:101B5600B001B101303023003A06031DD42D200018
:101B66008F1BD42D22002E082F04031DD42D2500F3
:101B76005A035B04031DCC2D02302000A000003068
:101B8600A1009531AB258B319131F9218B312000A4
:101B960090142500DA01DB0101302200AE0000308E
:101BA600AF00303023003A06031DF92D20008F1FA9
:101BB600F92D22002E032F04031DF92D25005A03AB
:101BC6005B04031DF32D02302000A0000030A100AD
:101BD600953178258B319131F9218B312000901088
:101BE6002500DA01DB012200AE01AF01303023000F
:101BF6003B06031D1F2E20000D181F2E22002C0849
:101C06002D04031D1F2E25005A035B04031D182EE9
:101C160003302000A0000030A1009531AB258B31A8
:101C26009131F9218B3125000D14DA01DB010130E8
:101C36002200AC000030AD00303023003B06031D0F
:101C4600432E20000D1C432E22002C032D04031DC1
:101C5600432E25005A035B04031D3E2E033020004D
:101C6600A0000030A100953178258B319131F92102
:101C76008B3125000D10DA01DB012200AC01AD012C
:101C8600303023003C06031D692E20008D18692E76
:101C960022002A082B04031D692E25005A035B0423
:101CA600031D622E04302000A0000030A1009531F3
:101CB600AB258B319131F9218B3125008D15DA0158
:101CC600DB0101302200AA000030AB0030302300D7
:101CD6003C06031D8D2E20008D1C8D2E22002A030E
:101CE6002B04031D8D2E25005A035B04031D882E2D
:101CF60004302000A0000030A100953178258B31FA
:101D06009131F9218B3125008D11DA01DB01220099
:101D1600AA01AB01303023003D06031DB32E20007F
:101D26000D19B32E220028082904031DB32E250001
:101D36005A035B04031DAC2E05302000A0000030C2
:101D4600A1009531AB258B319131F9218B312500DD
:101D56000D16DA01DB0101302200A8000030A900CF
:101D6600303023003D06031DD72E20000D1DD72E33
:101D7600220028032904031DD72E25005A035B04DD
:101D8600031DD22E05302000A0000030A1009531A1
:101D960078258B319131F9218B3125000D12DA012D
:101DA600DB012200A801A901303023003E06031DF5
:101DB600FD2E20008D19FD2E220026082704031D66
:101DC600FD2E25005A035B04031DF62E0630200067
:101DD600A0000030A1009531AB258B319131F9215E
:101DE6008B3125000C17DA01DB0101302200A60039
:101DF6000030A700303023003E06031D212F2000AF
:101E06008D1D212F220026032704031D212F2500C7
:101E16005A035B04031D1C2F06302000A00000306F
:101E2600A100953178258B319131F9218B3125002F
:101E36000C13DA01DB012200A601A70130302300D2
:101E46003F06031D472F20000D1A472F22002408A6
:101E56002504031D472F25005A035B04031D402F4D
:101E660007302000A0000030A1009531AB258B3152
:101E76009131F9218B3125008C16DA01DB01013015
:101E86002200A4000030A500303023003F06031DC9
:101E96006B2F20000D1E6B2F220024032504031D2B
:101EA6006B2F25005A035B04031D662F07302000A5
:101EB600A0000030A100953178258B319131F921B0
:101EC6008B3125008C12DA01DB012200A401A50169
:101ED600303023004006031D912F20008D1A912FCC
:101EE600220022082304031D912F25005A035B04B8
:101EF600031D8A2F08302000A0000030A100953174
:101F0600AB258B319131F9218B3125000C16DA0185
:101F1600DB0101302200A2000030A3003030230094
:101F26004006031DB52F20008D1EB52F220022036B
:101F36002304031DB52F25005A035B04031DB02F90
:101F460008302000A0000030A100953178258B31A3
:101F56009131F9218B3125000C12DA01DB012200C7
:101F6600A201A301303023004106031DDB2F200010
:101F76008F1ADB2F220020082104031DDB2F2500EA
:101F86005A035B04031DD32F23302000A000983092
:101F9600A100933159238B3120000F150F128F1199
:101FA6002500DA01DB0101302200A0000030A1008B
:101FB600303023004106031D372B20008F1E372BA0
:101FC600220020032104031D372B25005A035B043E
:101FD600031DF92F08302000A0009830A10092318F
:101FE600E2228B3120000F110F128F112500DA012A
:101FF600DB012200A001A101372B8B31C92B8C31CB
:10200600072C8C310E2C8C314C2C8C31632C8C3162
:102016007A2C8C31912C8C31D12C8A31C22A8A317E
:10202600C92A8A31CF2A8A31D62A8A31DE2A8A31CA
:0A203600E62A8A31EE2A8A31F62AE2
:1022C200640080010131890B62290034FE00120092
:1022D2001E00FE0B68290034083028009E009C0175
:1022E2002000931121009315080084302C009600E1
:1022F2009501940120001411210014150800843066
:102302002C009C0098019701200094112100941543
:10231200080084302C009C009B019A0120001413B9
:10232200210014170800083020009C009A01911027
:10233200210091148B170B17080028009A019B01AA
:1023420099019801200013112100131508002000A3
:1023520098019901970196011110210011148B1710
:102362000B170800083028009700950120009310F1
:10237200210093148B170B17080028009301940176
:102382009201910120001310210013148B170B17D7
:1023920008002000A100A0013A3021020318D72929
:1023A20030302102031CD729A001A00A200C08000A
:1023B2002000A11F08002009A2002109A300A20AEF
:1023C2000319A30A2208A0002308A100080025007F
:1023D2008C1003302000A1000830A0007730890B58
:1023E200F029A00BF029A10BF02925008C1408007C
:1023F20025000C1003302000A1000830A000773027
:10240200890B012AA00B012AA10B012A25000C1419
:10241200080020001010901025000D108D110D12D3
:102422000C138C120C120C148C140C1520000F12AD
:102432008F110F11080028008D0129008D0128003D
:102442008C01230090012400900123008F012400BD
:102452008F0123008D0124008D0123008C010800CF
:1024620020002808A0002908A100A2018E30AB009C
:102472002B08A300A4019631A82620002008A8005A
:102482002108A9002208AA000800210091121112B5
:102492000A3023009F0090309D0024309E00A0301F
:1024A2009B0001309C008B170B1721009116230013
:1024B2009E169D170800F801F90104307806790488
:1024C2000319080023009E1C632A760884007708FB
:1024D200850000089A000130F6070030F73D013010
:1024E200F8070030F93D5E2A200020088400210808
:1024F200850000082206031908002108A50020080B
:10250200A400A00A0319A10A240884002508850052
:102512001200031D752AA001A10108002000A600D7
:102522002608A4002408A5000130A2020030A33B23
:10253200220A0319230A031908002008A400250807
:1025420086008701240881000130A4002408A50721
:10255200952A2000A401A501201CB32A2208A40761
:102562002308A53D0130A235A30D890BB42A013001
:10257200A136A00C890BB92A20082104031DAD2A1B
:102582002508A1002408A00008002000A2002208BB
:10259200A1002108A300230886000230870020083A
:1025A2008400023085000008C03F89080319080032
:1025B2000130A1002108A3070130A1002108A007D2
:1025C200CC2A2000A201A30104302206230403190D
:1025D200080023009E1CEA2A20002008840021080B
:1025E2008500000823009A0001302000A007003077
:1025F200A13D0130A2070030A33DE52A2000A2013F
:10260200A3010430220623040319080023009E1CA0
:10261200072B2000200884002108850000082300E1
:102622009A0001302000A0070030A13D0130A2072E
:102632000030A33D022B9231462293319131A821E1
:1026420093319131942193319131BE219331913162
:10265200B321933191319E21933191316D21933187
:1026620091318A21933191318021933191317621B7
:10267200080020002108A5002008A40024088600E4
:1026820025088700010803194B2B0130A4070030ED
:10269200A53D3F2B2009A2002109A300A20A03198C
:1026A200A30A24082207A0002508233DA100080050
:1026B2002000A301A4012008840021088500120043
:1026C2000319080023009E1C632B200020088400AD
:1026D20021088500000823009A0001302000A0078D
:1026E2000030A13D0130A3070030A43D5C2B233410
:1026F2000034003400340034003400340034003438
:102702000034003400340034003400340034003427
:102712000034003400340034003400340034003417
:1027220000340034003400340034003400342334E4
:1027320000340034003400340034003400340034F7
:1027420000340034003400340034003400340034E7
:1027520000340034003400340034003400340034D7
:1027620000340034003400340034003400342000DB
:10277200AD01A91FC32BA809A909A80A0319A90A0F
:10278200AD01AD0A2808A0002908A100A2018E30DF
:10279200AB002B08A3002D08AC002C08A400963136
:1027A200A82620002008A8002108A9002208AA00C3
:1027B20008002000A4002408A2002208A300230885
:1027C20086000230870001080319F42B0130A200B1
:1027D2002208A307E02B0130A2002208A307013040
:1027E200A0070030A13D23088600023087002008A0
:1027F2008400210885000008C03F890803190800E9
:10280200EC2B92310A22943192311C229431210014
:102812000F178F170D148D140D158D150D168D169E
:102822008F161010901026000D108D110D120C1322
:102832008C120C12210090159016101626000C1006
:102842008C100C1121000F128F110F110E138E1705
:1028520092310A2208002000A400372C0130A20085
:102862002208A4070130A0070030A13D24088600F9
:102872000230870020088400210885000008FF3A02
:10288200013E0107A2002208A3002308031D502CC9
:1028920024088600023087000108031D2F2C23081C
:1028A200A000A101A01BA10308002000A50025088B
:1028B200A3002308A4002108220403197A2C013062
:1028C200A1020030A23B240886008701A40A200846
:1028D20084008501A00A0008C03F890803197A2CE8
:1028E2005C2C24088600870181010130A3002308A3
:1028F200A4070130A1020030A23B210A031D722C61
:10290200220A03190800722C2334003400340034E4
:102912000034003400340034003400340034003415
:102922000034003400340034003400340034003405
:1029320000340034003400343034003400340034C5
:1029420000340034003400340034003400340034E5
:10295200003400340034003400340034233423348F
:102962002334233400342000AD00AB01AC01C12C70
:102972000130A9002908AD070130AB070030AC3D9A
:102982002D0886000230870001080319DF2C280871
:10299200A1002708A0002D08860002308700010848
:1029A200A900AA012908A2002A08A30092317522CF
:1029B20094312000200821040319B92C2C08A80006
:1029C2002B08A70008002000AD00AB01AC01F12CE0
:1029D2000130A9002908AD070130AB070030AC3D3A
:1029E2002D08860002308700010803190F2D2808E0
:1029F200A1002708A0002D088600023087000108E8
:102A0200A900AA012908A2002A08A300923175226E
:102A12009431200020082104031DE92C2C08A80071
:102A22002B08A700080002302000A1000030A200FD
:102A32000230A1000030A2002208803AA0008030BB
:102A42002002031D262D0930210203180800200050
:102A520021084E3E8600023087000108A0002108AE
:102A6200FE3EA03E86000130870020088100233010
:102A7200A00021084E3E8600023087002008810017
:102A82000130A1070030A23D1D2D23340034003453
:102A92000034003400340034003400340034003494
:102AA2000034003400340034003400340034003484
:102AB2000034003400340034003400340034003474
:102AC2000034003400340034003430340034003434
:102AD2000034003400340034003400340034003454
:102AE20000340034003400340034003400345230F6
:102AF20023009A0006302000A2003030890B7F2D7F
:102B0200A20B7F2D0000303023009A0006302000F7
:102B1200A2003030890B8B2DA20B8B2D00003030A0
:102B220023009A0006302000A2003030890B972D36
:102B3200A20B972D000020002008303E23009A00AF
:102B420006302000A2003030890BA52DA20BA52D46
:102B520000000800523023009A0006302000A20034
:102B62003030890BB22DA20BB22D00003130230080
:102B72009A0006302000A2003030890BBE2DA20B35
:102B8200BE2D0000303023009A0006302000A20043
:102B92003030890BCA2DA20BCA2D0000200020085C
:102BA200303E23009A0006302000A2003030890B0C
:102BB200D82DA20BD82D000008002000A601A701E5
:102BC2002008210403190E2EA501A50AA11BF32D2D
:102BD2000130A035A10D890BEA2D0130A400240893
:102BE200A507E72D0130A635A70D890BF42D210885
:102BF2002302031DFE2D20082202031C052E20089D
:102C0200A2022108A33B26140130A136A00C890B95
:102C1200062E0130A502031DF32D2708A100260868
:102C2200A00008002334003400340034003400349F
:102C320000340034003400340034003400340034F2
:102C420000340034003400340034003400340034E2
:102C520000340034003400340034003400340034D2
:102C620000340034003400340034003400340034C2
:102C720000340034003400340034003400340034B2
:102C820000340034003400340034003400340034A2
:102C92000034003400340034003400340034003492
:102CA2000034003400340034003400340034003482
:102CB20000340034003400342000B3003308031D14
:102CC200662E5C08B0003008B3003308031D6B2E7B
:102CD200003008002F08A8002E08A70033089431FE
:102CE200E424963120002708B0003008B3073308E7
:102CF2008600023087000108031D822EDC010030AD
:102D020008002F08A8002E08A70033089431B42425
:102D1200963120002708B0002808B1003308300798
:102D2200B2003208DC005C0886000230870001082D
:102D32000319A52E5C08860002308700810101304C
:102D4200B0003008DC07A62EDC01330808002000A2
:102D520023080319B12E220821042004031DC22EC8
:102D62000030A0000030A1000030A20008000130B5
:102D7200A5002508A3070130A236A10CA00C890BDF
:102D8200BD2EFE3022050319DB2EB82E0130A50020
:102D92002508A3070130A007003003180130A1075E
:102DA200003003180130A2070130A236A10CA00C9A
:102DB200890BD62EFF3022050319E82EC72E0130CB
:102DC200A3020130A035A10DA20D890BE32EA11B98
:102DD200EE2E023023020318E02E2318F62EFF30C7
:102DE200A0057F30A105FF30A2050310A30C230824
:102DF200A500A601A7011030A535A60DA70D890BC8
:102E0200FD2E2508A0042608A1042708A2042408F0
:102E120003190800A21708002000260886002708C8
:102E2200870020300106031D1C2F01302000A60759
:102E32000030A73D0D2F260886002708870009309D
:102E420001060319162FAB01AC01AA012608860060
:102E5200270887002D300106031D342F0130A800FA
:102E62002808AA073C2F26088600270887002B304F
:102E72000106031D402F0130A6070030A73D26089A
:102E820086002708870001089131CA219731031C67
:102E9200692F20002C08A1002B08A0000A30A200F4
:102EA2000030A3009231AA22973120002608860022
:102EB2002708870001082007A80021080318210A13
:102EC200A9002808D03EAB00FF30293DAC003C2FC2
:102ED20020002A080319792F2B09A8002C09A90020
:102EE200A80A0319A90A2808A6002908A7000800A9
:102EF2002C08A7002B08A60008002000B200320808
:102F0200A0000030A10093313A239731200021081C
:102F1200AB002008AA000130AE000030AF00AC01C7
:102F2200AD012A08FF3EB000FF302B3DB100B11BBE
:102F3200FB2F30083207A8002808860087013030AE
:102F42000102031CB72F30083207A80028088600A8
:102F520087013A3001020318B72F30083207A80060
:102F62002808860087010108D03ED32F3008320797
:102F7200A80028088600870141300102031CF52FB2
:102F820030083207A800280886008701473001026E
:102F92000318F52F30083207A80028088600870199
:102FA2000108C93EA000FF3003180030A1002F081D
:102FB200A3002E08A2009231AA22973120002008F5
:102FC200AC072108AD3D2F08A9002E08A800A80EC5
:102FD200A90EF030A90528080F39A904F030A80578
:102FE2002808AE002908AF00FF30B007FF30B13D1E
:102FF200B11F9A2F2D08A7002C08A6000800013443
:1030020000341034003400340134003410345234AB
:10301200473442342E3439342E3441344334543418
:10302200413443344B342E3430342E3430342E3445
:1030320030342E3430342E3430342E343134303473
:10304200303400345234473442342E3439342E343E
:10305200413443345434413443344B342E343134C8
:103062002E3430342E3430342E3430342E34303446
:103072002E3431343034303400343034313432345C
:1030820033343434353436343734383439344134E3
:1030920042344334443445344634003441344334B6
:1030A2005434413443344B340034453452344C3478
:1030B20053340034453452344F345634003445349A
:1030C2005234523458340034523447344234003487
:0A30D2002534583400342E34003445
:020000040001F9
:04000E00A2C9FFDDA7
:00000001FF
