:0400000080319B2888
:100008007E14803120007F08F900911E65282300A6
:100018009D1C17281D121D162530F5009830F60076
:1000280097317127803123001908F80021005708FB
:10003800BD3E860001308700780881002530230006
:100048003D06031D382801302100D7070030D83D70
:100058005808803AF80080307802031D352810309F
:100068005702031C65284E28523023003D06031D05
:1000780059283D080319592801302100D7070030B5
:10008800D83D5708BD3E8600013087007C30010608
:10009800031D652801302200DA000030DB00210052
:1000A800D701D8012000911265281D121D162100C4
:1000B800D701D8012A30F5009830F600973171271A
:1000C80080312100911C70282000911C702891100B
:1000D80025008C1520001C112100111C7E282000F1
:1000E800111C7E281110181025008C119F3020003B
:1000F8009B001C152000941D14198628141B8628A3
:10010800941F9728941B941F972894132200540334
:100118005504031D92284C082000970022004A0825
:100128002000960018147908FF007E10090080311D
:100138009D28B730840096308500E730860000306F
:10014800870009309631962680318B3084009630AE
:1001580085006B3086000130870005309631962681
:1001680080314030840089308500A030860001301D
:1001780087002F309631962680311E3084009730C4
:1001880085004E308600023087000E309631962664
:1001980080319C3084008A308500A030860002308F
:1001A80087003A30963196268031F001F101F2014C
:1001B800F301F40160308400003085000A30963184
:1001C80090268031D5308400003085001230963179
:1001D8009026803120308400013085004B309631E4
:1001E80090268031CF30840001308500163096315A
:1001F8009026803120308400023085002E309631E0
:1002080090267E1020008131092929302000DB004A
:100218009630DA007F30890B0F29DA0B0F29DB0BB8
:100228000F2901302200B0000030B1000130AE00CB
:100238000030AF000130AC000030AD000130AA0042
:100248000030AB000130A8000030A9000130A60042
:100258000030A7000130A4000030A5000130A20042
:100268000030A3000130A0000030A1008831E52053
:10027800813188319420813122005A035B04031DA7
:10028800422BDA01DB01253023003D06031D8829B6
:1002980025303E06031D882940304B06031D88295A
:1002A80040304C06031D882997313B27813189311D
:1002B800CF21813123002F082000DA005A08CC0012
:1002C800230030082000DB005B08CD002300310844
:1002D8002000DC005C08CE00230032082000DD008E
:1002E8005D08CF00230033082000DE005E08D00040
:1002F800230034082000DF005F08D10023002E0807
:100308008D3138258131422B523023003D06031DA3
:10031800072B47303E06031D072B97313B278131BA
:10032800BD302000DA005A08E9003830AE009830B5
:10033800AF0069088A31D62281312000DA005A08D4
:10034800E8006808DA005A08E7002200B601B70199
:100358002F302000A0009830A10067088831BB200A
:1003680081312000200821040319022B422B01307F
:100378002200B6070030B73D38302000AE00983074
:10038800AF0000308A31D62281312000DA005A08C5
:10039800E800EF2A2300E701E801E701E80168081F
:1003A800803A2000DA0080305A02031DDE2901302D
:1003B800230067020318062A200068088600013017
:1003C80087000108DA0023006708E23E8600013052
:1003D800870020005A0881000130DA005A08E8072F
:1003E80001302300E7070030E83D6808803A200024
:1003F800DA0080305A02031D042A01302300670204
:10040800031CE029E2302000DA005A082100E3004A
:10041800022B20006808DA005A082100E200022BAB
:100428002300E901EA01E901EA016A08803A2000AB
:10043800DA0080305A02031D242A013023006902A1
:1004480003184C2A2000680886000130870001083C
:10045800DA0023006908633E860001308700200027
:100468005A0881000130DA005A08E80701302300F1
:10047800E9070030EA3D6A08803A2000DA00803057
:100488005A02031D4A2A013023006902031C262A46
:1004980063302000DA005A082100E100022B200016
:1004A8006808DA005A08E6006608A000FF39031D4C
:1004B8000130A10088313320813120002108220039
:1004C800BD00200020082200BC00022B2000680884
:1004D800DA005A08E5006508A000FF39031D01305D
:1004E800A100883133208131200021082200BB007F
:1004F800200020082200BA00022B20006808DA0039
:100508005A08E4006408A000FF39031D0130A10067
:10051800883133208131200021082200B9002000D1
:1005280020082200B800022B2300EB01EC01EB01AC
:10053800EC016C08803A2000DA0080305A02031D72
:10054800A82A013023006B020318D22A2000680869
:100558008600013087000108DA0023006B08740761
:100568002000DB005B088600013087005A08810004
:100578000130DA005A08E80701302300EB070030A1
:10058800EC3D6C08803A2000DA0080305A02031DE6
:10059800D02A013023006B02031CAA2A61302000F4
:1005A800DA005A08F400022B20006808DA005A081A
:1005B800E3006308A000FF39031D0130A100883162
:1005C80033208131200021082300DF00200020088B
:1005D8002300DE00022B22003708003A0319F52A0F
:1005E800022B3608FF3E031C022B8400083004024D
:1005F8000318022B90310435123E8200200068084F
:100608000319422BBB2920302000A0009830A100FC
:100618009731B127813123009D131D12E501E601B1
:100628006608803A2000DA0080305A02031D1F2B2A
:100638000F302300650203183F2B23302000DA0017
:1006480023006508BD3E86000130870020005A0857
:10065800810001302300E5070030E63D6608803A56
:100668002000DA0080305A02031D3D2B0F30230092
:100678006502031C212B23001D169D170130230042
:10068800ED000030EE0030302106031D6D2B2000F8
:100698000F1B6D2B220030083104031D6D2B230026
:1006A8006D036E04031D652B01302000A00000308F
:1006B800A1008A313422813197314C2781312000C1
:1006C80010142300ED01EE0101302200B0000030CB
:1006D800B100303023002106031D922B20000F1F8C
:1006E800922B220030033104031D922B23006D034B
:1006F8006E04031D8C2B01302000A0000030A100E7
:100708008A310122813197314C2781312000101024
:100718002300ED01EE012200B001B10130302300C9
:100728002206031DB92B20008F1BB92B22002E088F
:100738002F04031DB92B23006D036E04031DB12B79
:1007480002302000A0000030A1008A31342281311B
:1007580097314C278131200090142300ED01EE01E0
:1007680001302200AE000030AF00303023002206F6
:10077800031DDE2B20008F1FDE2B22002E032F04EB
:10078800031DDE2B23006D036E04031DD82B0230DE
:100798002000A0000030A1008A3101228131973168
:1007A8004C278131200090102300ED01EE0122003A
:1007B800AE01AF01303023002306031D052C2000B5
:1007C8000D18052C22002C082D04031D052C2300D0
:1007D8006D036E04031DFD2B03302000A0000030C4
:1007E800A1008A313422813197314C27813125008B
:1007F8000D142300ED01EE0101302200AC000030A1
:10080800AD00303023002306031D2A2C20000D1CC8
:100818002A2C22002C032D04031D2A2C23006D03EF
:100828006E04031D242C03302000A0000030A1001A
:100838008A310122813197314C27813125000D10F1
:100848002300ED01EE012200AC01AD0130302300A0
:100858002406031D512C20008D18512C22002A0833
:100868002B04031D512C23006D036E04031D492C1A
:1008780004302000A0000030A1008A3134228131E8
:1008880097314C27813125008D152300ED01EE01AC
:1008980001302200AA000030AB00303023002406CB
:1008A800031D762C20008D1C762C22002A032B0495
:1008B800031D762C23006D036E04031D702C043079
:1008C8002000A0000030A1008A3101228131973137
:1008D8004C27813125008D112300ED01EE01220006
:1008E800AA01AB01303023002506031D9D2C2000F2
:1008F8000D199D2C220028082904031D9D2C230076
:100908006D036E04031D952C05302000A0000030F7
:10091800A1008A313422813197314C278131250059
:100928000D162300ED01EE0101302200A800003071
:10093800A900303023002506031DC22C20000D1D00
:10094800C22C220028032904031DC22C23006D0396
:100958006E04031DBC2C05302000A0000030A1004F
:100968008A310122813197314C27813125000D12BE
:100978002300ED01EE012200A801A9013030230077
:100988002606031DE92C20008D19E92C22002608D3
:100998002704031DE92C23006D036E04031DE12CBD
:1009A80006302000A0000030A1008A3134228131B5
:1009B80097314C27813125000C172300ED01EE01FA
:1009C80001302200A6000030A700303023002606A0
:1009D800031D0E2D20008D1D0E2D22002603270439
:1009E800031D0E2D23006D036E04031D082D063014
:1009F8002000A0000030A1008A3101228131973106
:100A08004C27813125000C132300ED01EE01220053
:100A1800A601A701303023002706031D352D20002D
:100A28000D1A352D220024082504031D352D230019
:100A38006D036E04031D2D2D07302000A00000302B
:100A4800A1008A313422813197314C278131250028
:100A58008C162300ED01EE0101302200A4000030C5
:100A6800A500303023002706031D5A2D20000D1E37
:100A78005A2D220024032504031D5A2D23006D033B
:100A88006E04031D542D07302000A0000030A10083
:100A98008A310122813197314C27813125008C120E
:100AA8002300ED01EE012200A401A501303023004E
:100AB8002806031D812D20008D1A812D2200220871
:100AC8002304031D812D23006D036E04031D792D5E
:100AD80008302000A0000030A1008A313422813182
:100AE80097314C27813125000C162300ED01EE01CA
:100AF80001302200A2000030A30030302300280675
:100B0800031DA62D20008D1EA62D220022032304DE
:100B1800031DA62D23006D036E04031DA02D0830B0
:100B28002000A0000030A1008A31012281319731D4
:100B38004C27813125000C122300ED01EE01220023
:100B4800A201A301303023002906031DD02D200067
:100B58008F1AD02D220020082104031DD02D230038
:100B68006D036E04031DC82D2200D401D5010A307F
:100B78002000A0000030A1008A3134228131973151
:100B88004C27813125008C112300ED01EE01013045
:100B98002200A0000030A100303023002906031DE8
:100BA800402920008F1E4029220020032104031D14
:100BB800402923006D036E04031DF22D2200D40189
:100BC800D5010A302000A0000030A1008A3101229E
:100BD800813197314C27813125008C152300ED0197
:100BE800EE012200A001A10140292000B40020004C
:100BF8002908AC002808AB00A80A0319A90A2B0881
:100C080084002C0885000008AD002D08B5003508C3
:100C18000319DC2E253035060319392E340A8600CF
:100C28008701160001040319262E3508AB002B088E
:100C3800A000340A86008701413F8A00403F0A002D
:100C48008631FB2D20003508AB003408860087016B
:100C58000108860087012B0881000130AB003408A9
:100C6800860087012B088107FB2DAF012908AC00FE
:100C78002808AB00A80A0319A90A2B0884002C0825
:100C880085000008B500003A0319DC2E583A03190C
:100C9800512E203A0319512EFB2D2A088600870170
:100CA80001088400850102308107003FB100013F3F
:100CB800B200B501B50A043035060319822E35088D
:100CC800AB00AC01AB35AC0D00302B07840098307D
:100CD8002C3D8500003FAD00013FAE002E083202DA
:100CE800031D782E2D083102031C822E0130AB0023
:100CF8002B08B50704303506031D632E3508AB00F5
:100D08002B08B300FF302000AB002B08B307330AD1
:100D18000319FB2D3308AB00AC01AB35AC0D00302B
:100D28002B07840098302C3D8500003FA000013F30
:100D3800A1003208A3003108A2008A316722853158
:100D4800200020080F39AD002D08B0003008083EFB
:100D5800840098300318013E85000008AB002B087A
:100D6800B500340A86008701160001040319C92E4C
:100D78003508AB002B08A000340A86008701413FE4
:100D88008A00403F0A008631862E20003508AB00D5
:100D98003408860087010108860087012B08810036
:100DA8000130AB003408860087012B088107862EA6
:100DB800A801A901080020002808AE002908AF00F2
:100DC8002A08B00003102F0D300DB1003108B20011
:100DD8003208031DF62E0030A8000030A9000030AC
:100DE800AA0008002B08AE002C08AF002D08B000A0
:100DF80003102F0D300DB1003108B7003708031D5F
:100E08000C2F0030A8000030A9000030AA0008000C
:100E180037087B3EAE002E08B2072808AE00290826
:100E2800AF002A08B0001030B036AF0CAE0C890BFA
:100E3800182F2E08B1003108B7002B08AE002C0877
:100E4800AF002D08B0001030B036AF0CAE0C890BD7
:100E5800282F2E08B1003108B7068030AE002E08C2
:100E6800B705A917AC17FF30AB05FF30AC0500304C
:100E7800AD050030B3000030B4000030B5000730D5
:100E8800AE002E08B600281C4F2F2B08B3072C08DD
:100E9800B43D2D08B53D0130AA36A90CA80C890B24
:100EA800502F0130AB35AC0DAD0D890B562F0130ED
:100EB800B602031D472F0930AE002E08B600281CC5
:100EC8006B2F2B08B3072C08B43D2D08B53D013016
:100ED800AA36A90CA80C890B6C2F0130B536B40CB6
:100EE800B30C890B722F0130B602031D632F330830
:100EF800A0003408A1003508A2003208AE002E0870
:100F0800A3003708AF002F08A4008B31212320004D
:100F18002008A8002108A9002208AA00080020002B
:100F2800AD002D088600870120300106031DA12F82
:100F38000130A8002808AD07952F2D0886008701E5
:100F48000930010603199C2FAB01AC01AA012D0839
:100F5800860087012D300106031DB72F0130A80038
:100F68002808AA07BE2F2D08860087012B30010606
:100F7800031DC22F0130A8002808AD072D088600E0
:100F88008701010897312C278731031CE92F20009E
:100F98002C08A1002B08A0000A30A2000030A300F2
:100FA8009731E427873120002D0886008701010842
:100FB8002007A80021080318210AA9002808D03E04
:100FC800AB00FF30293DAC00BE2F20002A080319D2
:100FD800F92F2B09A8002C09A900A80A0319A90AA6
:100FE8002808A6002908A70008002C08A7002B0835
:060FF800A600080008003D
:101000002000BA01FE30BB000730BC003830B80009
:101010003808B9003708A9003608A8003930B800E8
:101020003808AA003A308531F92508002000BD00B3
:101030003D08BC003C08BF00C001C1013830BC0005
:101040003C08BE003708A9003608A8003E30BC00A6
:101050003C08AA003F308531F92520003F08860072
:1010600087018101080020002108A5002008A400B4
:101070002408860025088700010803194428013048
:10108000A4070030A53D38282009A2002109A300AB
:10109000A20A0319A30A24082207A0002508233D59
:1010A000A10008002000A300A101A20123088600DE
:1010B0000230870001080319080023009E1C5D28E8
:1010C00020002308860002308700010823009A00D0
:1010D00001302000A0002008A3070130A107003044
:1010E000A23D56282000AD01A91F7D28A809A90905
:1010F000A80A0319A90AAD01AD0A2808A000290809
:10110000A100A2018E30AB002B08A3002D08AC007B
:101110002C08A4008B31212320002008A8002108DE
:10112000A9002208AA00080097319B278831963130
:10113000FC2688319631E82688319731122788318C
:101140009731072788319631F22688319631A526C6
:1011500088319631AE26883196319C268831963179
:10116000DE2688319631D42688319631CA268831D8
:101170009631C02608002000A400C6280130A20035
:101180002208A4070130A0070030A13D24088600F2
:101190000130870020088400210885000008FF3AFC
:1011A000013E0107A2002208A3002308031DDF2837
:1011B00024088600013087000108031DBE2823088B
:1011C000A000A101A01BA103080097315D27883171
:1011D00097318627883121000F178F170D148D1432
:1011E0000D158D150D168D168F16101090102600EA
:1011F0000D108D110D120C138C120C128C1121007C
:10120000901590159016101626000C108C100C11CD
:1012100021000F128F110F110E138E1797315D27BA
:1012200008002000A4002408A3002308A50021082A
:101230002204031935290130A1020030A23B250800
:1012400086008701A50A200884008501A00A0008FD
:10125000C03F890803193529172925088600870109
:1012600081010130A3002308A5070130A10200304D
:10127000A23B210A031D2D29220A031908002D294A
:10128000303430343034303430343034303430343E
:1012900030343034303430340034003423340034CB
:1012A000003400340034003400340034003400349E
:1012B00023342334233423340034233400340034DF
:1012C000003400340034003400340034003400347E
:1012D0000034003400340034003400340034200082
:1012E000AD00AB01AC017C290130A9002908AD0794
:1012F0000130AB070030AC3D2D088600013087007F
:10130000010803199A292808A1002708A0002D0820
:101310008600013087000108A900AA012908A2005F
:101320002A08A3009731CA27893120002008210408
:10133000031974292C08A8002B08A7000800200016
:10134000AD00AB01AC01AC290130A9002908AD0703
:101350000130AB070030AC3D2D088600013087001E
:1013600001080319CA292808A1002708A0002D0890
:101370008600013087000108A900AA012908A200FF
:101380002A08A3009731CA278931200020082104A8
:10139000031DA4292C08A8002B08A7000800023070
:1013A0002000A1000030A2000230A1000030A20005
:1013B0002208803AA00080302002031DE129093074
:1013C00021020318080020002108BD3E86000130DC
:1013D00087000108A0002108FE3EAE3E86000130D5
:1013E0008700200881002330A0002108BD3E860030
:1013F00001308700200881000130A1070030A23DA4
:10140000D829523023009A0006302000A200303044
:10141000890B082AA20B082A0000303023009A000A
:1014200006302000A2003030890B142AA20B142AA7
:101430000000303023009A0006302000A200303037
:10144000890B202AA20B202A000020002008303E11
:1014500023009A0006302000A2003030890B2E2A8B
:10146000A20B2E2A00000800523023009A000630FA
:101470002000A2003030890B3B2AA20B3B2A00003F
:10148000313023009A0006302000A2003030890B52
:10149000472AA20B472A0000303023009A0006306A
:1014A0002000A2003030890B532AA20B532A0000DF
:1014B00020002008303E23009A0006302000A200C1
:1014C0003030890B612AA20B612A0000080020003D
:1014D000A601A701200821040319972AA501A50A3E
:1014E000A11B7C2A0130A035A10D890B732A013084
:1014F000A4002408A507702A0130A635A70D890B82
:101500007D2A21082302031D872A20082202031CAA
:101510008E2A2008A2022108A33B26140130A136FE
:10152000A00C890B8F2A0130A502031D7C2A2708F5
:10153000A1002608A0000800233400340034003441
:1015400000340034003400340034003400340034FB
:1015500000340034003400340034003400340034EB
:1015600000340034003400340034003400340034DB
:1015700000340034003400340034003400340034CB
:1015800000340034003400340034003400340034BB
:1015900000340034003400340034003400340034AB
:1015A0000034003400340034003400342000B30030
:1015B0003308031DDF2A6208B0003008B300330887
:1015C000031DE42A003008002F08A8002E08A700F9
:1015D000330889319F218A3120002708B000300864
:1015E000B30733088600013087000108031DFB2A7A
:1015F000E201003008002F08A8002E08A7003308D9
:1016000089316F218A3120002708B0002808B100F5
:1016100033083007B2003208E20062088600013069
:101620008700010803191E2B62088600013087001D
:1016300081010130B0003008E2071F2BE2013308BE
:1016400008002000230803192A2B22082104200463
:10165000031D3B2B0030A0000030A1000030A20091
:1016600008000130A5002508A3070130A236A10C0F
:10167000A00C890B362BFE3022050319542B312B7D
:101680000130A5002508A3070130A007003003188A
:101690000130A107003003180130A2070130A23643
:1016A000A10CA00C890B4F2BFF3022050319612BD5
:1016B000402B0130A3020130A035A10DA20D890BF2
:1016C0005C2BA11B672B023023020318592B231814
:1016D0006F2BFF30A0057F30A105FF30A20503105E
:1016E000A30C2308A500A601A7011030A535A60D5F
:1016F000A70D890B762B2508A0042608A10427082E
:10170000A204240803190800A21708002000B00052
:101710003008A0000030A100883133208B31200038
:101720002108AB002008AA000130AE000030AF0055
:10173000AC01AD012A08FF3EB100FF302B3DB200E5
:10174000B21B032C31083007A80028088600870147
:1017500030300102031CBF2B31083007A8002808D5
:10176000860087013A3001020318BF2B3108300789
:10177000A8002808860087010108D03EDB2B31082D
:101780003007A80028088600870141300102031CA9
:10179000FD2B31083007A800280886008701473054
:1017A00001020318FD2B31083007A8002808860025
:1017B00087010108C93EA000FF3003180030A100D6
:1017C0002F08A3002E08A2009731E4278B312000B8
:1017D0002008AC072108AD3D2F08A9002E08A8005D
:1017E000A80EA90EF030A90528080F39A904F03079
:1017F000A8052808AE002908AF00FF30B107FF3068
:10180000B23DB21FA22B2D08A7002C08A60008008D
:1018100020003E08C2003F08C3004008C400031077
:10182000430D440DC5004508CB004B08031D212C7A
:101830000030C1000030C0000030BF000030BE00EA
:1018400008003E08C2003F08C3004008C40017302B
:10185000C436C30CC20C890B282C4208C5004508AD
:10186000C600BF17FF30BE05FF30BF050030C00502
:101870003E08C7003F08C8004008C900CA018E30B2
:10188000CB02CB1F5F2C4B08803A8F3E0318512CA4
:101890000030C1000030C0000030BF000030BE008A
:1018A00008000130CA36C90CC80CC70C890B522C71
:1018B0000130C2004208CB070319782C512C183094
:1018C0004B02031C752C0030C1000030C0000030FA
:1018D000BF000030BE0008000130C735C80DC90D7B
:1018E000CA0D890B6D2C0130CB024B08031D6C2CEB
:1018F00046080319862CC709C809C909CA09C70AB5
:101900000319C80A0319C90A0319CA0A4A08C100F7
:101910004908C0004808BF004708BE000800200072
:101920003108B4003208B5003308B6000310350D95
:10193000360DB7003708BC003C08031DA62C00304C
:10194000AE000030AF000030B00008002E08B40038
:101950002F08B5003008B6000310350D360DB7005E
:101960003708BD003D08031DBC2C0030AE00003020
:10197000AF000030B00008000030B9000030BA00FD
:101980000030BB0089303D07B4003408BC02310888
:10199000B4003208B5003308B6001030B636B50CC6
:1019A000B40C890BCE2C3408B7003708BD002E08C4
:1019B000B4002F08B5003008B6001030B636B50CAC
:1019C000B40C890BDE2C3408B7003708BD06803014
:1019D000B4003408BD05B217FF30B105FF30B205C1
:1019E0000030B305AF17FF30AE05FF30AF05003054
:1019F000B0051830B4003408B8000130B935BA0D5C
:101A0000BB0D890BFE2C30083302031D0D2D2F0852
:101A10003202031D0D2D2E083102031C162D2E0837
:101A2000B1022F08B23B3008B33B39140130B13555
:101A3000B20DB30D890B172D0130B802031DFD2C1B
:101A40003908A0003A08A1003B08A2003C08B400F5
:101A50003408A3003D08B5003508A4008B312123CC
:101A600020002008AE002108AF002208B0000800C6
:101A70002100C500CF01D001D301D401CB01CC019D
:101A8000D101D201A001A1010030C8000030C9007D
:101A90000030CA000030BA000030B9000030B80091
:101AA0000030B7000030BE000030BD000030BC0088
:101AB0000030BB000030B0000030AF00FF30AE009F
:101AC000FF30AD000030B100A030B2004130B300B3
:101AD0000030B4008030B5003E30B600A201A30152
:101AE000A401A501A8302000A0000030A100883189
:101AF00033208D3120002008FF3E2100A600FF305A
:101B00002000213D2100A70022006E082100C7000F
:101B100022006D082100C60022006C082100CE00C2
:101B200022006B082100CD0045082000D200520899
:101B30002100C60020004C08D20052082100C70036
:101B4000C630873193278D31200027082100D0002F
:101B5000200026082100CF0020004D08D03E2100A3
:101B6000D300FF3003180030D40020004E08D2000C
:101B700052082100CD0020004F08D2005208210059
:101B8000CE00CD30873193278D31200027082100EA
:101B9000CC00200026082100CB0020004E08D200F7
:101BA00052082100CD0020004F08D2005208210029
:101BB000CE00CD30873193278D31200027082100BA
:101BC000CC00200026082100CB004B092000D200C9
:101BD00021004C092000D300D20A0319D30A52086D
:101BE000633E2100CB0000302000533D2100CC009B
:101BF00031082000AE00210032082000AF00210093
:101C000033082000B00021004C082000A90021006A
:101C10004B082000A800883172208D312000280850
:101C2000B1002908B2002A08B3008C318F248D310D
:101C300020002E082100C80020002F082100C90024
:101C4000200030082100CA0000302000A8007A30AF
:101C5000A9004430AA00210048082000AB00210060
:101C600049082000AC0021004A082000AD00863160
:101C7000DF268D31200028082100C8002000290817
:101C80002100C90020002A082100CA0048082000BD
:101C9000B100210049082000B20021004A082000BC
:101CA000B300210034082000AE00210035082000D8
:101CB000AF00210036082000B0008C318F248D3118
:101CC00020002E08BE002F08BF003008C0008C3155
:101CD00008248D31200041082100BA00200040086E
:101CE0002100B90020003F082100B80020003E0874
:101CF0002100B7002D082000D20021002E0820006E
:101D0000D30021002F082000D4002100300820003B
:101D1000D500210037092000D60021003809200015
:101D2000D700210039092000D80021003A092000FD
:101D3000D900D60A0319D70A0319D80A0319D90AF0
:101D40005608D2075708D33D5808D43D5908D53D09
:101D500055082100BE00200054082100BD002000CD
:101D600053082100BC00200052082100BB00333082
:101D70002000B6009830B70021003E082000BB00CC
:101D800021003D082000BA0021003C082000B900D5
:101D900021003B082000B800A830883116208D3182
:101DA000A8302000D2005208A0000230A10000306C
:101DB000A200BF30893111218D312100C10136309F
:101DC0002000B6009830B700883100208D31AA304D
:101DD0002000D2005208A0000230A1000030A20072
:101DE000C230893111218D312100C40120005008F9
:101DF000D20021004F084E3E8600023087002000AE
:101E00005208810021004F084E3E860002308700B4
:101E100001082000D20021004F08A03E86000130BA
:101E20008700200052088100210050082000D300C4
:101E300021004F082000D200D235D30DD235D30D6A
:101E40005208FC3E2100D100FF302000533D21000C
:101E5000D20047302000D20021005108A03E860069
:101E60000230870020005208810001302100D10794
:101E70000030D23D20004D08D20021005108A03E84
:101E800086000230870020005208810001302100C6
:101E9000D1070030D23D45082000D2002100510872
:101EA000A03E8600023087002000520881000130E9
:101EB0002100D1070030D23D20004C08D200210083
:101EC0005108A03E860002308700200052088100A1
:101ED000FD302100D107FF30D23D313020005106C6
:101EE000031DEC2F21005108A03E883152208D3176
:101EF000EC2F2100530C2000031C101003181014A9
:101F000008002100530C2000031C901003189014AB
:101F100008002100530C2500031C0D1003180D149C
:101F200008002100530C2500031C8D1103188D158A
:101F300008002100530C2500031C0D1203180D1678
:101F400008002100530C2500031C0C1303180C1768
:101F500008002100530C2500031C8C1203188C165A
:101F600008002100530C2500031C0C1203180C164A
:101F70000800210054082200D50021005308220047
:101F8000D400DD2F25008C150800BF308B3186234F
:101F90008D31200027082200CD00200026082200D5
:101FA000CC00C2308B318623200027082200CB00D2
:101FB000200026082200CA00080021005408003A28
:101FC0000319E32FFF2F5308003A0319C22F013AD8
:101FD0000319C52FFF2F080021005008003A0319EC
:101FE000F22FFF2F4F08FF3E031C0800840009302A
:101FF00004020318080090310435003E82000800F6
:102000008F31792F8F31812F8F31892F8F31912F00
:102010008F31992F8F31A12F8F31A92F8F31B12F70
:102020008F31B92F8131CE2982310D2A8231142A84
:102030008231532A82316A2A8231812A8231982A56
:042040008231D82AE7
:102D1600233400342334003430346400800101311C
:102D2600890B912E0034FE0012001E00FE0B972E1A
:102D3600003408302B009E009C0120001211210057
:102D460012150800083028009E009C0120009311EF
:102D560021009315080008302B00970095012000EC
:102D6600921021009214080030343034303430345C
:102D76003034303430343034303484302C009F00DA
:102D86009E019D01200094132100941708008430B1
:102D96002C009600950194012000141121001415B1
:102DA600080084302C009C009801970120009411A3
:102DB60021009415080084302C009C009B019A0188
:102DC60020001413210014170800083020009C006E
:102DD6009A019110210091148B170B1708002800F7
:102DE6009A019B01990198012000131121001315E6
:102DF6000800200098019901970196011110210001
:102E060011148B170B17080008302800970095013E
:102E160020009310210093148B170B17080028002D
:102E260093019401920191012000131021001314C3
:102E36008B170B17080030343034303430343034CC
:102E4600303430343034303430343034303400348C
:102E560000342000A100A0013A3021020318392FC6
:102E660030302102031C392FA001A00A200C0800D3
:102E760025008C1003302000A1000830A000773018
:102E8600890B432FA00B432FA10B432F25008C1436
:102E9600080025000C1003302000A1000830A00017
:102EA6007730890B542FA00B542FA10B542F2500DC
:102EB6000C14080020001010901025000D108D1124
:102EC6000D120C138C120C120C148C140C15200001
:102ED6000F128F110F1125008C1108007508840040
:102EE6007608850012000319080023009E1C782F1F
:102EF600750884007608850000089A000130F507F9
:102F06000030F63D712F28008D0129008D01280023
:102F16008C01230090012400900123008F012400DE
:102F26008F0123008D0124008D0123008C010800F0
:102F36002100911211120A3023009F0090309D004B
:102F460024309E00A0309B0001309C008B170B178D
:102F56002100911623009E169D17080020002008C8
:102F660084002108850012000319080023009E1C16
:102F7600B92F2000200884002108850000082300BE
:102F86009A0001302000A0070030A13DB12F20009B
:102F9600200884002108850000082206031908007D
:102FA6002108A5002008A400A00A0319A10A2408E4
:102FB6008400250885001200031DCA2FA001A10167
:102FC60008002000A401A501201CED2F2208A4075B
:102FD6002308A53D0130A235A30D890BEE2F013044
:102FE600A136A00C890BF32F20082104031DE72F1F
:102FF6002508A1002408A00008000134003410347C
:103006000034003401340034103430343134323476
:10301600333434343534363437343834393441344F
:103026004234433444344534463400344134433422
:103036005434413443344B340034453452344C34E4
:1030460053340034453452344F3456340034453406
:1030560052345234583400345234473442340034F3
:0E3066002534583400340A3400342E3400343B
:020000040001F9
:04000E00A2C9FFDDA7
:00000001FF
