:040000008031C8285B
:100008007E14803120007F08F400911E4A282300C6
:100018009D1C17281D121D162E30F0009030F1007F
:100028008B311D23803123001908F3007708203E07
:1000380086000130870073088100253022002006E1
:10004800031D3E280130F7070030F83D7808803A54
:10005800F30080307302031D332810307702031C2D
:100068004A2801302000EA000030EB00F701F801CF
:1000780091124A2823001D121D16F701F80133308A
:10008800F0009030F1008B311D2380312000941E48
:1000980097282900951C5928151215161930F000B3
:1000A8009030F1008B311D2380312900151D652802
:1000B800151215161F30F0009030F1008B311D23FA
:1000C800803129001108F3007508323E860001309E
:1000D800870073088100283022003206031D8B2810
:1000E8000130F5070030F63D7608803AF30080309D
:1000F8007302083003197502031C97280130200089
:10010800E6000030E700F501F6019412972829006F
:1001180015121516F501F6012930F0009030F1009E
:100128008B311D2380312100911CA2282000911CB5
:10013800A228911025008C1120001C112100111CEF
:10014800B0282000111CB028111025008C159F30F4
:1001580020009B001C1518102000941B941FC42815
:10016800941FC4289413210055035604031DBF2867
:1001780059082000970021005708200096001814FD
:100188007408FF007E1009008031CA28B530840049
:100198008A308500E53086000030870004308A31D7
:1001A800BF228031313084008D30850020308600B8
:1001B8000130870050308A31BF228031B33084004B
:1001C80087308500A0308600013087003A308A31B8
:1001D800BF228031F501F601F701F8016030840093
:1001E800003085000C308A31B9228031D530840046
:1001F8000030850010308A31B9227E102000843109
:10020800102C2100C500CF01D001D301D401CB01AE
:10021800CC01D101D201A001A1010030C8000030F9
:10022800C9000030CA000030BA000030B900003000
:10023800B8000030B7000030BE000030BD0000300C
:10024800BC000030BB000030B0000030AF00FF3011
:10025800AE00FF30AD000030B1002030B2004130B8
:10026800B3000030B4008030B5003E30B600A201C3
:10027800A301A401A501A8308B31E8238131200016
:100288002008FF3E2100A600FF302000213D21006C
:10029800A7006808C7006708C6006608CE0065089A
:1002A800CD0045082000D20052082100C6002000D9
:1002B8004C08D20052082100C700C6308D31E6250F
:1002C8008131200027082100D000200026082100C5
:1002D800CF0020004D08D03E2100D300FF30031886
:1002E8000030D40020004E08D20052082100CD0072
:1002F80020004F08D20052082100CE00CD308D31A9
:10030800E6258131200027082100CC00200026089E
:100318002100CB0020004E08D20052082100CD0059
:1003280020004F08D20052082100CE00CD308D3178
:10033800E6258131200027082100CC00200026086E
:100348002100CB004B092000D20021004C092000DD
:10035800D300D20A0319D30A5208633E2100CB0006
:1003680000302000533D2100CC0031082000AE00B1
:10037800210032082000AF00210033082000B0001F
:1003880021004C082000A90021004B082000A800EB
:100398008B31C623813120002808B1002908B2001A
:1003A8002A08B3008F315727813120002E082100F9
:1003B800C80020002F082100C900200030082100B3
:1003C800CA0000302000A8007A30A9004430AA00F2
:1003D800210048082000AB00210049082000AC009B
:1003E80021004A082000AD0086314C2681312000CA
:1003F80028082100C800200029082100C900200081
:100408002A082100CA0048082000B1002100490834
:100418002000B20021004A082000B300210034085F
:100428002000AE00210035082000AF00210036086A
:100438002000B0008F315727813120002E08BE00E0
:100448002F08BF003008C0008E31D026813120002F
:1004580041082100BA00200040082100B90020000E
:100468003F082100B80020003E082100B7002D08F1
:100478002000D20021002E082000D30021002F08E0
:100488002000D400210030082000D50021003709C1
:100498002000D600210038092000D70021003909A2
:1004A8002000D80021003A092000D900D60A0319F3
:1004B800D70A0319D80A0319D90A5608D2075708C0
:1004C800D33D5808D43D5908D53D55082100BE00F4
:1004D800200054082100BD00200053082100BC0062
:1004E800200052082100BB0038302000A8009030BE
:1004F800A90021003E082000AD0021003D08200091
:10050800AC0021003C082000AB0021003B08200083
:10051800AA00A830873100278131A8302000D200F6
:100528005208A0000230A1000030A200BF308C3178
:10053800342481312100C101AA302000D2005208A0
:10054800A0000230A1000030A200C2308C31342457
:1005580081312100C40120005008D20021004F0839
:10056800503E86000130870020005208810021009B
:100578004F08503E86000130870001082000D20055
:1005880021004F08423E86000130870020005208B3
:100598008100210050082000D30021004F082000CE
:1005A800D200D235D30DD235D30D5208FC3E2100EE
:1005B800D100FF302000533D2100D20047302000F9
:1005C800D20021005108A03E86000130870020009B
:1005D8005208810001302100D1070030D23D2000AF
:1005E8004D08D20021005108A03E86000130870046
:1005F80020005208810001302100D1070030D23D8F
:1006080045082000D20021005108A03E8600013094
:10061800870020005208810001302100D1070030F6
:10062800D23D20004C08D20021005108A03E86008F
:1006380001308700200052088100FD302100D107D9
:10064800FF30D23D313020005106031DFC2B210024
:100658005108A03E8B31A82381311A302000D200E6
:10066800F830890B352BD20B352B000028302900A8
:10067800920006302000D2003030890B412BD20B7B
:10068800412B000068302900920006302000D2007B
:100698003030890B4D2BD20B4D2B000020004C081D
:1006A800103E2900920006302000D2003030890B1D
:1006B8005B2BD20B5B2B000020004D082900920019
:1006C80006302000D2003030890B682BD20B682B03
:1006D800000030302900920006302000D20030306F
:1006E800890B742BD20B742B000030302900920038
:1006F80006302000D2003030890B802BD20B802BA3
:10070800000030302900920006302000D20030303E
:10071800890B8C2BD20B8C2B0000293029009200DE
:10072800FC2B2100530C2000031C9010031890147C
:1007380008002100530C2000031C1010031810148B
:1007480008002100530C2500031C0D1003180D147C
:1007580008002100530C2500031C8D1103188D156A
:1007680008002100530C2500031C0D1203180D1658
:1007780008002100530C2500031C0C1303180C1748
:1007880008002100530C2500031C8C1203188C163A
:10079800080021005408D6005308D500EE2B250088
:1007A8008C150800BF308E31512681312000290870
:1007B8002100DA00200028082100D900C2308E313B
:1007C8005126200029082100D800200028082100EF
:1007D800D70008005408003A0319F32B0F2C5308CC
:1007E800003A0319D32B013A0319D62B0F2C080012
:1007F80021005008003A0319022C0F2C4F08FF3E25
:10080800031C08008400083004020318080088311B
:100818000435003E8200080029302000DB009630B5
:10082800DA007F30890B162CDA0B162CDB0B162C12
:100838002000E401E501E201E301E001E10121001A
:10084800E301E401E101E201DF01E001DD01DE0194
:10085800DB01DC0125008C118C310D2484318731BA
:10086800ED27843120006A036B04031DB92CEA01CB
:10087800EB01253022002006031D7E2C25302106A1
:10088800031D7E2C40302E06031D7E2C40302F0683
:10089800031D7E2C8B310C2384318C3163248431ED
:1008A80022005F082000DA005A08CC002200600805
:1008B8002000DB005B08CD00220061082000DC007E
:1008C8005C08CE00220062082000DD005D08CF0031
:1008D800220063082000DE005E08D00022006408C1
:1008E8002000DF005F08D10022005E088131052169
:1008F8008431B92C24302000A0009030A1008B3125
:100908007323843123009D131D12DE01DF015F086C
:10091800803A2000DA0080305A02031D962C0F30EE
:1009280023005E020318B62C23302000DA002300CF
:100938005E08203E86000130870020005A088100AA
:1009480001302300DE070030DF3D5F08803A2000D9
:10095800DA0080305A02031DB42C0F3023005E02E7
:10096800031C982C23001D169D172000660367049E
:10097800031D362CE601E7012300DA01DB01DC0167
:10098800DD01283022003206031DFD2C29303906EE
:10099800031DFD2C28303206031DDB2C23005A08CA
:1009A8005B04031DDB2C0130DC000030DD00293046
:1009B80022003906031D362C23005C035D04031D49
:1009C800362C8C3195248431403022006806031976
:1009D800362C69082000DA005A08A30022006808AB
:1009E80085313A2584312300DA01DB01DC01DD01A0
:1009F800362C24302000A0009030A1008B317323C6
:100A080084312900951315122300E001E1016108E2
:100A1800803A2000DA0080305A02031D162D083073
:100A2800230060020318362D23302000DA0023004B
:100A38006008323E86000130870020005A08810095
:100A480001302300E0070030E13D6108803A2000D2
:100A5800DA0080305A02031D342D0830230060026A
:100A6800031C182D290015169517362C2000A800F0
:100A78000130E4000030E5000130E2000030E3001E
:100A88000130E0000030E10001302100E3000030D7
:100A9800E4000130E1000030E2000130DF00003006
:100AA800E0000130DD000030DE000130DB00003006
:100AB800DC0020002308D03EA900FF3003180030D6
:100AC800AA002808C03EA600FF3003180030A7007F
:100AD8002608303EA4002408A50068036904031D05
:100AE8003C2EE801E901080064036504031D0800C1
:100AF800303022004306031D080020002308A4000C
:100B08002408A00031308C31C7242000290C031C94
:100B1800901003189014E401E501080062036304CF
:100B2800031D0800303022004406031D0800200081
:100B38002308A4002408A00032308C31C7242000E8
:100B4800290C031C101003181014E201E30108001B
:100B580060036104031D0800303022004506031DB0
:100B6800080020002308A4002408A00033308C319A
:100B7800C7242000290C2500031C0D1003180D1490
:100B88002000E001E1010800210063036404031D63
:100B98000800303022004606031D08002000230804
:100BA800A4002408A00034308C31C7242000290C6C
:100BB8002500031C8D1103188D152100E301E401A4
:100BC8000800210061036204031D08003030220080
:100BD8004706031D080020002308A4002408A000DD
:100BE80035308C31C7242000290C2500031C0D1238
:100BF80003180D162100E101E201080021005F033E
:100C08006004031D0800303022004806031D080058
:100C180020002308A4002408A00036308C31C72403
:100C28002000290C2500031C0C1303180C172100A5
:100C3800DF01E001080021005D035E04031D0800D8
:100C4800303022004906031D080020002308A400B4
:100C58002408A00037308C31C7242000290C250037
:100C6800031C8C1203188C162100DD01DE0108001C
:100C780020002808BF3E031C080084000830040236
:100C88000318080088310435103E82000800080067
:100C980020002808AE002908AF002A08B000031079
:100CA8002F0D300DB1003108B2003208031D632E3C
:100CB8000030A8000030A9000030AA0008002B0866
:100CC800AE002C08AF002D08B00003102F0D300D1A
:100CD800B1003108B7003708031D792E0030A8008D
:100CE8000030A9000030AA00080037087B3EAE009B
:100CF8002E08B2072808AE002908AF002A08B0005D
:100D08001030B036AF0CAE0C890B852E2E08B10012
:100D18003108B7002B08AE002C08AF002D08B00032
:100D28001030B036AF0CAE0C890B952E2E08B100E2
:100D38003108B7068030AE002E08B705A917AC17E2
:100D4800FF30AB05FF30AC050030AD050030B30017
:100D58000030B4000030B5000730AE002E08B600F1
:100D6800281CBC2E2B08B3072C08B43D2D08B53D14
:100D78000130AA36A90CA80C890BBD2E0130AB3561
:100D8800AC0DAD0D890BC32E0130B602031DB42E78
:100D98000930AE002E08B600281CD82E2B08B30741
:100DA8002C08B43D2D08B53D0130AA36A90CA80C75
:100DB800890BD92E0130B536B40CB30C890BDF2E54
:100DC8000130B602031DD02E3308A0003408A1005C
:100DD8003508A2003208AE002E08A3003708AF007D
:100DE8002F08A4008D31812520002008A8002108A3
:100DF800A9002208AA0008002000B8002A30AE0086
:100E08002E08B4002908AF002808AE00A80A031964
:100E1800A90A2E0884002F0885000008B0003008B1
:100E2800B90039080319AE2F253039060319282FC0
:100E38003908AE003808860087012E088100013085
:100E4800AE002E08B807062FB2012908AF002808FF
:100E5800AE00A80A0319A90A2E0884002F088500E5
:100E68000008B900003A0319AE2F583A0319402F69
:100E7800203A0319402F062F340886008701403F87
:100E8800B500413FB6000230AE002E08B407B901E4
:100E9800B90A043039060319702F3908AE00AF01BA
:100EA800AE35AF0D00302E07840090302F3D850001
:100EB800003FB000013FB10031083602031D662F24
:100EC80030083502031C702F0130AE002E08B90718
:100ED80004303906031D512F3908AE002E08B7001B
:100EE800FF30AE002E08B707370A0319062F370858
:100EF800AE00AF01AE35AF0D00302E078400903044
:100F08002F3D8500003FA000013FA1003608A30047
:100F18003508A2008C31FC248731200020080F39C5
:100F2800B0003008B3003308083E8400903003183E
:100F3800013E85000008AE002E08B9003908AE0051
:100F48003808860087012E0881000130AE002E087F
:100F5800B807742F380886008701810108002334F8
:100F680000340034003400340034003400340034D9
:100F780000340034003400340034003400340034C9
:100F880000340034003400340034003400340034B9
:100F980000340034003400340034003400340034A9
:100FA8000034003400340034003400340034003499
:100FB8000034003400340034003400340034003489
:100FC8000034003400340034003400340034003479
:100FD80000348B315D2387318B31472387318A3148
:100FE800E32287318A31D92287318A31C522873174
:060FF8008A31CF2208003F
:101000008331952B83319D2B8331A52B8331AD2BE0
:101010008331B52B8331BD2B8331C52B8331CD2B50
:101020008531782D8531922D8531AC2D8531C82DB6
:101030008531E52D8631022E86311F2E86314B2ECD
:10156A002334003423340034640080010131890BB0
:10157A00BA2A0034FE0012001E00FE0BC02A0034F4
:10158A0084302C009F009E019D01200094132100AD
:10159A009417080084302C009C00980197012000C1
:1015AA009411210094150800083020009C009A012B
:1015BA009110210091148B170B1708002000980135
:1015CA009901970196011110210011148B170B171D
:1015DA00080020009010101025000D108D110D121A
:1015EA000C138C120C128C150C148C140C1508008C
:1015FA002000A100A0013A30210203180A2B303042
:10160A002102031C0A2BA001A00A200C08002500B5
:10161A008C1003302000A1000830A0007730890B1D
:10162A00142BA00B142BA10B142B25008C140800CF
:10163A00700884007108850012000319080023004D
:10164A009E1C242B700884007108850000089A00EB
:10165A000130F0070030F13D1D2B28008D012900D3
:10166A008D0128008C0123009001240090012300A1
:10167A008F0124008F0123008D0124008D01230096
:10168A008C0108002100941214120A3029009700D4
:10169A009030950024309600A030930001309400D9
:1016AA008B170B1721009416290096169517080018
:1016BA002100911211120A3023009F0090309D00E0
:1016CA0024309E00A0309B0001309C008B170B1722
:1016DA002100911623009E169D170800200020085D
:1016EA0084002108850012000319080023009E1CAB
:1016FA007B2B200020088400210885000008230095
:10170A009A0001302000A0070030A13D732B200071
:10171A00A401A501201C952B2208A4072308A53D96
:10172A000130A235A30D890B962B0130A136A00CEE
:10173A00890B9B2B20082104031D8F2B2508A10050
:10174A002408A00008002000A300A101A20104307F
:10175A00210622040319080023009E1CB12B200035
:10176A002308860001308700010823009A0001300F
:10177A002000A0002008A3070130A1070030A23DE5
:10178A00AC2B2000AD01A91FD12BA809A909A80AD1
:10179A000319A90AAD01AD0A2808A0002908A10069
:1017AA00A2018E30AB002B08A3002D08AC002C0838
:1017BA00A4008D31812520002008A8002108A90055
:1017CA002208AA0008002000A6002608A200220873
:1017DA00A70027088600870101080319F92B0130A1
:1017EA00A2002208A707EE2B2608A2000030A300B9
:1017FA00A209A309A20A0319A30A2708A400003010
:10180A00A50022082407A0002308253DA1000800FE
:10181A008A31EE228C318B3132238C3121000F1721
:10182A008F170D148D140D158D150D168D1690101C
:10183A00101026000D108D110D120C138C120C12A3
:10184A008C110C108C100C112100901510160E130F
:10185A008E1726008D108D148A31EE220800200082
:10186A00A4002408A3002308A500210822040319C0
:10187A00582C0130A1020030A23B250886008701BE
:10188A00A50A200884008501A00A0008C03F89082B
:10189A000319582C3A2C250886008701810101304A
:1018AA00A3002308A5070130A1020030A23B210AA8
:1018BA00031D502C220A03190800502C0230200064
:1018CA00A1000030A2000230A1000030A2002208CC
:1018DA00803AA00080302002031D752C09302102B5
:1018EA000318080020002108203E860001308700E6
:1018FA000108A0002108FE3E5E3E860001308700F6
:10190A00200881002330A0002108203E86000130F3
:10191A008700200881000130A1070030A23D6C2C0D
:10192A0002302000A1000030A2000230A1000030E5
:10193A00A2002208803AA00080302002031DA72CB2
:10194A00053021020318080020002108323E8600D3
:10195A00013087000108A0002108FE3E683E86008B
:10196A0001308700200881003B30A0002108323E68
:10197A00860001308700200881000130A10700306D
:10198A00A23D9E2C2000A2001A302000A100F830AF
:10199A00890BCD2CA10BCD2C0000523023009A00CC
:1019AA0006302000A1003030890BD92CA10BD92C8C
:1019BA0000002000200823009A0006302000A10021
:1019CA003030890BE62CA10BE62C000030302300C6
:1019DA009A0006302000A1003030890BF22CA10BAE
:1019EA00F22C00002000220823009A0008002000A0
:1019FA00A601A7012008210403192C2DA501A50A77
:101A0A00A11B112D0130A035A10D890B082D013024
:101A1A00A4002408A507052D0130A635A70D890BBA
:101A2A00122D21082302031D1C2D20082202031C4B
:101A3A00232D2008A2022108A33B26140130A13637
:101A4A00A00C890B242D0130A502031D112D270896
:101A5A00A1002608A0000800233400340034003412
:101A6A0000340034003400340034003400340034CC
:101A7A000034003400340034003400342334003499
:101A8A0000340034003400340034003400340034AC
:101A9A00003400340034003400340034303430343C
:101AAA00303430343034303430343034303430340C
:101ABA00303430340034003430343034303430345C
:101ACA0030343034303430343034303430343034EC
:101ADA000034003423340034003400340034003439
:101AEA000034003400340034233400340034003429
:101AFA0000340034003400342000230803198A2DEE
:101B0A00220821042004031D9B2D0030A000003070
:101B1A00A1000030A20008000130A5002508A30793
:101B2A000130A236A10CA00C890B962DFE3022059D
:101B3A000319B42D912D0130A5002508A307013002
:101B4A00A007003003180130A10700300318013044
:101B5A00A2070130A236A10CA00C890BAF2DFF30D1
:101B6A0022050319C12DA02D0130A3020130A03591
:101B7A00A10DA20D890BBC2DA11BC72D023023027A
:101B8A000318B92D2318CF2DFF30A0057F30A105EA
:101B9A00FF30A2050310A30C2308A500A601A70184
:101BAA001030A535A60DA70D890BD62D2508A00442
:101BBA002608A1042708A204240803190800A2176A
:101BCA0008002000AD002D0886008701203001069C
:101BDA00031DF42D0130A8002808AD07E82D2D08B3
:101BEA0086008701093001060319EF2DAB01AC010C
:101BFA00AA012D08860087012D300106031D0A2E31
:101C0A000130A8002808AA07112E2D08860087018E
:101C1A002B300106031D152E0130A8002808AD0738
:101C2A002D088600870101088A31FD228D31031CA7
:101C3A003C2E20002C08A1002B08A0000A30A2008C
:101C4A000030A3008B318C238D3120002D088600B3
:101C5A00870101082007A80021080318210AA90002
:101C6A002808D03EAB00FF30293DAC00112E2000E1
:101C7A002A0803194C2E2B09A8002C09A900A80A26
:101C8A000319A90A2808A6002908A70008002C0891
:101C9A00A7002B08A60008002000B20032088B31EA
:101CAA00E8238E3120002108AD002008AC00013065
:101CBA00B0000030B100AE01AF012C08FF3EB30006
:101CCA00FF302D3DB400B41BCB2E33083207AA00D7
:101CDA002A088600870130300102031C872E330848
:101CEA003207AA002A08860087013A30010203183F
:101CFA00872E33083207AA002A08860087010108BE
:101D0A00D03EA32E33083207AA002A08860087018C
:101D1A0041300102031CC52E33083207AA002A08E3
:101D2A0086008701473001020318C52E330832079F
:101D3A00AA002A08860087010108C93EA000FF30D0
:101D4A0003180030A1003108A3003008A2008B312B
:101D5A008C238E3120002008AE072108AF3D3108C0
:101D6A00AB003008AA00AA0EAB0EF030AB052A0869
:101D7A000F39AB04F030AA052A08B0002B08B100CD
:101D8A00FF30B307FF30B43DB41F6A2E2F08A900F5
:101D9A002E08A800080020003E08C2003F08C30021
:101DAA004008C4000310430D440DC5004508CB008C
:101DBA004B08031DE92E0030C1000030C00000307E
:101DCA00BF000030BE0008003E08C2003F08C30042
:101DDA004008C4001730C436C30CC20C890BF02E5D
:101DEA004208C5004508C600BF17FF30BE05FF30D0
:101DFA00BF050030C0053E08C7003F08C8004008BC
:101E0A00C900CA018E30CB02CB1F272F4B08803A5C
:101E1A008F3E0318192F0030C1000030C000003077
:101E2A00BF000030BE0008000130CA36C90CC80C19
:101E3A00C70C890B1A2F0130C2004208CB070319BD
:101E4A00402F192F18304B02031C3D2F0030C100C0
:101E5A000030C0000030BF000030BE000800013072
:101E6A00C735C80DC90DCA0D890B352F0130CB02F4
:101E7A004B08031D342F460803194E2FC709C809FA
:101E8A00C909CA09C70A0319C80A0319C90A0319D9
:101E9A00CA0A4A08C1004908C0004808BF004708E2
:101EAA00BE00080020003108B4003208B50033082B
:101EBA00B6000310350D360DB7003708BC003C08D4
:101ECA00031D6E2F0030AE000030AF000030B000AE
:101EDA0008002E08B4002F08B5003008B600031019
:101EEA00350D360DB7003708BD003D08031D842F98
:101EFA000030AE000030AF000030B0000800003003
:101F0A00B9000030BA000030BB0089303D07B40088
:101F1A003408BC023108B4003208B5003308B600F0
:101F2A001030B636B50CB40C890B962F3408B700AE
:101F3A003708BD002E08B4002F08B5003008B600D7
:101F4A001030B636B50CB40C890BA62F3408B7007E
:101F5A003708BD068030B4003408BD05B217FF301B
:101F6A00B105FF30B2050030B305AF17FF30AE053B
:101F7A00FF30AF050030B0051830B4003408B8009F
:101F8A000130B935BA0DBB0D890BC62F30083302A3
:101F9A00031DD52F2F083202031DD52F2E0831021B
:101FAA00031CDE2F2E08B1022F08B23B3008B33BC8
:101FBA0039140130B135B20DB30D890BDF2F013061
:101FCA00B802031DC52F3908A0003A08A1003B0832
:101FDA00A2003C08B4003408A3003D08B500350847
:101FEA00A4008D31812520002008AE002108AF0011
:101FFA002208B000080001340034103400340034E0
:10200A00013400341034303431343234333434341B
:10201A00353436343734383439344134423443343D
:10202A0044344534463400344534523452344F34FF
:10203A005634003452344534523452340034453420
:10204A0052344C34533400344534523452345434B8
:10205A000034453452344F34563400344534523403
:10206A00523458340034253458340034233400347C
:020000040001F9
:04000E00A2C9FFDDA7
:00000001FF
