:0400000080317C28A7
:100008007E14803120007F08F400911E4B282300C5
:100018009D1C17281D121D161E30F0009030F1008F
:100028008A31F222803123001908F3007708203E34
:1000380086000130870073088100253022002006E1
:10004800031D3F280130F7070030F83D7808803A53
:10005800F30080307302031D332810307702031C2D
:100068004B2801302100ED000030EE00F701F801C7
:10007800200091124B2823001D121D16F701F801CC
:100088002330F0009030F1008A31F22280312100D3
:10009800911C56282000911C5628911025008C117F
:1000A80020001C112100111C64282000111C642848
:1000B800111025008C159F3020009B001C1518106E
:1000C8002000941B941F7828941F782894132100EB
:1000D80067036804031D73286B082000970021003C
:1000E80069082000960018147408FF007E100900A3
:1000F80080317E28CC3084008A308500D530860057
:100108000030870012308A3168228031F53084004F
:100118008B30850020308600013087002A308A31F4
:10012800682280311B3084008D308500A030860025
:10013800013087003A308A3168228031F501F601B2
:10014800F701F801603084000030850010308A31F2
:1001580062228031E73084000030850008308A311F
:1001680062227E1020008031B92829302000DB006F
:100178009630DA007F30890BBF28DA0BBF28DB0BFB
:10018800BF2801302000EE000030EF000130EC0005
:100198000030ED000130EA000030EB000130E800EB
:1001A8000030E9000130E6000030E7000130E400EB
:1001B8000030E5000130E2000030E3000130E000EB
:1001C8000030E1000130F5000030F6008B31CE231D
:1001D80080318A318C22803121006D036E04031D29
:1001E8007429ED01EE01253022002006031D38296F
:1001F80025302106031D382940302E06031D3829D5
:1002080040302F06031D38298A31AA2280318C31CB
:100218004E248031220041082000DA005A08CC0020
:10022800220042082000DB005B08CD0022004308C2
:100238002000DC005C08CE00220044082000DD001D
:100248005D08CF00220045082000DE005E08D000CF
:10025800220046082000DF005F08D1002200400885
:10026800843112248031742919302000A000903084
:10027800A1008B313223803123009D131D122200EF
:10028800CA01CB014B08803A2000DA0080305A02BC
:10029800031D51290F3022004A0203187129233007
:1002A8002000DA0022004A08203E8600013087003C
:1002B80020005A08810001302200CA070030CB3DD7
:1002C8004B08803A2000DA0080305A02031D6F295B
:1002D8000F3022004A02031C532923001D169D17C4
:1002E80001302200CC000030CD003030210056060D
:1002F800031D9F2920000F1B9F296E086F04031DF3
:100308009F2922004C034D04031D9729013020002A
:10031800A0000030A1008C31B32480318A31BB2287
:100328008031200010142200CC01CD0101302000C2
:10033800EE000030EF00303021005606031DC329BF
:1003480020000F1FC3296E036F04031DC329220059
:100358004C034D04031DBD2901302000A0000030CE
:10036800A1008C31802480318A31BB228031200069
:1003780010102200CC01CD012000EE01EF01303039
:1003880021005706031DE92920008F1BE9296C0865
:100398006D04031DE92922004C034D04031DE129C6
:1003A80002302000A0000030A1008C31B32480313D
:1003B8008A31BB228031200090142200CC01CD016B
:1003C80001302000EC000030ED00303021005706ED
:1003D800031D0D2A20008F1F0D2A6C036D04031DB9
:1003E8000D2A22004C034D04031D072A0230200069
:1003F800A0000030A1008C31802480318A31BB22DA
:100408008031200090102200CC01CD012000EC01A9
:10041800ED01303021005806031D332A20000D1845
:10042800332A6A086B04031D332A22004C034D0447
:10043800031D2B2A03302000A0000030A1008C31BE
:10044800B32480318A31BB22803125000D1422006B
:10045800CC01CD0101302000EA000030EB00303043
:1004680021005806031D572A20000D1C572A6A032D
:100478006B04031D572A22004C034D04031D512A07
:1004880003302000A0000030A1008C31802480318E
:100498008A31BB22803125000D102200CC01CD010C
:1004A8002000EA01EB01303021005906031D7D2AA6
:1004B80020008D187D2A68086904031D7D2A220002
:1004C8004C034D04031D752A04302000A0000030A1
:1004D800A1008C31B32480318A31BB2280312500C0
:1004E8008D152200CC01CD0101302000E80000303C
:1004F800E900303021005906031DA12A20008D1C77
:10050800A12A68036904031DA12A22004C034D0493
:10051800031D9B2A04302000A0000030A1008C316C
:10052800802480318A31BB22803125008D11220040
:10053800CC01CD012000E801E901303021005A0644
:10054800031DC72A20000D19C72A66086704031D62
:10055800C72A22004C034D04031DBF2A0530200082
:10056800A0000030A1008C31B32480318A31BB2235
:10057800803125000D162200CC01CD01013020006C
:10058800E6000030E700303021005A06031DEB2A50
:1005980020000D1DEB2A66036704031DEB2A2200C9
:1005A8004C034D04031DE52A05302000A00000304F
:1005B800A1008C31802480318A31BB228031250012
:1005C8000D122200CC01CD012000E601E7013030F8
:1005D80021005B06031D112B20008D19112B6408C7
:1005E8006504031D112B22004C034D04031D092B28
:1005F80006302000A0000030A1008C31B3248031E7
:100608008A31BB22803125000C172200CC01CD0194
:1006180001302000E4000030E500303021005B06A6
:10062800031D352B20008D1D352B64036504031D28
:10063800352B22004C034D04031D2F2B06302000C0
:10064800A0000030A1008C31802480318A31BB2287
:10065800803125000C132200CC01CD012000E401DB
:10066800E501303021005C06031D5B2B20000D1ACC
:100678005B2B62086304031D5B2B22004C034D04B3
:10068800031D532B07302000A0000030A1008C313F
:10069800B32480318A31BB22803125008C16220098
:1006A800CC01CD0101302000E2000030E300303001
:1006B80021005C06031D7F2B20000D1E7F2B62038B
:1006C8006304031D7F2B22004C034D04031D792B6B
:1006D80007302000A0000030A1008C318024803138
:1006E8008A31BB22803125008C122200CC01CD0139
:1006F8002000E201E301303021005D06031DA52B37
:1007080020008D1AA52B60086104031DA52B22006B
:100718004C034D04031D9D2B08302000A000003021
:10072800A1008C31B32480318A31BB22803125006D
:100738000C162200CC01CD0101302000E000003071
:10074800E100303021005D06031DC92B20008D1EFD
:10075800C92B60036104031DC92B22004C034D04FF
:10076800031DC32B08302000A0000030A1008C31ED
:10077800802480318A31BB22803125000C1222006E
:10078800CC01CD012000E001E101303021005E06FE
:10079800031DEE2B20008F1AEE2B75087604031D1F
:1007A800EE2B22004C034D04031DE72B0A302000DA
:1007B800A0000030A1008C31B32480318A31BB22E3
:1007C800803125008C112200CC01CD010130F500CB
:1007D8000030F600303021005E06031DF0282000AE
:1007E8008F1EF02875037604031DF02822004C03A1
:1007F8004D04031D0C2C0A302000A0000030A1007D
:100808008C31802480318A31BB22803125008C15BF
:100818002200CC01CD01F501F601F0282100C50028
:10082800CF01D001D301D401CB01CC01D101D20138
:10083800A001A1010030C8000030C9000030CA0082
:100848000030BA000030B9000030B8000030B700FE
:100858000030BE000030BD000030BC000030BB00DE
:100868000030B0000030AF00FF30AE00FF30AD0008
:100878000030B100A030B2004130B3000030B40005
:100888008030B5003E30B600A201A301A401A50145
:10089800A8308B31A923843120002008FF3E210095
:1008A800A600FF302000213D2100A7006608C700F0
:1008B8006508C6006408CE006308CD00450820001E
:1008C800D20052082100C60020004C08D20052086D
:1008D8002100C700C6308D31BA2584312000270891
:1008E8002100D000200026082100CF0020004D085C
:1008F800D03E2100D300FF3003180030D400200080
:100908004E08D20052082100CD0020004F08D20026
:1009180052082100CE00CD308D31BA258431200017
:1009280027082100CC00200026082100CB00200049
:100938004E08D20052082100CD0020004F08D200F6
:1009480052082100CE00CD308D31BA2584312000E7
:1009580027082100CC00200026082100CB004B09E5
:100968002000D20021004C092000D300D20A03192C
:10097800D30A5208633E2100CB0000302000533DCB
:100988002100CC0031082000AE00210032082000F0
:10099800AF00210033082000B00021004C082000DF
:1009A800A90021004B082000A8008B31872384313F
:1009B80020002808B1002908B2002A08B3008E31A7
:1009C800A426843120002E082100C80020002F080A
:1009D8002100C900200030082100CA000030200092
:1009E800A8007A30A9004430AA0021004808200055
:1009F800AB00210049082000AC0021004A08200073
:100A0800AD008631B9268431200028082100C800AD
:100A1800200029082100C90020002A082100CA0056
:100A280048082000B100210049082000B200210038
:100A38004A082000B300210034082000AE0021003D
:100A480035082000AF00210036082000B0008E31A4
:100A5800A426843120002E08BE002F08BF003008CD
:100A6800C00087316D278431200041082100BA0079
:100A7800200040082100B90020003F082100B800EC
:100A880020003E082100B7002D082000D2002100D8
:100A98002E082000D30021002F082000D4002100B8
:100AA80030082000D500210037092000D600210099
:100AB80038092000D700210039092000D80021007A
:100AC8003A092000D900D60A0319D70A0319D80A07
:100AD8000319D90A5608D2075708D33D5808D43DF8
:100AE8005908D53D55082100BE00200054082100B2
:100AF800BD00200053082100BC002000520821003E
:100B0800BB0028302000A8009030A90021003E0832
:100B18002000AD0021003D082000AC0021003C0869
:100B28002000AB0021003B082000AA00A8308F312C
:100B38004D278431A8302000D2005208A00002308E
:100B4800A1000030A200BF308C311F248431210065
:100B5800C101AA302000D2005208A0000230A10032
:100B68000030A200C2308C311F2484312100C4011E
:100B780020005008D20021004F08323E8600013084
:100B8800870020005208810021004F08323E86006D
:100B98000130870001082000D20021004F08D53E0F
:100BA800860087012000520881002100500820009B
:100BB800D30021004F082000D200D235D30DD23502
:100BC800D30D5208FC3E2100D100FF302000533DD8
:100BD8002100D20047302000D20021005108A03E59
:100BE8008600013087002000520881000130210072
:100BF800D1070030D23D20004D08D2002100510815
:100C0800A03E860001308700200052088100013094
:100C18002100D1070030D23D45082000D200210034
:100C28005108A03E8600013087002000520881004C
:100C380001302100D1070030D23D20004C08D200FD
:100C480021005108A03E860001308700200052088C
:100C58008100FD302100D107FF30D23D3130200026
:100C68005106031DA52E21005108A03E8B31672394
:100C78008431A52E2100530C2000031C10100318EA
:100C8800101408002100530C2000031C90100318B6
:100C9800901408002100530C2500031C0D100318A4
:100CA8000D1408002100530C2500031C8D11031896
:100CB8008D1508002100530C2500031C0D12031884
:100CC8000D1608002100530C2500031C0C130318F3
:100CD8000C1708002100530C2500031C8C12031864
:100CE8008C16080021005408E8005308E700972EE6
:100CF80025008C150800BF308E3125268431200050
:100D080029082100EC00200028082100EB00C2304F
:100D18008E312526200029082100EA002000280815
:100D28002100E90008005408003A03199C2EB82E47
:100D38005308003A03197C2E013A03197F2EB82E66
:100D4800080021005008003A0319AB2EB82E4F08AE
:100D5800FF3E031C08008400083004020318080042
:100D680088310435003E8200080020002808AE00C3
:100D78002908AF002A08B00003102F0D300DB1006C
:100D88003108B2003208031DD02E0030A800003010
:100D9800A9000030AA0008002B08AE002C08AF00FC
:100DA8002D08B00003102F0D300DB1003108B70029
:100DB8003708031DE62E0030A8000030A9000030D7
:100DC800AA00080037087B3EAE002E08B2072808A4
:100DD800AE002908AF002A08B0001030B036AF0CBA
:100DE800AE0C890BF22E2E08B1003108B7002B0883
:100DF800AE002C08AF002D08B0001030B036AF0C94
:100E0800AE0C890B022F2E08B1003108B7068030CE
:100E1800AE002E08B705A917AC17FF30AB05FF3099
:100E2800AC050030AD050030B3000030B400003030
:100E3800B5000730AE002E08B600281C292F2B0855
:100E4800B3072C08B43D2D08B53D0130AA36A90CCE
:100E5800A80C890B2A2F0130AB35AC0DAD0D890BD1
:100E6800302F0130B602031D212F0930AE002E08A5
:100E7800B600281C452F2B08B3072C08B43D2D08B5
:100E8800B53D0130AA36A90CA80C890B462F0130B4
:100E9800B536B40CB30C890B4C2F0130B602031DC8
:100EA8003D2F3308A0003408A1003508A2003208FD
:100EB800AE002E08A3003708AF002F08A4008D311C
:100EC800552520002008A8002108A9002208AA000A
:100ED800080020003E08C2003F08C3004008C400C4
:100EE8000310430D440DC5004508CB004B08031DF6
:100EF800862F0030C1000030C0000030BF00003035
:100F0800BE0008003E08C2003F08C3004008C400F5
:100F18001730C436C30CC20C890B8D2F4208C5008C
:100F28004508C600BF17FF30BE05FF30BF050030BB
:100F3800C0053E08C7003F08C8004008C900CA01EC
:100F48008E30CB02CB1FC42F4B08803A8F3E03183C
:100F5800B62F0030C1000030C0000030BF000030A4
:100F6800BE0008000130CA36C90CC80CC70C890B72
:100F7800B72F0130C2004208CB070319DD2FB62F67
:100F880018304B02031CDA2F0030C1000030C000BB
:100F98000030BF000030BE0008000130C735C80D62
:100FA800C90DCA0D890BD22F0130CB024B08031D86
:100FB800D12F46080319EB2FC709C809C909CA095F
:100FC800C70A0319C80A0319C90A0319CA0A4A0829
:100FD800C1004908C0004808BF004708BE00080013
:100FE8002000980199019701960111102100111410
:060FF8008B170B17080027
:1010000086313E2E8631462E86314E2E8631562E24
:1010100086315E2E8631662E86316E2E8631762E94
:1014C400640080010131890B632A0034FE0012009C
:1014D4001E00FE0B692A003484302C009F009E01FC
:1014E4009D012000941321009417080084302C00DF
:1014F4009C00980197012000941121009415080084
:10150400083020009C009A019110210091148B173F
:101514000B1708008B311C238A318731F4278A3159
:101524008A3182228A318A316E228A318A31782242
:1015340008002000A100A0013A3021020318A82AC3
:1015440030302102031CA82AA001A00A200C0800A4
:1015540025008C1003302000A1000830A000773053
:10156400890BB22AA00BB22AA10BB22A25008C1433
:10157400080025000C1003302000A1000830A00052
:101584007730890BC32AA00BC32AA10BC32A2500D9
:101594000C140800303430343034303430343034C7
:1015A4003034303430343034303430340034003477
:1015B400233400342334003420001010901025000C
:1015C4000D108D110D120C138C120C120C148C14A2
:1015D4000C1520000F128F110F1125008C1108001B
:1015E40070088400710885001200031908002300A4
:1015F4009E1CF92A700884007108850000089A006E
:101604000130F0070030F13DF22A28008D01290055
:101614008D0128008C0123009001240090012300F7
:101624008F0124008F0123008D0124008D012300EC
:101634008C0108002100911211120A3023009F002E
:1016440090309D0024309E00A0309B0001309C000F
:101654008B170B172100911623009E169D17080067
:1016640020002008840021088500120003190800C6
:1016740023009E1C3A2B20002008840021088500AA
:10168400000823009A0001302000A0070030A13D8B
:10169400322B2000A401A501201C542B2208A407EE
:1016A4002308A53D0130A235A30D890B552B01302C
:1016B400A136A00C890B5A2B20082104031D4E2BA4
:1016C4002508A1002408A00008002000A300A1010F
:1016D400A2012308860001308700010803190800CD
:1016E40023009E1C722B20002308860001308700F3
:1016F400010823009A0001302000A0002008A3075D
:101704000130A1070030A23D6B2B2000AD01A91FC1
:10171400922BA809A909A80A0319A90AAD01AD0ABF
:101724002808A0002908A100A2018E30AB002B08D4
:10173400A3002D08AC002C08A4008D3155252000F1
:101744002008A8002108A9002208AA0008002000F7
:10175400A6002608A2002208A70027088600870101
:1017640001080319BA2B0130A2002208A707AF2BE6
:101774002608A2000030A300A209A309A20A0319A3
:10178400A30A2708A4000030A50022082407A0000B
:101794002308253DA10008008A31DE228B318B31DC
:1017A40007238B3121000F178F170D148D140D157E
:1017B4008D150D168D168F161010901026000D1015
:1017C4008D110D120C138C120C128C11210090151A
:1017D400101626000C108C100C1121000E138E17FD
:1017E4008A31DE220800233400340034003400340B
:1017F4000034003400340034003400340034003445
:1018040000340034003400340034303430343034A4
:1018140030343034303430343034303430343034A4
:1018240030340034003423340034003400340034C1
:10183400003400340034003400342000A4002408B0
:10184400A3002308A500210822040319432C013016
:10185400A1020030A23B250886008701A50A2008C2
:1018640084008501A00A0008C03F89080319432C9D
:10187400252C25088600870181010130A300230857
:10188400A5070130A1020030A23B210A031D3B2C15
:10189400220A031908003B2C02302000A10000306A
:1018A400A2000230A1000030A2002208803AA00069
:1018B40080302002031D602C093021020318080027
:1018C40020002108203E8600013087000108A00086
:1018D4002108FE3E403E860001308700200881003A
:1018E4002330A0002108203E860001308700200814
:1018F40081000130A1070030A23D572C5230230053
:101904009A0006302000A2003030890B872CA20BED
:10191400872C0000303023009A0006302000A200FB
:101924003030890B932CA20B932C00003030230011
:101934009A0006302000A2003030890B9F2CA20BA5
:101944009F2C000020002008303E23009A0006301F
:101954002000A2003030890BAD2CA20BAD2C00006E
:101964000800523023009A0006302000A2003030D4
:10197400890BBA2CA20BBA2C0000313023009A0038
:1019840006302000A2003030890BC62CA20BC62CD6
:101994000000303023009A0006302000A2003030CE
:1019A400890BD22CA20BD22C000020002008303E40
:1019B40023009A0006302000A2003030890BE02C6E
:1019C400A20BE02C000008002000A601A7012008BB
:1019D40021040319162DA501A50AA11BFB2C013016
:1019E400A035A10D890BF22C0130A4002408A50711
:1019F400EF2C0130A635A70D890BFC2C21082302FE
:101A0400031D062D20082202031C0D2D2008A2020E
:101A14002108A33B26140130A136A00C890B0E2DFE
:101A24000130A502031DFB2C2708A1002608A000F5
:101A3400080023340034003400340034003400340B
:101A440000340034003400340034003400340034F2
:101A540000340034003400340034003400340034E2
:101A640000340034003400340034003400340034D2
:101A740000340034003400340034003400340034C2
:101A840000340034003400340034003400340034B2
:101A940000340034003400340034003400340034A2
:101AA4000034003400342000230803195E2D22087A
:101AB40021042004031D6F2D0030A0000030A1007C
:101AC4000030A20008000130A5002508A30701305A
:101AD400A236A10CA00C890B6A2DFE302205031935
:101AE400882D652D0130A5002508A3070130A00726
:101AF400003003180130A107003003180130A20799
:101B04000130A236A10CA00C890B832DFF302205D5
:101B14000319952D742D0130A3020130A035A10DB8
:101B2400A20D890B902DA11B9B2D023023020318BB
:101B34008D2D2318A32DFF30A0057F30A105FF3084
:101B4400A2050310A30C2308A500A601A7011030C9
:101B5400A535A60DA70D890BAA2D2508A0042608D6
:101B6400A1042708A204240803190800A2170800E6
:101B74002000AD002D088600870120300106031DDA
:101B8400C82D0130A8002808AD07BC2D2D088600FB
:101B94008701093001060319C32DAB01AC01AA0169
:101BA4002D08860087012D300106031DDE2D01302E
:101BB400A8002808AA07E52D2D08860087012B30E8
:101BC4000106031DE92D0130A8002808AD072D08E2
:101BD4008600870101088A319B228D31031C102E57
:101BE40020002C08A1002B08A0000A30A20000301D
:101BF400A3008B314B238D3120002D0886008701F3
:101C040001082007A80021080318210AA9002808B0
:101C1400D03EAB00FF30293DAC00E52D20002A0862
:101C24000319202E2B09A8002C09A900A80A0319BE
:101C3400A90A2808A6002908A70008002C08A7005C
:101C44002B08A60008002000B20032088B31A9231B
:101C54008E3120002108AD002008AC000130B00016
:101C64000030B100AE01AF012C08FF3EB300FF30DD
:101C74002D3DB400B41B9F2E33083207AA002A0856
:101C84008600870130300102031C5B2E33083207C3
:101C9400AA002A08860087013A30010203185B2E45
:101CA40033083207AA002A08860087010108D03EBB
:101CB400772E33083207AA002A08860087014130AC
:101CC4000102031C992E33083207AA002A08860051
:101CD4008701473001020318992E33083207AA00FE
:101CE4002A08860087010108C93EA000FF300318B6
:101CF4000030A1003108A3003008A2008B314B232F
:101D04008E3120002008AE072108AF3D3108AB001A
:101D14003008AA00AA0EAB0EF030AB052A080F3922
:101D2400AB04F030AA052A08B0002B08B100FF303C
:101D3400B307FF30B43DB41F3E2E2F08A9002E0870
:101D4400A800080020003108B4003208B5003308A8
:101D5400B6000310350D360DB7003708BC003C083B
:101D6400031DBB2E0030AE000030AF000030B000C9
:101D740008002E08B4002F08B5003008B600031080
:101D8400350D360DB7003708BD003D08031DD12EB3
:101D94000030AE000030AF000030B000080000306A
:101DA400B9000030BA000030BB0089303D07B400F0
:101DB4003408BC023108B4003208B5003308B60058
:101DC4001030B636B50CB40C890BE32E3408B700CA
:101DD4003708BD002E08B4002F08B5003008B6003F
:101DE4001030B636B50CB40C890BF32E3408B7009A
:101DF4003708BD068030B4003408BD05B217FF3083
:101E0400B105FF30B2050030B305AF17FF30AE05A2
:101E1400FF30AF050030B0051830B4003408B80006
:101E24000130B935BA0DBB0D890B132F30083302BD
:101E3400031D222F2F083202031D222F2E083102E8
:101E4400031C2B2F2E08B1022F08B23B3008B33BE2
:101E540039140130B135B20DB30D890B2C2F01307B
:101E6400B802031D122F3908A0003A08A1003B084C
:101E7400A2003C08B4003408A3003D08B5003508AE
:101E8400A4008D31552520002008AE002108AF00A4
:101E94002208B00008002000B8002A30AE002E0846
:101EA400B4002908AF002808AE00A80A0319A90A3B
:101EB4002E0884002F0885000008B0003008B900FF
:101EC40039080319FB2F253039060319752F3908F2
:101ED400AE003808860087012E0881000130AE006C
:101EE4002E08B807532FB2012908AF002808AE0006
:101EF400A80A0319A90A2E0884002F0885000008DF
:101F0400B900003A0319FB2F583A03198D2F203AD0
:101F140003198D2F532F340886008701403FB500E5
:101F2400413FB6000230AE002E08B407B901B90A29
:101F3400043039060319BD2F3908AE00AF01AE35A0
:101F4400AF0D00302E07840090302F3D8500003FF8
:101F5400B000013FB10031083602031DB32F300831
:101F64003502031CBD2F0130AE002E08B907043022
:101F74003906031D9E2F3908AE002E08B700FF3026
:101F8400AE002E08B707370A0319532F3708AE00DF
:101F9400AF01AE35AF0D00302E07840090302F3DD9
:101FA4008500003FA000013FA1003608A3003508CA
:101FB400A2008C31E6248F31200020080F39B000B4
:101FC4003008B3003308083E840090300318013E03
:101FD40085000008AE002E08B9003908AE003808A4
:101FE400860087012E0881000130AE002E08B80754
:101FF400C12F3808860087018101080001340034AC
:1020040010340034003401340034103430343134AA
:102014003234333434343534363437343834393470
:102024004134423443344434453446340034453432
:1020340052344C3453340034453452344F345634CF
:10204400003445345234523458340034253458342E
:02205400003456
:020000040001F9
:04000E00A2C9FFDDA7
:00000001FF
