:0400000081312729FA
:100008007E14803120007F08F900911E68282300A3
:100018009D1C17281D121D162530F5009830F60076
:1000280090319A20803123001908F80070085C3E4E
:100038008600023087007808810070085C3E8600E0
:100048000230870001089A00253024005C06031D51
:100058003D280130F0070030F13D7108803AF80082
:1000680080307802031D3A2810307002031C68287B
:100078005228523024005C06031D5C285C080319D2
:100088005C280130F0070030F13D70085C3E8600C6
:10009800023087007C300106031D682801302200E9
:1000A800D0000030D100F001F10120009112682841
:1000B80023001D121D16F001F1012A30F5009830B9
:1000C800F60090319A2080312100121D73282000FB
:1000D800121D732812112B001E1125008C112100EE
:1000E800921C81282000921C8128921025008C15D2
:1000F8002B001711EA309D001E152100911C8A283B
:100108002000911C8A2891100F121C112100111C2B
:1001180096282000111C962811100F169F309B005E
:100128001C1518102100931CA0282000931CA0283F
:1001380093108F11280017112100131CAD282000DF
:10014800131CAD2813108F159F3028009600171523
:1001580013102100931DB7282000931DB728931171
:100168000F1128001E112100131DC4282000131D83
:10017800C42813110F159F3028009D001E151A1052
:100188002000941D1419CC28141BCC28941F222954
:10019800941B941FDB28941322004E034F04031D65
:1001A800D928230020082B0096002B0017152000C3
:1001B800141B141FF228141322004C034D04031DB2
:1001C800F2284608200097002200440820009600E4
:1001D80018140F1621001114200011102000941972
:1001E800941D0A29941122004A034B04031D0A296D
:1001F80042082800920022004008280091001314A9
:1002080020008F152100131420001310200014194A
:10021800141D22291411220048034904031D222910
:100228003E082800990022003C08280098001A146B
:1002380020000F1521001315200013117908200044
:10024800FF007E1009008131292921008731FF270D
:100258008131EF00F23084008730850062308600FB
:10026800013087000D309F31B7278131723084000B
:1002780091308500CC308600013087001D309F31D9
:10028800B7278131CE308400913085004E3086000A
:100298000230870020309F31B72781310430840035
:1002A80088308500A0308600023087003A309F31C0
:1002B800B7278131F001F101F201F301F401613056
:1002C80084000030850009309F31B1278131EB016E
:1002D800EC01ED01EE012030840001308500423050
:1002E8009F31B1278131A0308400013085002C3046
:1002F8009F31B127813120308400023085002E30B3
:100308009F31B1277E1020008A31EE2A2100BE00DD
:1003180020004C08A600FF39031D0130A7009431C6
:1003280076248131200027082200B9002000260801
:100338002200B80020004D08A600FF39031D013037
:10034800A700943176248131200027082200B700C5
:10035800200026082200B60020004E08A600FF391B
:10036800031D0230A700943176248131200027082C
:100378002100EE00200026082100ED002000500892
:10038800A600FF39031D0230A7009431762481317D
:10039800200027082200B500200026082200B4000B
:1003A80020004F08A600FF39031D0230A700943132
:1003B80076248131200027082100EC00200026083F
:1003C8002100EB0020005208A600FF39031D02306F
:1003D800A700943176248131200027082300A80043
:1003E800200026082300A70020005108A600FF3996
:1003F800031D0130A700943176248131200027089D
:100408002200B300200026082200B2003208303E45
:100418002000D30053082100EF0022003608303EA8
:100428002000D30053082200E60020302000A0005E
:100438000230A10021003E082000A200FF39031D60
:100448000230A30091313B21813136302000A000D9
:100458009830A100203092313722813120004C0899
:10046800A000FF39031D0130A1002030923137224E
:10047800813136302000A0009830A1002030923120
:100488003722813119302000A0009830A100203097
:1004980092313722813136302000A0009830A100F7
:1004A800203092313722813120004D08A000FF39D9
:1004B800031D0130A10020309231372281313630BE
:1004C8002000A0009830A1002030923137228131DD
:1004D80020004E08A000FF39031D0230A100203083
:1004E80092313722813136302000A0009830A100A7
:1004F800203092313722813120004F08A000FF3987
:10050800031D0230A100203092313722813136306C
:100518002000A0009830A10020309231372281318C
:1005280020005008A000FF39031D0230A100203030
:1005380092313722813136302000A0009830A10056
:10054800203092313722813120005108A000FF3934
:10055800031D0130A100203092313722813136301D
:100568002000A0009830A10020309231372281313C
:1005780020005208A000FF39031D0230A1002030DE
:1005880092313722813120309131AE2181312100E1
:100598006F082000D300220038084E3E8600023043
:1005A800870020005308810000302100A900003096
:1005B800A8000030A7000030A6000030AD000030D1
:1005C800AC000030AB000030AA000030B1000030B1
:1005D800B0000030AF000030AE000030B500003091
:1005E800B4000030B3000030B2000030B900003071
:1005F800B8000030B7000030B6000030BD00003051
:10060800BC000030BB000030BA000030D900003018
:10061800D800FF30D700FF30D6007B30DA00243016
:10062800DB004030DC000A30E0000030E100003040
:10063800DD008030DE003E30DF00A001A101A20114
:10064800A301D1302000A0000030A10091318F21FA
:10065800813120002008FF3E2100A400FF30200047
:10066800213D2100A50020004C08A600FF39031DEC
:100678000130A70094317624813120002708220018
:10068800B900200026082200B80020004D08A60066
:10069800FF39031D0130A7009431762481312000F1
:1006A80027082200B700200026082200B6002000F4
:1006B8004E08A600FF39031D0230A70094317624A6
:1006C8008131200027082100EE00200026082100A3
:1006D800ED0020005008A600FF39031D0230A700D6
:1006E800943176248131200027082200B5002000AB
:1006F80026082200B40020004F08A600FF39031D79
:100708000230A70094317624813120002708210087
:10071800EC00200026082100EB0020005208A6006B
:10072800FF39031D0230A70094317624813120005F
:1007380027082300A800200026082300A70020007F
:100748005108A600FF39031D0130A7009431762413
:100758008131200027082200B3002000260822004B
:10076800B20021005A082000AE0021005B082000DA
:10077800AF0021005C082000B00021006E082000B6
:10078800A90021006D082000A8009031C420813103
:1007980020002808B1002908B2002A08B3009531C2
:1007A800F025813120002E082100E20020002F08CA
:1007B8002100E300200030082100E4006108200047
:1007C800A900210060082000A8009131EE218131A4
:1007D80020002808AE002908AF002A08B000210030
:1007E80062082000B100210063082000B200210047
:1007F80064082000B3009531F025813120002E08CF
:100808002100E20020002F082100E300200030082A
:100818002100E40000302000A8007A30A90044300C
:10082800AA00210062082000AB0021006308200014
:10083800AC00210064082000AD0097314C278131BD
:10084800200028082100E200200029082100E300F8
:1008580020002A082100E40062082000B1002100DD
:1008680063082000B200210064082000B3002100C2
:100878005D082000AE0021005E082000AF002100C6
:100888005F082000B0009531F025813120002E0846
:10089800BE002F08BF003008C0009531692581319E
:1008A80020003E082100A60020003F082100A700E4
:1008B800890D893B8909A800A90026092000D300D1
:1008C800210027092000D400D30A0319D40A2100E3
:1008D800560820005307A000210057082000543D67
:1008E800A100903155208131200020082100B2005C
:1008F800200021082100B300890D893B8909B40033
:10090800B5005A082000AE0021005B082000AF00A7
:1009180021005C082000B00021006C082000A9001C
:1009280021006B082000A8009031C42081312000EC
:100938002808B1002908B2002A08B3009531F0252B
:10094800813120002E082100E50020002F08210019
:10095800E600200030082100E70061082000A90017
:10096800210060082000A8009131EE21813120008B
:100978002808AE002908AF002A08B0002100650841
:100988002000B100210066082000B200210067089D
:100998002000B3009531F025813120002E08210078
:1009A800E50020002F082100E60020003008210083
:1009B800E70000302000A8007A30A9004430AA00DF
:1009C800210065082000AB00210066082000AC006B
:1009D800210067082000AD0097314C2781312000A5
:1009E80028082100E500200029082100E600200051
:1009F8002A082100E70065082000B10021006608E8
:100A08002000B200210067082000B30021005D0823
:100A18002000AE0021005E082000AF0021005F0822
:100A28002000B0009531F025813120002E08BE004D
:100A38002F08BF003008C00095316925813120009A
:100A48003E082100AA0020003F082100AB00890DC4
:100A5800893B8909AC00AD002A092000D300210098
:100A68002B092000D400D30A0319D40A2100560800
:100A780020005307A000210057082000543DA10082
:100A8800903155208131200020082100B600200037
:100A980021082100B700890D893B8909B800B900F0
:100AA8005A082000AE0021005B082000AF0021009A
:100AB8005C082000B000220035082000A9002200B0
:100AC80034082000A8009031C42081312000280873
:100AD800B1002908B2002A08B3009531F025813108
:100AE80020002E082100E80020002F082100E9003E
:100AF800200030082100EA0061082000A900210038
:100B080060082000A8009131EE21813120002808DA
:100B1800AE002908AF002A08B000210068082000AC
:100B2800B100210069082000B20021006A082000F5
:100B3800B3009531F025813120002E082100E8000E
:100B480020002F082100E900200030082100EA00D9
:100B580000302000A8007A30A9004430AA00210003
:100B680068082000AB00210069082000AC002100C3
:100B78006A082000AD0097314C27813120002808F1
:100B88002100E800200029082100E90020002A08A7
:100B98002100EA0068082000B1002100690820004F
:100BA800B20021006A082000B30021005D0820007F
:100BB800AE0021005E082000AF0021005F08200081
:100BC800B0009531F025813120002E08BE002F0895
:100BD800BF003008C00095316925813120003E08EA
:100BE8002100AE0020003F082100AF00890D893B9D
:100BF8008909B000B1002E092000D30021002F0977
:100C08002000D400D30A0319D40A21005608200072
:100C18005307A000210057082000543DA10090313F
:100C280055208131200020082100BA002000210829
:100C38002100BB00890D893B8909BC00BD00333008
:100C48002000A8009830A900210035082000AD0038
:100C5800210034082000AC00210033082000AB003C
:100C6800210032082000AA00D1309631992681311E
:100C7800D1302000D3005308A0000230A10000307A
:100C8800A200BF309231B52281312100C101D33099
:100C98002000D3005308A0000230A1000030A200B9
:100CA800C2309231B52281312100C401D1302000F7
:100CB800A0000030A1003030A2000030A3000530B1
:100CC800A4000030A5009031EF208131333020009E
:100CD800A8009830A900210039082000AD002100A3
:100CE80038082000AC00210037082000AB002100A4
:100CF80036082000AA00D130963199268131D130AA
:100D08002000D3005308A0000230A1000030A20048
:100D1800C5309231B52281312100C701D33020007E
:100D2800D3005308A0000230A1000030A200C83050
:100D38009231B52281312100CA01D1302000A000B2
:100D48000030A1003030A2000030A3000530A4001C
:100D58000030A5009031EF20813133302000A80009
:100D68009830A90021003D082000AD0021003C0872
:100D78002000AC0021003B082000AB0021003A080D
:100D88002000AA00D130963199268131D130200037
:100D9800D3005308A0000230A1000030A200CB30DD
:100DA8009231B52281312100CD01D3302000D3000A
:100DB8005308A0000230A1000030A200CE309231CA
:100DC800B52281312100D001D1302000A0000030AF
:100DD800A1003030A2000030A3000530A40000308C
:100DE800A5009031EF2081319B2F2200CC01CD014D
:100DF800CA01CB01C801C90120000F128F110F11C0
:100E0800080021006D0A6E04031D0D2F20000F1627
:100E1800322F21006D086E04031D152F20000F12BC
:100E2800322F01302200CC000030CD00BF30943189
:100E3800E7248131200027082200C7002000260867
:100E48002200C600C2309431E724813120002708EF
:100E58002200C500200026082200C40021006B0AD9
:100E68006C04031D3A2F20008F155F2F21006B089B
:100E78006C04031D422F20008F115F2F01302200C8
:100E8800CA000030CB00C5309431E72481312000FE
:100E980027082200C300200026082200C200C8300C
:100EA8009431E7248131200027082200C100200066
:100EB80026082200C0002200340A3504031D672FCB
:100EC80020000F150800220034083504031D6F2F79
:100ED80020000F11080001302200C8000030C900AE
:100EE800CB309431E7248131200027082200BF004D
:100EF800200026082200BE00CE309431E7242000CE
:100F080027082200BD00200026082200BC00080097
:100F180022003708003A0319922FA62F3608003A04
:100F28000319F92E013A0319052FA62F08002200EC
:100F38003908003A0319A12FA62F3808013A0319D6
:100F48008C2FA62F08002000B3003308031DB02FF4
:100F58006108B0003008B3003308031DB52F003016
:100F680008002F08A8002E08A7003308933114237F
:100F7800873120002708B0003008B30733088600FF
:100F8800023087000108031DCC2FE1010030080062
:100F98002F08A8002E08A70033089231E4228731D1
:100FA80020002708B0002808B10033083007B20035
:100FB8003208E10061088600023087000108031941
:100FC800EF2F610886000230870081010130B000F0
:100FD8003008E107F02FE10133080800233400341A
:100FE8002334003430343034303430343034303416
:080FF800303430343034303461
:101008002334003400340034003400340034003415
:101018000034003400340034003400340034003428
:101028000034003400340034003400340034003418
:101038000034003400340034003400340034003408
:1010480000340034003400340034003400340034F8
:1010580000340034003400340034003400340034E8
:1010680000340034003400340034003400340034D8
:10107800003400342100C700CF01D001D301D401CE
:10108800C501C601D101D201A001A1010030CA00E9
:101098000030CB000030CC000030C0000030BF0072
:1010A8000030BE000030BD000030C4000030C30076
:1010B8000030C2000030C1000030B6000030B5007A
:1010C800FF30B400FF30B3000030B700A030B800E4
:1010D8004130B9000030BA008030BB003E30BC005F
:1010E800A201A301A401A501AE302000A000003098
:1010F800A10091318F21883120002008FF3E210076
:10110800A600FF302000213D2100A700220065082D
:101118002100C900220064082100C80022006308D9
:101128002100CE00220062082100CD0047082000DF
:10113800D20052082100C80020004C08D2005208F2
:101148002100C900C8302000A6000030A700943153
:1011580076248831200027082100D00020002608A6
:101168002100CF0020004D08D03E2100D300FF30E1
:1011780003180030D40020004E08D2005208210085
:10118800CD0020004F08D20052082100CE00CD30FB
:101198002000A6000030A700943176248831200072
:1011A80027082100C600200026082100C5002000CD
:1011B8004E08D20052082100CD0020004F08D2006E
:1011C80052082100CE00CD302000A6000030A70034
:1011D800943176248831200027082100C600200099
:1011E80026082100C50037082000AE002100380875
:1011F8002000AF00210039082000B0002100460877
:101208002000A900210045082000A8009131EE2106
:10121800883120002808B1002908B2002A08B30044
:101228009531F025883120002E082100CA002000C1
:101238002F082100CB00200030082100CC0000300E
:101248002000A8007A30A9004430AA0021004A08EA
:101258002000AB0021004B082000AC0021004C0806
:101268002000AD0097314C27883120002808210044
:10127800CA00200029082100CB0020002A082100EC
:10128800CC004A082000B10021004B082000B20021
:1012980021004C082000B30021003A082000AE00CD
:1012A80021003B082000AF0021003C082000B000CE
:1012B8009531F025883120002E08BE002F08BF0088
:1012C8003008C00095316925883120004108210087
:1012D800C000200040082100BF0020003F08210076
:1012E800BE0020003E082100BD0033082000D200C7
:1012F800210034082000D300210035082000D40044
:10130800210036082000D50021003D092000D60024
:1013180021003E092000D70021003F092000D80005
:10132800210040092000D900D60A0319D70A031959
:10133800D80A0319D90A5608D2075708D33D5808BE
:10134800D43D5908D53D55082100C4002000540853
:101358002100C300200053082100C20020005208C9
:101368002100C10033302000A8009830A9002100D6
:1013780044082000AD00210043082000AC002100F3
:1013880042082000AB00210041082000AA00AE302E
:10139800963199268831A8302000A0000030A1009D
:1013A800AE30A2000030A30091313B2188312000EB
:1013B8005008D20021004F084E3E860002308700B8
:1013C80020005208810021004F084E3E860002305E
:1013D800870001082000D20021004F08CC3E86007B
:1013E80001308700200052088100210050082000A9
:1013F800D30021004F082000D200D235D30DD235BA
:10140800D30D5208FC3E2100D100FF302000533D8F
:101418002100D20047302000D20021005108A03E10
:101428008600023087002000520881000130210028
:10143800D1070030D23D20004D08D20021005108CC
:10144800A03E86000230870020005208810001304B
:101458002100D1070030D23D47082000D2002100EA
:101468005108A03E86000230870020005208810003
:1014780001302100D1070030D23D20004C08D200B5
:1014880021005108A03E8600023087002000520843
:101498008100FD302100D107FF30D23D31302000DE
:1014A8005106031DCA2A21005108A03E9131AE21E0
:1014B8008831CA2A2100530C2000031C101003187D
:1014C800101408002100530C2000031C901003186E
:1014D800901408002100530C2500031C0D1003185C
:1014E8000D1408002100530C2500031C8D1103184E
:1014F8008D1508002100530C2500031C0D1203183C
:101508000D1608002100530C2500031C0C130318AA
:101518000C1708002100530C2500031C8C1203181B
:101528008C1608002100530C2500031C0C1203180C
:101538000C160800210054082200CF00210053088F
:101548002200CE00BB2A25008C110800A830943157
:10155800E724200026082300A000200027082300F5
:10156800A100890D893B8909A200A3000800210078
:101578005408003A0319C12AED2A5308003A0319FE
:10158800A72A013A0319AA2AED2A080021005008BF
:10159800003A0319D02AED2A4F08013A03195E2AA6
:1015A800033A0319662A013A03196E2A073A0319FE
:1015B800762A013A03197E2A033A0319862A013A40
:1015C80003198E2A0F3A0319962A023A03199E2AFA
:1015D800ED2A080029302000DB009630DA007F3041
:1015E800890BF42ADA0BF42ADB0BF42A01302200E7
:1015F800B0000030B1000130AE000030AF00013063
:10160800AC000030AD000130AA000030AB00013062
:10161800A8000030A9000130A6000030A700013062
:10162800A4000030A5000130A2000030A300013062
:10163800A0000030A100923189228A319231102213
:101648008A31220050035104031D562DD001D101C7
:10165800253024005C06031D6D2B25305D06031D17
:101668006D2B40306A06031D6D2B40306B06031D41
:101678006D2B903164208A31933144238A312300C1
:101688005B082000DA005A08CC0023005C08200020
:10169800DB005B08CD0023005D082000DC005C084F
:1016A800CE0023005E082000DD005D08CF00230087
:1016B8005F082000DE005E08D000230060082000DC
:1016C800DF005F08D10023005A0888313E208A31A4
:1016D800562D523024005C06031D1A2D47305D0636
:1016E800031D1A2D903164208A315C302000DA0005
:1016F8005A08E9003630AE009830AF0069088731E3
:10170800A7278A312000DA005A08E8006808DA00BA
:101718005A08E7002200BA01BB012F302000A000C0
:101728009830A100670892315F228A312000200892
:1017380021040319E52CE92C01302200BA070030F6
:10174800BB3D36302000AE009830AF000030873106
:10175800A7278A312000DA005A08E800D22C250091
:10176800DC01DD01DC01DD015D08803A2000DA00E2
:1017780080305A02031DC32B013025005C02031878
:10178800EB2B200068088600023087000108DA0089
:1017980025005C08C93E86000130870020005A08F1
:1017A80081000130DA005A08E80701302500DC071B
:1017B8000030DD3D5D08803A2000DA0080305A02B2
:1017C800031DE92B013025005C02031CC52BC93021
:1017D8002000DA005A08F300E52C20006808DA0037
:1017E8005A082200DB00E52C2500DE01DF01DE01BE
:1017F800DF015F08803A2000DA0080305A02031DBA
:10180800082C013025005E020318302C20006808DF
:101818008600023087000108DA0025005E08603E75
:1018280086000130870020005A0881000130DA0064
:101838005A08E80701302500DE070030DF3D5F0861
:10184800803A2000DA0080305A02031D2E2C013025
:1018580025005E02031C0A2C60302000DA005A08BA
:10186800F200E52C20006808DA005A08E60066084D
:10187800A000FF39031D0230A10091318F218A3168
:10188800200021082300B800200020082300B7000A
:10189800E52C20006808DA005A08E5006508A00071
:1018A800FF39031D0230A10091318F218A312000B8
:1018B80021082300B600200020082300B500E52CED
:1018C80020006808DA005A08E4006408A000FF391C
:1018D800031D0230A10091318F218A312000210897
:1018E8002300B200200020082300B100E52C2500C9
:1018F800E001E101E001E1016108803A2000DA003D
:1019080080305A02031D8B2C013025006002031819
:10191800B52C200068088600023087000108DA002C
:101928002500600820006207DB005B0886000130A4
:1019380087005A0881000130DA005A08E8070130A8
:101948002500E0070030E13D6108803A2000DA0018
:1019580080305A02031DB32C013025006002031C9D
:101968008D2C5E302000DA005A08E200E52C2000B9
:101978006808DA005A08E3006308A000FF39031D6D
:101988000230A10091318F218A31200021082300E3
:10199800B400200020082300B300E52C22003B08F7
:1019A800003A0319D82CE52C3A08FF3E031CE52C15
:1019B8008400083004020318E52C90310435003EF9
:1019C800820020006808031DA02B7308DA005A085B
:1019D800CC007208DB005B08CD006608DC005C0800
:1019E800CE006508DD005D08CF006408DE005E08F3
:1019F800D0006208DF005F08D1006308E0006008DB
:101A0800D200670881318A218A315C302000A00029
:101A18000230A1003030A2000030A3001230A40030
:101A28000030A5009031EF208A31562D203020005B
:101A3800A0009830A100913108218A3123009D131C
:101A48001D122500DA01DB015B08803A2000DA006C
:101A580080305A02031D332D0F3025005A02031817
:101A6800532D23302000DA0025005A085C3E8600FA
:101A78000230870020005A08810001302500DA076B
:101A88000030DB3D5B08803A2000DA0080305A02E3
:101A9800031D512D0F3025005A02031C352D23003C
:101AA8001D169D1701302500E2000030E30030309C
:101AB80023004D06031D822D20000F1B822D2200BE
:101AC80030083104031D822D250062036304031DC1
:101AD8007A2D01302000A0000030A1009331A92305
:101AE8008A31903175208A31200010142500E201D6
:101AF800E30101302200B0000030B1003030230093
:101B08004D06031DA72D20000F1FA72D220030030F
:101B18003104031DA72D250062036304031DA12DB5
:101B280001302000A0000030A100933176238A31D3
:101B3800903175208A31200010102500E201E30160
:101B48002200B001B101303023004E06031DCE2D16
:101B580020008F1BCE2D22002E082F04031DCE2D12
:101B6800250062036304031DC62D02302000A00077
:101B78000030A1009331A9238A31903175208A3130
:101B8800200090142500E201E30101302200AE009C
:101B98000030AF00303023004E06031DF32D200027
:101BA8008F1FF32D22002E032F04031DF32D250074
:101BB80062036304031DED2D02302000A0000030F5
:101BC800A100933176238A31903175208A31200023
:101BD80090102500E201E3012200AE01AF01303090
:101BE80023004F06031D192E20000D18192E220060
:101BF8002C082D04031D192E250062036304031D00
:101C0800122E03302000A0000030A1009331A92338
:101C18008A31903175208A3125000D14E201E301E3
:101C280001302200AC000030AD00303023004F06F8
:101C3800031D3D2E20000D1C3D2E22002C032D04DB
:101C4800031D3D2E250062036304031D382E033057
:101C58002000A0000030A100933176238A31903112
:101C680075208A3125000D10E201E3012200AC0144
:101C7800AD01303023005006031D632E20008D185F
:101C8800632E22002A082B04031D632E25006203FD
:101C98006304031D5C2E04302000A0000030A10066
:101CA8009331A9238A31903175208A3125008D1509
:101CB800E201E30101302200AA000030AB0030301D
:101CC80023005006031D872E20008D1C872E22001E
:101CD8002A032B04031D872E250062036304031DBA
:101CE800822E04302000A0000030A100933176231A
:101CF8008A31903175208A3125008D11E201E30186
:101D08002200AA01AB01303023005106031DAD2E7D
:101D180020000D19AD2E220028082904031DAD2E20
:101D2800250062036304031DA62E05302000A000D1
:101D38000030A1009331A9238A31903175208A316E
:101D480025000D16E201E30101302200A800003051
:101D5800A900303023005106031DD12E20000D1D8F
:101D6800D12E220028032904031DD12E2500620349
:101D78006304031DCC2E05302000A0000030A10014
:101D8800933176238A31903175208A3125000D12DE
:101D9800E201E3012200A801A90130302300520624
:101DA800031DF72E20008D19F72E22002608270480
:101DB800031DF72E250062036304031DF02E063071
:101DC8002000A0000030A1009331A9238A3190316E
:101DD80075208A3125000C17E201E3010130220049
:101DE800A6000030A700303023005206031D1B2F29
:101DF80020008D1D1B2F220026032704031D1B2FE7
:101E0800250062036304031D162F06302000A0007E
:101E18000030A100933176238A31903175208A31C0
:101E280025000C13E201E3012200A601A7013030CE
:101E380023005306031D412F20000D1A412F2200B5
:101E480024082504031D412F250062036304031D94
:101E58003A2F07302000A0000030A1009331A923B9
:101E68008A31903175208A3125008C16E201E30110
:101E780001302200A4000030A500303023005306B2
:101E8800031D652F20000D1E652F22002403250445
:101E9800031D652F250062036304031D602F0730AF
:101EA8002000A0000030A100933176238A319031C0
:101EB80075208A3125008C12E201E3012200A40179
:101EC800A501303023005406031D8B2F20008D1AE6
:101ED8008B2F220022082304031D8B2F2500620369
:101EE8006304031D842F08302000A0000030A100E7
:101EF8009331A9238A31903175208A3125000C1637
:101F0800E201E30101302200A2000030A3003030DA
:101F180023005406031DAF2F20008D1EAF2F220073
:101F280022032304031DAF2F250062036304031D4E
:101F3800AA2F08302000A0000030A100933176239A
:101F48008A31903175208A3125000C12E201E301B3
:101F58002200A201A301303023005506031DD82F0B
:101F680020008F1AD82F220020082104031DD82F03
:101F7800250062036304031DD12F2200CE01CF0187
:101F88000A302000A0000030A1009331A9238A3133
:101F9800903175208A3125008C11E201E30101306E
:101FA8002200A0000030A100303023005506031D98
:101FB800252B20008F1E252B220020032104031D22
:101FC800252B250062036304031DFA2F2200CE018E
:101FD800CF010A302000A0000030A1009331762301
:101FE8008A31903175208A3125008C15E201E30190
:101FF8002200A001A101252B8B31B32B8B31F12BB2
:102008008B31F82B8C31362C8C314D2C8C31642C47
:102018008C317B2C8C31BB2C083020009C009A0121
:102028009110210091148B170B17080028009A01B2
:102038009B01990198012000131121001315080034
:10204800200098019901970196011110210011149F
:102058008B170B17080008302800970095012000FF
:102068009310210093148B170B1708002800930175
:1020780094019201910120001310210013148B1771
:102088000B1708002000A100A0013A302102031814
:10209800532830302102031C5328A001A00A200C29
:1020A80008002000A11F08002009A2002109A300A0
:1020B800A20A0319A30A2208A0002308A100080005
:1020C80025008C1003302000A1000830A0007730D4
:1020D800890B6C28A00B6C28A10B6C2825008C148C
:1020E800080025000C1003302000A1000830A000D3
:1020F8007730890B7D28A00B7D28A10B7D28250032
:102108000C14080020001010901025000D108D11DF
:102118000D120C138C120C120C148C140C152000BC
:102128000F128F110F1125008C11080075088400FB
:102138007608850012000319080023009E1CA128B8
:10214800750884007608850000089A000130F507B4
:102158000030F63D9A2828008D0129008D012800BD
:102168008C01230090012400900123008F0124009A
:102178008F0123008D0124008D0123008C010800AC
:1021880020002808A0002908A100A2018E30AB0079
:102198002B08A300A4019431112420002008A800D2
:1021A8002108A9002208AA00080021009112111292
:1021B8000A3023009F0090309D0024309E00A030FC
:1021C8009B0001309C008B170B17210091162300F0
:1021D8009E169D17080020002108A7002008A600C9
:1021E8000130A4020030A53B240A0319250A03196B
:1021F8000800260886002708870022088100013089
:10220800A6070030A73DF4282000200884002108F4
:10221800850012000319080023009E1C10292000C5
:102228002008840021088500000823009A00013056
:102238002000A0070030A13D0829200020088400C4
:102248002108850000082206031908002108A500B6
:102258002008A400A00A0319A10A2408840025085C
:1022680085001200031D2129A001A10108002000FA
:102278002108A5002008A400240886002508870056
:1022880022088400230885000008C03F8908031934
:1022980008000130A4070030A53D0130A207003036
:1022A800A33D40292000A401A501201C5F29220884
:1022B800A4072308A53D0130A235A30D890B602989
:1022C8000130A136A00C890B652920082104031DC3
:1022D80059292508A1002408A0000800303430340A
:1022E80030343034303430343034303430343034C6
:1022F80030343034003400342334003400340034B3
:1023080000340034003400340034003423342334DF
:1023180023342334003420002108A5002008A40019
:10232800240886002508870001080319A029013020
:10233800A4070030A53D94292009A2002109A30083
:10234800A20A0319A30A24082207A0002508233D8E
:10235800A10008002000A300A101A2012308860013
:102368000230870001080319080023009E1CB929C0
:1023780020002308860002308700010823009A0005
:1023880001302000A0002008A3070130A107003079
:10239800A23DB22930343034303430343034303423
:1023A8003034303430343034303430340034003465
:1023B8002334003400340034003400340034003452
:1023C8000034003400340034003400340034003465
:1023D800003400342000AD01A91FF929A809A90972
:1023E800A80A0319A90AAD01AD0A2808A0002908FE
:1023F800A100A2018E30AB002B08A3002D08AC0071
:102408002C08A4009431112420002008A8002108D9
:10241800A9002208AA0008009031D92092319031F1
:102428002420923190311020923190313A2092310B
:1024380090312F20923190311A2092319F31C62746
:1024480092319F31CF2792319F31BD2792319F31F1
:10245800F62792319F31EC2792319F31E227923152
:102468009F31D82708002000A4002408A2002208D1
:10247800A300230886000230870001080319512AA7
:102488000130A2002208A3073D2A0130A200220839
:10249800A3070130A0070030A13D230886000230C1
:1024A800870020088400210885000008C03F8908AB
:1024B80003190800492A2000A4006A2A0130A20052
:1024C8002208A4070130A0070030A13D2408860097
:1024D8000230870020088400210885000008FF3AA0
:1024E800013E0107A2002208A3002308031D832A36
:1024F80024088600023087000108031D622A230889
:10250800A000A101A01BA1030800903186209231F0
:102518009031AF20923121000F178F170D148D14B1
:102528000D158D150D168D168F161010901026008E
:102538000D108D110D120C138C120C128C11210020
:10254800901590159016101626000C108C100C1172
:1025580021000F128F110F110E138E179031862044
:1025680008002000A5002508A3002308A4002108CE
:1025780022040319D92A0130A1020030A23B240801
:1025880086008701A40A200884008501A00A0008A3
:10259800C03F89080319D92ABB2A24088600870165
:1025A80081010130A3002308A4070130A1020030F3
:1025B800A23B210A031DD12A220A03190800D12AA5
:1025C8002000AD00AB01AC01F12A0130A9002908B7
:1025D800AD070130AB070030AC3D2D088600023056
:1025E8008700010803190F2B2808A1002708A0005D
:1025F8002D088600023087000108A900AA012908D1
:10260800A2002A08A300913121219231200020083C
:1026180021040319E92A2C08A8002B08A7000800A0
:102628002000AD00AB01AC01212B0130A900290825
:10263800AD070130AB070030AC3D2D0886000230F5
:102648008700010803193F2B2808A1002708A000CC
:102658002D088600023087000108A900AA01290870
:10266800A2002A08A30091312121933120002008DB
:102678002104031D192B2C08A8002B08A70008000B
:1026880002302000A1000030A2000230A10000307A
:10269800A2002208803AA00080302002031D562B99
:1026A8000930210203180800200021085C3E86003A
:1026B800023087000108A0002108FE3EDA3E8600AD
:1026C80001308700200881002330A00021085C3EEB
:1026D800860002308700200881000130A107003001
:1026E800A23D4D2B523023009A0006302000A20054
:1026F8003030890B7D2BA20B7D2B0000303023005E
:102708009A0006302000A2003030890B892BA20BDA
:10271800892B0000303023009A0006302000A200E8
:102728003030890B952BA20B952B00002000200838
:10273800303E23009A0006302000A2003030890B7A
:10274800A32BA20BA32B00000800523023009A00F1
:1027580006302000A2003030890BB02BA20BB02B22
:102768000000313023009A0006302000A2003030EB
:10277800890BBC2BA20BBC2B0000303023009A0025
:1027880006302000A2003030890BC82BA20BC82BC2
:10279800000020002008303E23009A000630200068
:1027A800A2003030890BD62BA20BD62B00000800D4
:1027B8002000A601A7012008210403190C2CA5015B
:1027C800A50AA11BF12B0130A035A10D890BE82B1F
:1027D8000130A4002408A507E52B0130A635A70D74
:1027E800890BF22B21082302031DFC2B200822024F
:1027F800031C032C2008A2022108A33B2614013045
:10280800A136A00C890B042C0130A502031DF12B65
:102818002708A1002608A0000800200023080319A3
:102828001A2C220821042004031D2B2C0030A000A0
:102838000030A1000030A20008000130A5002508E2
:10284800A3070130A236A10CA00C890B262CFE3060
:1028580022050319442C212C0130A5002508A307C3
:102868000130A007003003180130A1070030031819
:102878000130A2070130A236A10CA00C890B3F2C15
:10288800FF3022050319512C302C0130A3020130EE
:10289800A035A10DA20D890B4C2CA11B572C023081
:1028A80023020318492C23185F2CFF30A0057F3022
:1028B800A105FF30A2050310A30C2308A500A6015B
:1028C800A7011030A535A60DA70D890B662C250884
:1028D800A0042608A1042708A20424080319080054
:1028E800A217080020002608860027088700203045
:1028F8000106031D852C01302000A6070030A73DE6
:10290800762C260886002708870009300106031957
:102918007F2CAB01AC01AA01260886002708870096
:102928002D300106031D9D2C0130A8002808AA0798
:10293800A52C26088600270887002B300106031DD2
:10294800A92C0130A6070030A73D260886002708D5
:1029580087000108903146209431031CD22C2000B6
:102968002C08A1002B08A0000A30A2000030A30008
:1029780091315621943120002608860027088700C7
:1029880001082007A80021080318210AA90028081F
:10299800D03EAB00FF30293DAC00A52C20002A0812
:1029A8000319E22C2B09A8002C09A900A80A03196D
:1029B800A90A2808A6002908A70008002C08A700CB
:1029C8002B08A60008002000B2003208A000003042
:1029D800A10091318F21943120002108AB002008FB
:1029E800AA000130AE000030AF00AC01AD012A08EA
:1029F800FF3EB000FF302B3DB100B11B642D300805
:102A08003207A80028088600870130300102031C1D
:102A1800202D30083207A8002808860087013A30A0
:102A280001020318202D30083207A8002808860064
:102A380087010108D03E3C2D30083207A80028083D
:102A48008600870141300102031C5E2D30083207E1
:102A5800A8002808860087014730010203185E2D68
:102A680030083207A8002808860087010108C93EF7
:102A7800A000FF3003180030A1002F08A3002E0883
:102A8800A20091315621943120002008AC0721087A
:102A9800AD3D2F08A9002E08A800A80EA90EF030F9
:102AA800A90528080F39A904F030A8052808AE00A0
:102AB8002908AF00FF30B007FF30B13DB11F032D2B
:102AC8002D08A7002C08A600080020003E08C20018
:102AD8003F08C3004008C4000310430D440DC5005F
:102AE8004508CB004B08031D822D0030C100003083
:102AF800C0000030BF000030BE0008003E08C20021
:102B08003F08C3004008C4001730C436C30CC20CC9
:102B1800890B892D4208C5004508C600BF17FF303C
:102B2800BE05FF30BF050030C0053E08C7003F089E
:102B3800C8004008C900CA018E30CB02CB1FC02D87
:102B48004B08803A8F3E0318B22D0030C100003088
:102B5800C0000030BF000030BE0008000130CA3697
:102B6800C90CC80CC70C890BB32D0130C200420830
:102B7800CB070319D92DB22D18304B02031CD62DC3
:102B88000030C1000030C0000030BF000030BE007F
:102B980008000130C735C80DC90DCA0D890BCE2DE7
:102BA8000130CB024B08031DCD2D46080319E72D34
:102BB800C709C809C909CA09C70A0319C80A0319EC
:102BC800C90A0319CA0A4A08C1004908C0004808C6
:102BD800BF004708BE00080020003108B4003208D2
:102BE800B5003308B6000310350D360DB7003708A9
:102BF800BC003C08031D072E0030AE000030AF00BB
:102C08000030B00008002E08B4002F08B5003008C6
:102C1800B6000310350D360DB7003708BD003D0866
:102C2800031D1D2E0030AE000030AF000030B00094
:102C380008000030B9000030BA000030BB0089300D
:102C48003D07B4003408BC023108B4003208B500AE
:102C58003308B6001030B636B50CB40C890B2F2EDD
:102C68003408B7003708BD002E08B4002F08B50097
:102C78003008B6001030B636B50CB40C890B3F2EB0
:102C88003408B7003708BD068030B4003408BD05E5
:102C9800B217FF30B105FF30B2050030B305AF17EA
:102CA800FF30AE05FF30AF050030B0051830B40076
:102CB8003408B8000130B935BA0DBB0D890B5F2E49
:102CC80030083302031D6E2E2F083202031D6E2EAC
:102CD8002E083102031C772E2E08B1022F08B23BB2
:102CE8003008B33B39140130B135B20DB30D890B3F
:102CF800782E0130B802031D5E2E3908A0003A086C
:102D0800A1003B08A2003C08B4003408A3003D0819
:102D1800B5003508A4009431112420002008AE0025
:102D28002108AF002208B00008002000B8002A30AF
:102D3800AE002E08B4002908AF002808AE00A80A83
:102D48000319A90A2E0884002F0885000008B0007E
:102D58003008B90039080319472F253039060319F7
:102D6800C12E3908AE003808860087012E08810078
:102D78000130AE002E08B8079F2EB2012908AF0017
:102D88002808AE00A80A0319A90A2E0884002F08EB
:102D980085000008B900003A0319472F583A03196B
:102DA800D92E203A0319D92E9F2E34088600870180
:102DB800403FB500413FB6000230AE002E08B407D0
:102DC800B901B90A043039060319092F3908AE00C8
:102DD800AF01AE35AF0D00302E07840098302F3D7F
:102DE8008500003FB000013FB10031083602031DE5
:102DF800FF2E30083502031C092F0130AE002E08C3
:102E0800B90704303906031DEA2E3908AE002E082A
:102E1800B700FF30AE002E08B707370A03199F2EF8
:102E28003708AE00AF01AE35AF0D00302E07840075
:102E380098302F3D8500003FA000013FA1003608D3
:102E4800A3003508A2009331DC2396312000200826
:102E58000F39B0003008B3003308083E84009830BA
:102E68000318013E85000008AE002E08B900390895
:102E7800AE003808860087012E0881000130AE00B8
:102E88002E08B8070D2F3808860087018101080031
:102E980020002808AE002908AF002A08B000031057
:102EA8002F0D300DB1003108B2003208031D632F19
:102EB8000030A8000030A9000030AA0008002B0844
:102EC800AE002C08AF002D08B00003102F0D300DF8
:102ED800B1003108B7003708031D792F0030A8006A
:102EE8000030A9000030AA00080037087B3EAE0079
:102EF8002E08B2072808AE002908AF002A08B0003B
:102F08001030B036AF0CAE0C890B852F2E08B100EF
:102F18003108B7002B08AE002C08AF002D08B00010
:102F28001030B036AF0CAE0C890B952F2E08B100BF
:102F38003108B7068030AE002E08B705A917AC17C0
:102F4800FF30AB05FF30AC050030AD050030B300F5
:102F58000030B4000030B5000730AE002E08B600CF
:102F6800281CBC2F2B08B3072C08B43D2D08B53DF1
:102F78000130AA36A90CA80C890BBD2F0130AB353E
:102F8800AC0DAD0D890BC32F0130B602031DB42F54
:102F98000930AE002E08B600281CD82F2B08B3071E
:102FA8002C08B43D2D08B53D0130AA36A90CA80C53
:102FB800890BD92F0130B536B40CB30C890BDF2F30
:102FC8000130B602031DD02F3308A0003408A10039
:102FD8003508A2003208AE002E08A3003708AF005B
:102FE8002F08A4009431112420002008A8002108EB
:102FF800A9002208AA000800013400341034003463
:103008000034013400341034303431343234333441
:10301800343435343634373438343934413442343E
:10302800433444344534463400344134433454340E
:10303800413443344B340034453452344C345334E3
:103048000034453452344F34563400344534523405
:10305800523458340034523447344234003425341E
:08306800583400342E3400340A
:103F6200640080010131890BB22F0034FE0012007F
:103F72001E00FE0BB82F00341F302B009E009C0148
:103F820020001211210012150800083028009E009E
:103F92009C01200093112100931508001F302B0073
:103FA200970095012000921021009214080084309D
:103FB2002C009F009E019D01200094132100941764
:103FC200080084302C009600950194012000141101
:103FD20021001415080084302C009C0098019701E0
:103FE2002000941121009415080084302C009C00BC
:0E3FF2009B019A0120001413210014170800EF
:020000040001F9
:04000E00A2C9FFDDA7
:00000001FF
