:040000008231192A06
:100008007E14803120007F08F400911E49282300C7
:100018009D1C17281D121D160530F0009030F100A8
:100028008F314627803123001908F3007508A03E58
:100038008600870173088100253021002006031DF2
:100048003D280130F5070030F63D7608803AF30088
:1000580080307302031D322810307502031C4928B2
:1000680001302000DD000030DE00F501F6019112BC
:10007800492823001D121D16F501F6010A30F0006B
:100088009030F1008F31462780312100911C54288F
:100098002000911C5428911025008C1120001C115F
:1000A8002100111C62282000111C62281110250053
:1000B8008C159F3020009B001C1518102000941DE3
:1000C80014196A28141B6A28941F152A941B941F54
:1000D800152A941349034A040319082A152A7B3060
:1000E800E9297C30ED297D3097008830F7297F3069
:1000F80097001830F72980309F298130A329833051
:10010800AB2983309700C830F729A228853097009B
:100118005830F7297708D03E031C152A84000A3086
:1001280004020318152A88310435003E8200152A76
:100138008630B32986309700E830F7298730B72909
:100148008830BB298930BF298A3097000830F729C1
:100158008A30D1298B3097009830F7298C30D529EF
:100168008D3097002830F7297708D03E031C152AD0
:1001780084000A3004020318152A88310435143E15
:100188008200152A8D30D9298E309700B830F7298A
:100198008F30DD29903097004830F7299130E129D8
:1001A80091309700D830F7299230E529933097009D
:1001B8006830F7299430E92994309700F830F72906
:1001C8007708D03E031C152A84000A30040203185D
:1001D800152A88310435283E8200152A9530ED29E4
:1001E8009730F1299830F5299A30A3299C30AB290A
:1001F8009D30AF299F30B329A030B729A230BF293D
:10020800A330D1297708D03E031C152A84000A3070
:1002180004020318152A883104353C3E8200152A49
:10022800A530D529A630D929A830DD29AA30E12959
:10023800AB30E529AD30E929AE30ED29B030F129F0
:10024800B130F529B330A3297708D03E031C152A0D
:1002580084000A3004020318152A88310435503EF8
:100268008200152AB530AB29B630AF29B830B3298A
:10027800B930B729BB30BF29BC30D129BE30D52908
:10028800BF30D929C130DD29C330E1297708D03EF4
:10029800031C152A84000A3004020318152A883121
:1002A8000435643E8200152AC430E529C630E929A0
:1002B800C730ED29C930F129CA30F529CC30A32936
:1002C800CE30AB29CF30AF29D130B329D230B729BE
:1002D8007708D03E031C152A84000A30040203184C
:1002E800152A88310435783E8200152AD430BF2972
:1002F800D530D129D730D529D830D929DA30DD29D8
:10030800DC30E129DD30E529DF30E929E030ED296D
:10031800E230F1297708D03E031C152A84000A3000
:1003280004020318152A883104358C3E8200152AE8
:10033800E330F529E4309700A830F729E530970035
:100348007030F729E63097003830F729E730970002
:100358009601F829E83097009030F729EA3097009D
:100368002030F729EB309700B030F729EC309700B0
:100378007830F729ED3097004030F7297708D03EDC
:10038800031C152A84000A3004020318152A883130
:100398000435A03E8200152AEE309700D030F729A8
:1003A800F03097006030F729F1309700F030F729E6
:1003B800F33097008030F729F53097001030F7298F
:1003C800F6309700A030F729F83097003030F72939
:1003D800F9309700C030F729FB3097005030F729E3
:1003E800FC309700E03096001814152A7708D03EA4
:1003F800031C152A84000A3004020318152A8831C0
:100408000435B43E8200152A7808D03E031C152A0C
:1004180084000A3004020318152A88310435C83EBE
:1004280082007408FF007E10090082311B2A873180
:10043800FE278231F7008731FF278231F800F33039
:1004480084008E3085005F308600003087000E30D3
:100458008E3174268231A430840087308500A03024
:100468008600003087002E308E3174268231D330DA
:1004780084008630850020308600013087003A30BD
:100488008E3174268231F501F6014930840000303E
:10049800850016308E316E267E1020008231542A57
:1004A80029302000C4009630C3007F30890B5A2AB7
:1004B800C30B5A2AC40B5A2A01302000DB00003033
:1004C800DC000130D9000030DA000130D7000030FC
:1004D800D8000130D5000030D6000130D3000030FC
:1004E800D4000130D1000030D2000130CF000030FC
:1004F800D0000130CD000030CE000130CB000030FC
:10050800CC008731D22782318F31D9278231200020
:100518005D035E04031D022BDD01DE012530210091
:100528002006031DC72A25302106031DC72A40308F
:100538002E06031DC72A40302F06031DC72A8F31F8
:100548001027823187317527823120006008C30067
:100558004308AE006108C4004408AF006208C50043
:100568004508B0006308C6004608B1006408C70023
:100578004708B2006508C8004808B3005F0885311D
:100588005C258231022B00302000A0009030A100B1
:100598008F318627823123009D131D122100CE0141
:1005A800CF014F08803A2000C30080304302031D6A
:1005B800E02A0F3021004E020318FF2A23302000C2
:1005C800C30021004E08A03E860087012000430892
:1005D800810001302100CE070030CF3D4F08803A1E
:1005E8002000C30080304302031DFD2A0F30210084
:1005F8004E02031CE22A23001D169D17013021001C
:10060800D0000030D10030303306031D282B2000E5
:100618000F1B282B5B085C04031D282B21005003AB
:100628005104031D202B313087310D2782318F3142
:1006380021278231200010142100D001D10101307E
:100648002000DB000030DC00303021003306031DC1
:10065800482B20000F1F482B5B035C04031D482B0D
:10066800210050035104031D422B313087314127AB
:1006780082318F3121278231200010102100D001D2
:10068800D1012000DB01DC01303021003406031DDC
:100698006A2B20008F1B6A2B59085A04031D6A2BEA
:1006A800210050035104031D622B323087310D277E
:1006B80082318F3121278231200090142100D0010E
:1006C800D10101302000D9000030DA00303021009B
:1006D8003406031D8A2B20008F1F8A2B59035A04C6
:1006E800031D8A2B210050035104031D842B323033
:1006F8008731412782318F312127823120009010A4
:100708002100D001D1012000D901DA0130302100C7
:100718003506031DAC2B20000D18AC2B57085804C8
:10072800031DAC2B210050035104031DA42B3330AF
:1007380087310D2782318F312127823125000D1411
:100748002100D001D10101302000D7000030D800AD
:10075800303021003506031DCC2B20000D1CCC2B7E
:1007680057035804031DCC2B210050035104031DCB
:10077800C62B33308731412782318F31212782318F
:1007880025000D102100D001D1012000D701D8018A
:10079800303021003606031DEE2B20008D18EE2B7D
:1007A80055085604031DEE2B210050035104031D68
:1007B800E62B343087310D2782318F312127823162
:1007C80025008D152100D001D10101302000D50070
:1007D8000030D600303021003606031D0E2C2000D4
:1007E8008D1C0E2C55035604031D0E2C210050039E
:1007F8005104031D082C34308731412782318F3151
:100808002127823125008D112100D001D10120003E
:10081800D501D601303021003706031D302C2000C9
:100828000D19302C53085404031D302C210050039B
:100838005104031D282C353087310D2782318F3123
:100848002127823125000D162100D001D101013068
:100858002000D3000030D400303021003706031DBB
:10086800502C20000D1D502C53035404031D502CF4
:10087800210050035104031D4A2C3530873141278C
:1008880082318F312127823125000D122100D001BC
:10089800D1012000D301D401303021003806031DD6
:1008A800722C20008D19722C51085204031D722CD1
:1008B800210050035104031D6A2C363087310D275F
:1008C80082318F312127823125000C172100D00178
:1008D800D10101302000D1000030D2003030210099
:1008E8003806031D922C20008D1D922C51035204B2
:1008F800031D922C210050035104031D8C2C36300B
:100908008731412782318F312127823125000C130D
:100918002100D001D1012000D101D20130302100C5
:100928003906031DB42C20000D1AB42C4F085004AE
:10093800031DB42C210050035104031DAC2C373087
:1009480087310D2782318F312127823125008C167E
:100958002100D001D10101302000CF000030D000AB
:10096800303021003906031DD42C20000D1ED42C54
:100978004F035004031DD42C210050035104031DC0
:10098800CE2C37308731412782318F312127823170
:1009980025008C122100D001D1012000CF01D00107
:1009A800303021003A06031DF62C20008D1AF62C53
:1009B8004D084E04031DF62C210050035104031D5D
:1009C800EE2C383087310D2782318F312127823143
:1009D80025000C162100D001D10101302000CD00E6
:1009E8000030CE00303021003A06031D162D2000BD
:1009F8008D1E162D4D034E04031D162D2100500388
:100A08005104031D102D38308731412782318F3131
:100A18002127823125000C122100D001D1012000AC
:100A2800CD01CE01303021003B06031D3B2D2000B7
:100A38008F1A3B2D4B084C04031D3B2D21005003FE
:100A48005104031D332D2000C901CA0139308731F3
:100A58000D2782318F312127823125008C15210005
:100A6800D001D10101302000CB000030CC00303063
:100A780021003B06031D8B2A20008F1E8B2A4B0367
:100A88004C04031D8B2A210050035104031D552DCE
:100A980039308731412782318F3121278231250032
:100AA8008C112100D001D1012000CB01CC018B2A6F
:100AB8002000B800BD01BE01C101C201B601B701E5
:100AC800BF01C0016C08BA006B08B9006A08BC0015
:100AD8006908BB003808B4003408B9002E08B4000F
:100AE8003408BA0039308631682685312000270855
:100AF800BE002608BD002F08D03EC100FF300318F5
:100B08000030C2003008B4003408BB003108B4001B
:100B18003408BC003B308631682685312000270820
:100B2800B7002608B6003208B4003D08C03E86006B
:100B38008701340881003D08C03E8600870101080E
:100B4800B4003D08B23E86008701340881003E08A3
:100B5800B5003D08B400B435B50DB435B50D34084D
:100B6800FC3EBF00FF30353DC0004730B4003F08B1
:100B7800203E860001308700340881000130BF071D
:100B88000030C03D2F08B4003F08203E86000130E9
:100B98008700340881000130BF070030C03D3808A5
:100BA800B4003F08203E86000130870034088100E9
:100BB8000130BF070030C03D2E08B4003F08203E7A
:100BC80086000130870034088100FD30BF07FF3000
:100BD800C03D31303306031D542E3F08203E8F316F
:100BE800BB278531542E2000410C031C101003181C
:100BF80010140800410C031C9010031890140800EE
:100C0800410C2500031C0D1003180D1408002000CA
:100C1800410C2500031C8D1103188D1508002000B8
:100C2800410C2500031C0D1203180D1608002000A6
:100C3800410C2500031C0C1303180C170800200096
:100C4800410C2500031C8C1203188C160800200088
:100C5800410C2500031C0C1203180C160800200078
:100C68004208CA004108C900462E25008C15080014
:100C780020003008B4003408F8003108B400340803
:100C8800F70008004208003A03194B2E672E410866
:100C9800003A0319392E013A03193C2E672E080031
:100CA80020003E08003A03195A2E672E3D08FF3EE1
:100CB800031C080084000930040203180800883166
:100CC8000435DC3E820008002000AD002D088600B7
:100CD800870120300106031D762E0130A800280860
:100CE800AD076A2E2D088600870109300106031911
:100CF800712EAB01AC01AA012D08860087012D30A9
:100D08000106031D8C2E0130A8002808AA07932E7F
:100D18002D08860087012B300106031D972E013010
:100D2800A8002808AD072D088600870101088F3123
:100D380001278631031CBE2E20002C08A1002B0899
:100D4800A0000A30A2000030A3008F319F2786310F
:100D580020002D088600870101082007A800210827
:100D68000318210AA9002808D03EAB00FF30293D0E
:100D7800AC00932E20002A080319CE2E2B09A800B8
:100D88002C09A900A80A0319A90A2808A6002908F5
:100D9800A70008002C08A7002B08A6000800233489
:100DA800003400340034003400340034003400349B
:100DB800003400340034003400340034003400348B
:100DC800003400340034003400340034003400347B
:100DD800003400340034003400340034003400346B
:100DE800003400340034003400340034003400345B
:100DF800003400340034003400340034003400344B
:100E0800003400340034003400340034003400343A
:100E180000342000A100523023009A000630200040
:100E2800A0003030890B162FA00B162F0000313090
:100E380023009A0006302000A0003030890B222FB2
:100E4800A00B222F0000303023009A00063020002B
:100E5800A0003030890B2E2FA00B2E2F0000200071
:100E6800210823009A0006302000A0003030890BAA
:100E78003B2FA00B3B2F000008002000A1005230A0
:100E880023009A0006302000A0003030890B4A2F3A
:100E9800A00B4A2F0000303023009A0006302000B3
:100EA800A0003030890B562FA00B562F0000303091
:100EB80023009A0006302000A0003030890B622FF2
:100EC800A00B622F00002000210823009A000630A2
:100ED8002000A0003030890B6F2FA00B6F2F00006F
:100EE800080002302000A1000030A2000230A1005A
:100EF8000030A2002208803AA00080302002031DA2
:100F0800872F093021020318080020002108A03E7D
:100F1800860087010108A0002108FE3E5F3E86008A
:100F28008701200881002330A0002108A03E860008
:100F38008701200881000130A1070030A23D7E2FE3
:100F480023340034003400340034003400340034D6
:100F580000340034003400340034003400340034E9
:100F680000340034303430343034303430343034B9
:100F780030343034303430343034303400340034A9
:100F88003034303430343034303430343034303439
:100F98003034303430343034003400348F31322738
:100FA80087318F315B27873121000F178F170D1479
:100FB8008D140D158D150D168D168F161010901099
:100FC80026000D108D110D120C138C120C128C11A1
:100FD8002100901590151016901526000C108C10F5
:100FE8000C1121000F128F110F110E138E178F3154
:100FF8003227080030343034803173288031752826
:101008008031772880317B2880317F288031812882
:1010180080318328803185288031892880318A2849
:1010280080319C2880319E288031A2288031A428D4
:101038008031A6288031A8288031AC288031AE289C
:101048008031B2288031B4288031C6288031C82840
:101058008031CC288031CE288031D2288031D428E4
:101068008031D8288031DA288031DE288031E028A4
:101078008031F2288031F4288031F6288031F82830
:101088008031FA288031FC288031FE2881310029FE
:1010980081310229813104298131142981311629AC
:1010A8008131182981311A2981311C2981311E2960
:1010B8008131202981312229813124298131262930
:1010C800813136298131382981313A2981313C29C8
:1010D80081313E2981314029813142298131442998
:1010E80081314629813148298131582981315A294C
:1010F80081315C2981315E29813160298131622900
:1011080081316429813166298131682981316A29CF
:1011180081317A2981317C2981317E298131802967
:101128008131822981318429813186298131882937
:1011380081318A2981318C2981319C2981319E29EB
:101148008131A2298131A6298131AA298131AE298B
:101158008131B2298131B6298131BA298131BE293B
:101168008131D0298131D4298131D8298131DC29B3
:101178008131E0298131E4298131E8298131EC2963
:101188008131F0298131F42980318E288031B828C5
:101198008031E428813106298131282981314A2981
:1011A80081316C2981318E298131C2298131FA2915
:1011B8008531F72D8531FE2D8631042E86310B2E93
:1011C8008631132E86311B2E8631232E86312B2E07
:0411D8008631332EFB
:101CDC00640080010131890B6F2E0034FE0012006C
:101CEC001E00FE0B752E003408302B009E009C014C
:101CFC0020001211210012150800083028009E0047
:101D0C009C012000931121009315080008302B0032
:101D1C009700950120009210210092140800843045
:101D2C002C009F009E019D0120009413210094170C
:101D3C00080084302C0096009501940120001411A9
:101D4C0021001415080084302C009C009801970188
:101D5C002000941121009415080084302C009C0064
:101D6C009B019A012000141321001417080008305D
:101D7C0020009C009A019110210091148B170B17D5
:101D8C00080028009A019B01990198012000131169
:101D9C002100131508002000980199019701960164
:101DAC001110210011148B170B1708000830280094
:101DBC009700950120009310210093148B170B179B
:101DCC000800280093019401920191012000131046
:101DDC00210013148B170B17080023340034003424
:101DEC000034003400340034003400340034233424
:101DFC000034233400342000A100A0013A30210229
:101E0C0003180E2F30302102031C0E2FA001A00A44
:101E1C00200C080025008C1003302000A100083095
:101E2C00A0007730890B182FA00B182FA10B182F9F
:101E3C0025008C14080025000C1003302000A10094
:101E4C000830A0007730890B292FA00B292FA10B6C
:101E5C00292F25000C1408002000101090102500CC
:101E6C000D108D110D120C138C120C120C148C14F1
:101E7C000C1520000F128F110F1125008C1108006A
:101E8C0070088400710885001200031908002300F3
:101E9C009E1C4D2F700884007108850000089A0064
:101EAC000130F0070030F13D462F28008D0129004C
:101EBC008D0128008C012300900124009001230047
:101ECC008F0124008F0123008D0124008D0123003C
:101EDC008C0108002100911211120A3023009F007E
:101EEC0090309D0024309E00A0309B0001309C005F
:101EFC008B170B172100911623009E169D170800B7
:101F0C002000200884002108850012000319080015
:101F1C0023009E1C8E2F20002008840021088500A1
:101F2C00000823009A0001302000A0070030A13DDA
:101F3C00862F2000A401A501201CA82F2208A4078D
:101F4C002308A53D0130A235A30D890BA92F013023
:101F5C00A136A00C890BAE2F20082104031DA22F43
:101F6C002508A1002408A00008002000A300A1015E
:101F7C00A2010430210622040319080023009E1C30
:101F8C00C42F20002308860001308700010823009D
:101F9C009A0001302000A0002008A3070130A107FF
:101FAC000030A23DBF2F8F3170278F318E31D1265B
:101FBC008F318E31BD268F318E31E7268F318E31A8
:101FCC00DC268F318E31C7268F318E3183268F31AF
:101FDC008E318C268F318E317A268F318E31B3260D
:101FEC008F318E31A9268F318E319F268F318E31D4
:101FFC0095260800453452344C345334003445345F
:10200C0052344F34563400344534523452345834EC
:02201C0000348E
:020000040001F9
:04000E00A2C9FFDDA7
:00000001FF
