:100000008231152A303430347E14803120007F084C
:10001000F400911E492823009D1C17281D121D164F
:100020000530F0009030F1008F316D2780312300D2
:100030001908F3007508A03E860087017308810047
:10004000253021002006031D3D280130F507003032
:10005000F63D7608803AF30080307302031D3228A3
:1000600010307502031C492801302000DD000030EB
:10007000DE00F501F6019112492823001D121D161C
:10008000F501F6010A30F0009030F1008F316D2754
:1000900080312100131C54282000131C54281310F5
:1000A00025008C11280013102100111C6528200048
:1000B000111C6528111025008C15FF3028009200B6
:1000C000D83091001314200018102000141B141FA6
:1000D000112A141349034A040319042A112A7B30F4
:1000E000E5297C30E9297D3097008830F3297F307D
:1000F00097001830F32980309B2981309F29833065
:10010000A72983309700C830F3299E2885309700AF
:100110005830F3297708D03E031C112A84000A3096
:1001200004020318112A88310435003E8200112A86
:100130008630AF2986309700E830F3298730B3291D
:100140008830B7298930BB298A3097000830F329D5
:100150008A30CD298B3097009830F3298C30D12903
:100160008D3097002830F3297708D03E031C112AE0
:1001700084000A3004020318112A88310435143E21
:100180008200112A8D30D5298E309700B830F3299E
:100190008F30D929903097004830F3299130DD29EC
:1001A00091309700D830F3299230E12993309700AD
:1001B0006830F3299430E52994309700F830F3291A
:1001C0007708D03E031C112A84000A300402031869
:1001D000112A88310435283E8200112A9530E929F8
:1001E0009730ED299830F1299A309F299C30A72922
:1001F0009D30AB299F30AF29A030B329A230BB2955
:10020000A330CD297708D03E031C112A84000A3080
:1002100004020318112A883104353C3E8200112A59
:10022000A530D129A630D529A830D929AA30DD2971
:10023000AB30E129AD30E529AE30E929B030ED2908
:10024000B130F129B3309F297708D03E031C112A21
:1002500084000A3004020318112A88310435503E04
:100260008200112AB530A729B630AB29B830AF29A2
:10027000B930B329BB30BB29BC30CD29BE30D12920
:10028000BF30D529C130D929C330DD297708D03E08
:10029000031C112A84000A3004020318112A883131
:1002A0000435643E8200112AC430E129C630E529B4
:1002B000C730E929C930ED29CA30F129CC309F294E
:1002C000CE30A729CF30AB29D130AF29D230B329D6
:1002D0007708D03E031C112A84000A300402031858
:1002E000112A88310435783E8200112AD430BB2986
:1002F000D530CD29D730D129D830D529DA30D929F0
:10030000DC30DD29DD30E129DF30E529E030E92985
:10031000E230ED297708D03E031C112A84000A3010
:1003200004020318112A883104358C3E8200112AF8
:10033000E330F129E4309700A830F329E530970045
:100340007030F329E63097003830F329E730970012
:100350009601F429E83097009030F329EA309700AD
:100360002030F329EB309700B030F329EC309700C0
:100370007830F329ED3097004030F3297708D03EEC
:10038000031C112A84000A3004020318112A883140
:100390000435A03E8200112AEE309700D030F329B8
:1003A000F03097006030F329F1309700F030F329F6
:1003B000F33097008030F329F53097001030F3299F
:1003C000F6309700A030F329F83097003030F32949
:1003D000F9309700C030F329FB3097005030F329F3
:1003E000FC309700E03096001814112A7708D03EB0
:1003F000031C112A84000A3004020318112A8831D0
:100400000435B43E8200112A7808D03E031C112A1C
:1004100084000A3004020318112A88310435C83ECA
:1004200082007408FF007E1009008231172A803193
:1004300002208231F700803103208231F8001F3022
:1004400084008F3085005F308600003087000E30DA
:100450008E31F8268231A030840087308500A030AC
:100460008600003087002E308E31F8268231CF3062
:1004700084008630850020308600013087003A30C5
:100480008E31F8268231F501F601493084000030C2
:10049000850016308E31F2267E1020008231502ADF
:1004A00029302000C4009630C3007F30890B562AC3
:1004B000C30B562AC40B562A01302000DB00003043
:1004C000DC000130D9000030DA000130D700003004
:1004D000D8000130D5000030D6000130D300003004
:1004E000D4000130D1000030D2000130CF00003004
:1004F000D0000130CD000030CE000130CB00003004
:10050000CC008731CE2782318731F4278231200019
:100510005D035E04031DFE2ADD01DE01253021009E
:100520002006031DC32A25302106031DC32A40309F
:100530002E06031DC32A40302F06031DC32A8F3108
:100540004B27823187317127823120006008C30038
:100550004308AE006108C4004408AF006208C5004B
:100560004508B0006308C6004608B1006408C7002B
:100570004708B2006508C8004808B3005F08853125
:1005800058258231FE2A00302000A0009030A100C2
:100590008F31AD27823123009D131D122100CE0122
:1005A000CF014F08803A2000C30080304302031D72
:1005B000DC2A0F3021004E020318FB2A23302000D2
:1005C000C30021004E08A03E86008701200043089A
:1005D000810001302100CE070030CF3D4F08803A26
:1005E0002000C30080304302031DF92A0F30210090
:1005F0004E02031CDE2A23001D169D170130210028
:10060000D0000030D10030303306031D242B2000F1
:100610000F1B242B5B085C04031D242B21005003BB
:100620005104031D1C2B31308731092782318F3152
:100630005C278231200010142100D001D10101304B
:100640002000DB000030DC00303021003306031DC9
:10065000442B20000F1F442B5B035C04031D442B21
:10066000210050035104031D3E2B313087313D27BB
:1006700082318F315C278231200010102100D0019F
:10068000D1012000DB01DC01303021003406031DE4
:10069000662B20008F1B662B59085A04031D662BFE
:1006A000210050035104031D5E2B3230873109278E
:1006B00082318F315C278231200090142100D001DB
:1006C000D10101302000D9000030DA0030302100A3
:1006D0003406031D862B20008F1F862B59035A04D6
:1006E000031D862B210050035104031D802B323043
:1006F00087313D2782318F315C2782312000901075
:100700002100D001D1012000D901DA0130302100CF
:100710003506031DA82B20000D18A82B57085804D8
:10072000031DA82B210050035104031DA02B3330BF
:100730008731092782318F315C27823125000D14E2
:100740002100D001D10101302000D7000030D800B5
:10075000303021003506031DC82B20000D1CC82B8E
:1007600057035804031DC82B210050035104031DD7
:10077000C22B333087313D2782318F315C27823164
:1007800025000D102100D001D1012000D701D80192
:10079000303021003606031DEA2B20008D18EA2B8D
:1007A00055085604031DEA2B210050035104031D74
:1007B000E22B34308731092782318F315C27823137
:1007C00025008D152100D001D10101302000D50078
:1007D0000030D600303021003606031D0A2C2000E0
:1007E0008D1C0A2C55035604031D0A2C21005003AE
:1007F0005104031D042C343087313D2782318F3161
:100800005C27823125008D112100D001D10120000B
:10081000D501D601303021003706031D2C2C2000D5
:100820000D192C2C53085404031D2C2C21005003AB
:100830005104031D242C35308731092782318F3133
:100840005C27823125000D162100D001D101013035
:100850002000D3000030D400303021003706031DC3
:100860004C2C20000D1D4C2C53035404031D4C2C08
:10087000210050035104031D462C353087313D279C
:1008800082318F315C27823125000D122100D00189
:10089000D1012000D301D401303021003806031DDE
:1008A0006E2C20008D196E2C51085204031D6E2CE5
:1008B000210050035104031D662C3630873109276F
:1008C00082318F315C27823125000C172100D00145
:1008D000D10101302000D1000030D20030302100A1
:1008E0003806031D8E2C20008D1D8E2C51035204C2
:1008F000031D8E2C210050035104031D882C36301B
:1009000087313D2782318F315C27823125000C13DE
:100910002100D001D1012000D101D20130302100CD
:100920003906031DB02C20000D1AB02C4F085004BE
:10093000031DB02C210050035104031DA82C373097
:100940008731092782318F315C27823125008C164F
:100950002100D001D10101302000CF000030D000B3
:10096000303021003906031DD02C20000D1ED02C64
:100970004F035004031DD02C210050035104031DCC
:10098000CA2C373087313D2782318F315C27823145
:1009900025008C122100D001D1012000CF01D0010F
:1009A000303021003A06031DF22C20008D1AF22C63
:1009B0004D084E04031DF22C210050035104031D69
:1009C000EA2C38308731092782318F315C27823118
:1009D00025000C162100D001D10101302000CD00EE
:1009E0000030CE00303021003A06031D122D2000C9
:1009F0008D1E122D4D034E04031D122D2100500398
:100A00005104031D0C2D383087313D2782318F3141
:100A10005C27823125000C122100D001D101200079
:100A2000CD01CE01303021003B06031D372D2000C3
:100A30008F1A372D4B084C04031D372D210050030E
:100A40005104031D2F2D2000C901CA0139308731FF
:100A5000092782318F315C27823125008C152100D6
:100A6000D001D10101302000CB000030CC0030306B
:100A700021003B06031D872A20008F1E872A4B0377
:100A80004C04031D872A210050035104031D512DDE
:100A9000393087313D2782318F315C278231250003
:100AA0008C112100D001D1012000CB01CC01872A7B
:100AB0002000B800BD01BE01C101C201B601B701ED
:100AC000BF01C0016C08BA006B08B9006A08BC001D
:100AD0006908BB003808B4003408B9002E08B40017
:100AE0003408BA0039308631642685312000270861
:100AF000BE002608BD002F08D03EC100FF300318FD
:100B00000030C2003008B4003408BB003108B40023
:100B10003408BC003B30863164268531200027082C
:100B2000B7002608B6003208B4003D08C03E860073
:100B30008701340881003D08C03E86008701010816
:100B4000B4003D08B23E86008701340881003E08AB
:100B5000B5003D08B400B435B50DB435B50D340855
:100B6000FC3EBF00FF30353DC0004730B4003F08B9
:100B7000203E860001308700340881000130BF0725
:100B80000030C03D2F08B4003F08203E86000130F1
:100B90008700340881000130BF070030C03D3808AD
:100BA000B4003F08203E86000130870034088100F1
:100BB0000130BF070030C03D2E08B4003F08203E82
:100BC00086000130870034088100FD30BF07FF3008
:100BD000C03D31303306031D502E3F08203E8F317B
:100BE000E2278531502E2000410C031C1010031801
:100BF00010140800410C031C9010031890140800F6
:100C0000410C2500031C0D1003180D1408002000D2
:100C1000410C2500031C8D1103188D1508002000C0
:100C2000410C2500031C0D1203180D1608002000AE
:100C3000410C2500031C0C1303180C17080020009E
:100C4000410C2500031C8C1203188C160800200090
:100C5000410C2500031C0C1203180C160800200080
:100C60004208CA004108C900422E25008C15080020
:100C700020003008B4003408F8003108B40034080B
:100C8000F70008004208003A0319472E632E410876
:100C9000003A0319352E013A0319382E632E080045
:100CA00020003E08003A0319562E632E3D08FF3EF1
:100CB000031C08008400093004020318080088316E
:100CC0000435DC3E820008002000AD002D088600BF
:100CD000870120300106031D722E0130A80028086C
:100CE000AD07662E2D08860087010930010603191D
:100CF0006D2EAB01AC01AA012D08860087012D30B5
:100D00000106031D882E0130A8002808AA078F2E8F
:100D10002D08860087012B300106031D932E01301C
:100D2000A8002808AD072D088600870101088F312B
:100D30003C278631031CBA2E20002C08A1002B086A
:100D4000A0000A30A2000030A3008F31C6278631F0
:100D500020002D088600870101082007A80021082F
:100D60000318210AA9002808D03EAB00FF30293D16
:100D7000AC008F2E20002A080319CA2E2B09A800C8
:100D80002C09A900A80A0319A90A2808A6002908FD
:100D9000A70008002C08A7002B08A6000800233491
:100DA00000340034003400340034003400340034A3
:100DB0000034003400340034003400340034003493
:100DC0000034003400340034003400340034003483
:100DD0000034003400340034003400340034003473
:100DE0000034003400340034003400340034003463
:100DF0000034003400340034003400340034003453
:100E00000034003400340034003400340034003442
:100E100000342000A100523023009A000630200048
:100E2000A0003030890B122FA00B122F00003130A0
:100E300023009A0006302000A0003030890B1E2FBE
:100E4000A00B1E2F0000303023009A000630200037
:100E5000A0003030890B2A2FA00B2A2F0000200081
:100E6000210823009A0006302000A0003030890BB2
:100E7000372FA00B372F000008002000A1005230B0
:100E800023009A0006302000A0003030890B462F46
:100E9000A00B462F0000303023009A0006302000BF
:100EA000A0003030890B522FA00B522F00003030A1
:100EB00023009A0006302000A0003030890B5E2FFE
:100EC000A00B5E2F00002000210823009A000630AE
:100ED0002000A0003030890B6B2FA00B6B2F00007F
:100EE000080002302000A1000030A2000230A10062
:100EF0000030A2002208803AA00080302002031DAA
:100F0000832F093021020318080020002108A03E89
:100F1000860087010108A0002108FE3E5F3E860092
:100F20008701200881002330A0002108A03E860010
:100F30008701200881000130A1070030A23D7A2FEF
:100F400023340034003400340034003400340034DE
:100F500000340034003400340034003400340034F1
:100F600000340034303430343034303430343034C1
:100F700030343034303430343034303400340034B1
:100F80003034303430343034303430343034303441
:100F90003034303430343034003400348F312D2745
:100FA00087318F318227873121000F178F170D145A
:100FB0008D140D158D150D168D168F1610109010A1
:100FC00026000D108D110D120C138C120C128C11A9
:100FD0002100901526000C108C100C1121000E130E
:100FE0008E178F312D2708008F31972787318F314A
:100FF000082787318F31132787318E31FE2608006D
:1010000080316F28803171288031732880317728B2
:1010100080317B2880317D2880317F288031812874
:1010200080318528803186288031982880319A281F
:1010300080319E288031A0288031A2288031A428C8
:101040008031A8288031AA288031AE288031B0288C
:101050008031C2288031C4288031C8288031CA2814
:101060008031CE288031D0288031D4288031D628D4
:101070008031DA288031DC288031EE288031F02878
:101080008031F2288031F4288031F6288031F82828
:101090008031FA288031FC288031FE2881310029F6
:1010A0008131102981311229813114298131162988
:1010B0008131182981311A2981311C2981311E2958
:1010C000813120298131222981313229813134290C
:1010D000813136298131382981313A2981313C29C0
:1010E00081313E2981314029813142298131442990
:1010F00081315429813156298131582981315A2928
:1011000081315C2981315E298131602981316229F7
:1011100081316429813166298131762981317829AB
:1011200081317A2981317C2981317E29813180295F
:10113000813182298131842981318629813188292F
:101140008131982981319A2981319E298131A229C1
:101150008131A6298131AA298131AE298131B22973
:101160008131B6298131BA298131CC298131D02907
:101170008131D4298131D8298131DC298131E0299B
:101180008131E4298131E8298131EC298131F0294B
:1011900080318A288031B4288031E02881310229C9
:1011A00081312429813146298131682981318A2977
:1011B0008131BE298131F6298531F32D8531FA2D12
:1011C0008631002E8631072E86310F2E8631172E5E
:0C11D00086311F2E8631272E86312F2EEF
:101DE400640080010131890BF32E0034FE001200DF
:101DF4001E00FE0BF92E003484302C009C009B0145
:101E04009A012000141321001417080020009801DF
:101E14009901970196011110210011148B170B17CA
:101E240008002800930194019201910120001310ED
:101E3400210013148B170B170800233400340034CB
:101E440000340034003400340034003400342334CB
:101E540000342334003420001010901025000D109D
:101E64008D110D120C138C120C120C148C140C15F5
:101E74008C1108002000A100A0013A3021020318AF
:101E8400492F30302102031C492FA001A00A200C45
:101E9400080025008C1003302000A1000830A000A9
:101EA4007730890B532FA00B532FA10B532F2500F1
:101EB4008C14080025000C1003302000A100083009
:101EC400A0007730890B642FA00B642FA10B642F23
:101ED40025000C14080070088400710885001200A5
:101EE4000319080023009E1C742F700884007108D5
:101EF400850000089A000130F0070030F13D6D2F95
:101F040028008D0129008D0128008C0123009001F7
:101F14002400900123008F0124008F0123008D01F0
:101F240024008D0123008C0108002100911211125C
:101F34000A3023009F0090309D0024309E00A03082
:101F44009B0001309C008B170B1721009116230076
:101F54009E169D1708002000200884002108850093
:101F640012000319080023009E1CB52F200020082E
:101F7400840021088500000823009A000130200015
:101F8400A0070030A13DAD2F2000A401A501201C15
:101F9400CF2F2208A4072308A53D0130A235A30DA5
:101FA400890BD02F0130A136A00C890BD52F200826
:101FB4002104031DC92F2508A1002408A00008003E
:101FC4002000A300A101A201043021062204031968
:101FD400080023009E1CEB2F2000230886000130FC
:101FE4008700010823009A0001302000A000200887
:101FF400A3070130A1070030A23DE62F4534523437
:102004004C3453340034453452344F345634003451
:0A201400453452345234583400347D
:020000040001F9
:04000E00A2C9FFDDA7
:00000001FF
